{
	"upgradeability/CustomOwnable.sol": {
		"CustomOwnable": {
			"abi": [
				{
					"inputs": [],
					"stateMutability": "nonpayable",
					"type": "constructor"
				},
				{
					"anonymous": false,
					"inputs": [
						{
							"indexed": false,
							"internalType": "address",
							"name": "userAddress",
							"type": "address"
						},
						{
							"indexed": false,
							"internalType": "address payable",
							"name": "relayerAddress",
							"type": "address"
						},
						{
							"indexed": false,
							"internalType": "bytes",
							"name": "functionSignature",
							"type": "bytes"
						}
					],
					"name": "MetaTransactionExecuted",
					"type": "event"
				},
				{
					"anonymous": false,
					"inputs": [
						{
							"indexed": false,
							"internalType": "address",
							"name": "previousOwner",
							"type": "address"
						},
						{
							"indexed": false,
							"internalType": "address",
							"name": "newOwner",
							"type": "address"
						}
					],
					"name": "OwnershipTransferred",
					"type": "event"
				},
				{
					"inputs": [
						{
							"internalType": "address",
							"name": "userAddress",
							"type": "address"
						},
						{
							"internalType": "bytes",
							"name": "functionSignature",
							"type": "bytes"
						},
						{
							"internalType": "bytes32",
							"name": "sigR",
							"type": "bytes32"
						},
						{
							"internalType": "bytes32",
							"name": "sigS",
							"type": "bytes32"
						},
						{
							"internalType": "uint8",
							"name": "sigV",
							"type": "uint8"
						}
					],
					"name": "executeMetaTransaction",
					"outputs": [
						{
							"internalType": "bytes",
							"name": "",
							"type": "bytes"
						}
					],
					"stateMutability": "payable",
					"type": "function"
				},
				{
					"inputs": [],
					"name": "getChainID",
					"outputs": [
						{
							"internalType": "uint256",
							"name": "",
							"type": "uint256"
						}
					],
					"stateMutability": "view",
					"type": "function"
				},
				{
					"inputs": [
						{
							"internalType": "address",
							"name": "user",
							"type": "address"
						}
					],
					"name": "getNonce",
					"outputs": [
						{
							"internalType": "uint256",
							"name": "nonce",
							"type": "uint256"
						}
					],
					"stateMutability": "view",
					"type": "function"
				},
				{
					"inputs": [],
					"name": "owner",
					"outputs": [
						{
							"internalType": "address",
							"name": "",
							"type": "address"
						}
					],
					"stateMutability": "view",
					"type": "function"
				},
				{
					"inputs": [
						{
							"internalType": "address",
							"name": "newOwner",
							"type": "address"
						}
					],
					"name": "transferOwnership",
					"outputs": [],
					"stateMutability": "nonpayable",
					"type": "function"
				},
				{
					"inputs": [
						{
							"internalType": "address",
							"name": "owner",
							"type": "address"
						},
						{
							"internalType": "uint256",
							"name": "nonce",
							"type": "uint256"
						},
						{
							"internalType": "uint256",
							"name": "chainID",
							"type": "uint256"
						},
						{
							"internalType": "bytes",
							"name": "functionSignature",
							"type": "bytes"
						},
						{
							"internalType": "bytes32",
							"name": "sigR",
							"type": "bytes32"
						},
						{
							"internalType": "bytes32",
							"name": "sigS",
							"type": "bytes32"
						},
						{
							"internalType": "uint8",
							"name": "sigV",
							"type": "uint8"
						}
					],
					"name": "verify",
					"outputs": [
						{
							"internalType": "bool",
							"name": "",
							"type": "bool"
						}
					],
					"stateMutability": "view",
					"type": "function"
				}
			],
			"devdoc": {
				"details": "This contract has the owner address providing basic authorization control",
				"events": {
					"OwnershipTransferred(address,address)": {
						"details": "Event to show ownership has been transferred",
						"params": {
							"newOwner": "representing the address of the new owner",
							"previousOwner": "representing the address of the previous owner"
						}
					}
				},
				"kind": "dev",
				"methods": {
					"constructor": {
						"details": "The constructor sets the original owner of the contract to the sender account."
					},
					"executeMetaTransaction(address,bytes,bytes32,bytes32,uint8)": {
						"params": {
							"functionSignature": "Signature of the actual function to be called via meta transaction",
							"sigR": "R part of the signature",
							"sigS": "S part of the signature",
							"sigV": "V part of the signature",
							"userAddress": "Address of user trying to do meta transaction"
						}
					},
					"owner()": {
						"details": "Tells the address of the owner",
						"returns": {
							"_0": "the address of the owner"
						}
					},
					"transferOwnership(address)": {
						"details": "Allows the current owner to transfer control of the contract to a newOwner.",
						"params": {
							"newOwner": "The address to transfer ownership to."
						}
					}
				},
				"title": "CustomOwnable",
				"version": 1
			},
			"evm": {
				"assembly": "    /* \"upgradeability/CustomOwnable.sol\":232:1752  contract CustomOwnable is BasicMetaTransaction{\r... */\n  mstore(0x40, 0x80)\n    /* \"upgradeability/CustomOwnable.sol\":955:1011  constructor() {\r... */\n  callvalue\n  dup1\n  iszero\n  tag_1\n  jumpi\n  0x00\n  dup1\n  revert\ntag_1:\n  pop\n    /* \"upgradeability/CustomOwnable.sol\":980:1003  _setOwner(_msgSender()) */\n  tag_4\n    /* \"upgradeability/CustomOwnable.sol\":990:1002  _msgSender() */\n  tag_5\n    /* \"upgradeability/CustomOwnable.sol\":990:1000  _msgSender */\n  shl(0x20, tag_6)\n    /* \"upgradeability/CustomOwnable.sol\":990:1002  _msgSender() */\n  0x20\n  shr\n  jump\t// in\ntag_5:\n    /* \"upgradeability/CustomOwnable.sol\":980:989  _setOwner */\n  shl(0x20, tag_7)\n    /* \"upgradeability/CustomOwnable.sol\":980:1003  _setOwner(_msgSender()) */\n  0x20\n  shr\n  jump\t// in\ntag_4:\n    /* \"upgradeability/CustomOwnable.sol\":232:1752  contract CustomOwnable is BasicMetaTransaction{\r... */\n  jump(tag_8)\n    /* \"relayer/BasicMetaTransaction.sol\":3188:3772  function _msgSender() internal view virtual returns (address sender) {\r... */\ntag_6:\n    /* \"relayer/BasicMetaTransaction.sol\":3241:3255  address sender */\n  0x00\n    /* \"relayer/BasicMetaTransaction.sol\":3294:3298  this */\n  address\n    /* \"relayer/BasicMetaTransaction.sol\":3272:3299  msg.sender == address(this) */\n  0xffffffffffffffffffffffffffffffffffffffff\n  and\n    /* \"relayer/BasicMetaTransaction.sol\":3272:3282  msg.sender */\n  caller\n    /* \"relayer/BasicMetaTransaction.sol\":3272:3299  msg.sender == address(this) */\n  0xffffffffffffffffffffffffffffffffffffffff\n  and\n  eq\n    /* \"relayer/BasicMetaTransaction.sol\":3268:3765  if (msg.sender == address(this)) {\r... */\n  iszero\n  tag_10\n  jumpi\n    /* \"relayer/BasicMetaTransaction.sol\":3316:3334  bytes memory array */\n  0x00\n    /* \"relayer/BasicMetaTransaction.sol\":3337:3345  msg.data */\n  dup1\n  calldatasize\n    /* \"relayer/BasicMetaTransaction.sol\":3316:3345  bytes memory array = msg.data */\n  dup1\n  dup1\n  0x1f\n  add\n  0x20\n  dup1\n  swap2\n  div\n  mul\n  0x20\n  add\n  mload(0x40)\n  swap1\n  dup2\n  add\n  0x40\n  mstore\n  dup1\n  swap4\n  swap3\n  swap2\n  swap1\n  dup2\n  dup2\n  mstore\n  0x20\n  add\n  dup4\n  dup4\n  dup1\n  dup3\n  dup5\n  calldatacopy\n  0x00\n  dup2\n  dup5\n  add\n  mstore\n  not(0x1f)\n  0x1f\n  dup3\n  add\n  and\n  swap1\n  pop\n  dup1\n  dup4\n  add\n  swap3\n  pop\n  pop\n  pop\n  pop\n  pop\n  pop\n  pop\n  swap1\n  pop\n    /* \"relayer/BasicMetaTransaction.sol\":3360:3373  uint256 index */\n  0x00\n    /* \"relayer/BasicMetaTransaction.sol\":3376:3384  msg.data */\n  dup1\n  calldatasize\n    /* \"relayer/BasicMetaTransaction.sol\":3376:3391  msg.data.length */\n  swap1\n  pop\n    /* \"relayer/BasicMetaTransaction.sol\":3360:3391  uint256 index = msg.data.length */\n  swap1\n  pop\n    /* \"relayer/BasicMetaTransaction.sol\":3628:3670  0xffffffffffffffffffffffffffffffffffffffff */\n  0xffffffffffffffffffffffffffffffffffffffff\n    /* \"relayer/BasicMetaTransaction.sol\":3598:3603  index */\n  dup2\n    /* \"relayer/BasicMetaTransaction.sol\":3591:3596  array */\n  dup4\n    /* \"relayer/BasicMetaTransaction.sol\":3587:3604  add(array, index) */\n  add\n    /* \"relayer/BasicMetaTransaction.sol\":3581:3605  mload(add(array, index)) */\n  mload\n    /* \"relayer/BasicMetaTransaction.sol\":3555:3689  and(\r... */\n  and\n    /* \"relayer/BasicMetaTransaction.sol\":3545:3689  sender := and(\r... */\n  swap3\n  pop\n    /* \"relayer/BasicMetaTransaction.sol\":3415:3704  {\r... */\n  pop\n  pop\n    /* \"relayer/BasicMetaTransaction.sol\":3268:3765  if (msg.sender == address(this)) {\r... */\n  jump(tag_11)\ntag_10:\n    /* \"relayer/BasicMetaTransaction.sol\":3743:3753  msg.sender */\n  caller\n    /* \"relayer/BasicMetaTransaction.sol\":3736:3753  return msg.sender */\n  swap1\n  pop\n  jump(tag_9)\n    /* \"relayer/BasicMetaTransaction.sol\":3268:3765  if (msg.sender == address(this)) {\r... */\ntag_11:\n    /* \"relayer/BasicMetaTransaction.sol\":3188:3772  function _msgSender() internal view virtual returns (address sender) {\r... */\ntag_9:\n  swap1\n  jump\t// out\n    /* \"upgradeability/CustomOwnable.sol\":1265:1347  function _setOwner(address newOwner) internal {\r... */\ntag_7:\n    /* \"upgradeability/CustomOwnable.sol\":1331:1339  newOwner */\n  dup1\n    /* \"upgradeability/CustomOwnable.sol\":1322:1328  _owner */\n  0x01\n  0x00\n    /* \"upgradeability/CustomOwnable.sol\":1322:1339  _owner = newOwner */\n  0x0100\n  exp\n  dup2\n  sload\n  dup2\n  0xffffffffffffffffffffffffffffffffffffffff\n  mul\n  not\n  and\n  swap1\n  dup4\n  0xffffffffffffffffffffffffffffffffffffffff\n  and\n  mul\n  or\n  swap1\n  sstore\n  pop\n    /* \"upgradeability/CustomOwnable.sol\":1265:1347  function _setOwner(address newOwner) internal {\r... */\n  pop\n  jump\t// out\n    /* \"upgradeability/CustomOwnable.sol\":232:1752  contract CustomOwnable is BasicMetaTransaction{\r... */\ntag_8:\n  dataSize(sub_0)\n  dup1\n  dataOffset(sub_0)\n  0x00\n  codecopy\n  0x00\n  return\nstop\n\nsub_0: assembly {\n        /* \"upgradeability/CustomOwnable.sol\":232:1752  contract CustomOwnable is BasicMetaTransaction{\r... */\n      mstore(0x40, 0x80)\n      jumpi(tag_1, lt(calldatasize, 0x04))\n      shr(0xe0, calldataload(0x00))\n      dup1\n      0x0c53c51c\n      eq\n      tag_2\n      jumpi\n      dup1\n      0x2d0335ab\n      eq\n      tag_3\n      jumpi\n      dup1\n      0x564b81ef\n      eq\n      tag_4\n      jumpi\n      dup1\n      0x6281133d\n      eq\n      tag_5\n      jumpi\n      dup1\n      0x8da5cb5b\n      eq\n      tag_6\n      jumpi\n      dup1\n      0xf2fde38b\n      eq\n      tag_7\n      jumpi\n    tag_1:\n      0x00\n      dup1\n      revert\n        /* \"relayer/BasicMetaTransaction.sol\":1196:2252  function executeMetaTransaction(\r... */\n    tag_2:\n      tag_8\n      0x04\n      dup1\n      calldatasize\n      sub\n      dup2\n      add\n      swap1\n      tag_9\n      swap2\n      swap1\n      tag_10\n      jump\t// in\n    tag_9:\n      tag_11\n      jump\t// in\n    tag_8:\n      mload(0x40)\n      tag_12\n      swap2\n      swap1\n      tag_13\n      jump\t// in\n    tag_12:\n      mload(0x40)\n      dup1\n      swap2\n      sub\n      swap1\n      return\n        /* \"relayer/BasicMetaTransaction.sol\":2260:2369  function getNonce(address user) external view returns (uint256 nonce) {\r... */\n    tag_3:\n      callvalue\n      dup1\n      iszero\n      tag_14\n      jumpi\n      0x00\n      dup1\n      revert\n    tag_14:\n      pop\n      tag_15\n      0x04\n      dup1\n      calldatasize\n      sub\n      dup2\n      add\n      swap1\n      tag_16\n      swap2\n      swap1\n      tag_17\n      jump\t// in\n    tag_16:\n      tag_18\n      jump\t// in\n    tag_15:\n      mload(0x40)\n      tag_19\n      swap2\n      swap1\n      tag_20\n      jump\t// in\n    tag_19:\n      mload(0x40)\n      dup1\n      swap2\n      sub\n      swap1\n      return\n        /* \"relayer/BasicMetaTransaction.sol\":398:559  function getChainID() public view returns (uint256) {\r... */\n    tag_4:\n      callvalue\n      dup1\n      iszero\n      tag_21\n      jumpi\n      0x00\n      dup1\n      revert\n    tag_21:\n      pop\n      tag_22\n      tag_23\n      jump\t// in\n    tag_22:\n      mload(0x40)\n      tag_24\n      swap2\n      swap1\n      tag_20\n      jump\t// in\n    tag_24:\n      mload(0x40)\n      dup1\n      swap2\n      sub\n      swap1\n      return\n        /* \"relayer/BasicMetaTransaction.sol\":2655:3180  function verify(\r... */\n    tag_5:\n      callvalue\n      dup1\n      iszero\n      tag_25\n      jumpi\n      0x00\n      dup1\n      revert\n    tag_25:\n      pop\n      tag_26\n      0x04\n      dup1\n      calldatasize\n      sub\n      dup2\n      add\n      swap1\n      tag_27\n      swap2\n      swap1\n      tag_28\n      jump\t// in\n    tag_27:\n      tag_29\n      jump\t// in\n    tag_26:\n      mload(0x40)\n      tag_30\n      swap2\n      swap1\n      tag_31\n      jump\t// in\n    tag_30:\n      mload(0x40)\n      dup1\n      swap2\n      sub\n      swap1\n      return\n        /* \"upgradeability/CustomOwnable.sol\":1122:1201  function owner() public view returns (address) {\r... */\n    tag_6:\n      callvalue\n      dup1\n      iszero\n      tag_32\n      jumpi\n      0x00\n      dup1\n      revert\n    tag_32:\n      pop\n      tag_33\n      tag_34\n      jump\t// in\n    tag_33:\n      mload(0x40)\n      tag_35\n      swap2\n      swap1\n      tag_36\n      jump\t// in\n    tag_35:\n      mload(0x40)\n      dup1\n      swap2\n      sub\n      swap1\n      return\n        /* \"upgradeability/CustomOwnable.sol\":1524:1749  function transferOwnership(address newOwner) public onlyOwner {\r... */\n    tag_7:\n      callvalue\n      dup1\n      iszero\n      tag_37\n      jumpi\n      0x00\n      dup1\n      revert\n    tag_37:\n      pop\n      tag_38\n      0x04\n      dup1\n      calldatasize\n      sub\n      dup2\n      add\n      swap1\n      tag_39\n      swap2\n      swap1\n      tag_17\n      jump\t// in\n    tag_39:\n      tag_40\n      jump\t// in\n    tag_38:\n      stop\n        /* \"relayer/BasicMetaTransaction.sol\":1196:2252  function executeMetaTransaction(\r... */\n    tag_11:\n        /* \"relayer/BasicMetaTransaction.sol\":1397:1409  bytes memory */\n      0x60\n        /* \"relayer/BasicMetaTransaction.sol\":1444:1669  verify(\r... */\n      tag_42\n        /* \"relayer/BasicMetaTransaction.sol\":1469:1480  userAddress */\n      dup7\n        /* \"relayer/BasicMetaTransaction.sol\":1499:1505  nonces */\n      0x00\n        /* \"relayer/BasicMetaTransaction.sol\":1499:1518  nonces[userAddress] */\n      dup1\n        /* \"relayer/BasicMetaTransaction.sol\":1506:1517  userAddress */\n      dup10\n        /* \"relayer/BasicMetaTransaction.sol\":1499:1518  nonces[userAddress] */\n      0xffffffffffffffffffffffffffffffffffffffff\n      and\n      0xffffffffffffffffffffffffffffffffffffffff\n      and\n      dup2\n      mstore\n      0x20\n      add\n      swap1\n      dup2\n      mstore\n      0x20\n      add\n      0x00\n      keccak256\n      sload\n        /* \"relayer/BasicMetaTransaction.sol\":1537:1549  getChainID() */\n      tag_43\n        /* \"relayer/BasicMetaTransaction.sol\":1537:1547  getChainID */\n      tag_23\n        /* \"relayer/BasicMetaTransaction.sol\":1537:1549  getChainID() */\n      jump\t// in\n    tag_43:\n        /* \"relayer/BasicMetaTransaction.sol\":1568:1585  functionSignature */\n      dup9\n        /* \"relayer/BasicMetaTransaction.sol\":1604:1608  sigR */\n      dup9\n        /* \"relayer/BasicMetaTransaction.sol\":1627:1631  sigS */\n      dup9\n        /* \"relayer/BasicMetaTransaction.sol\":1650:1654  sigV */\n      dup9\n        /* \"relayer/BasicMetaTransaction.sol\":1444:1450  verify */\n      tag_29\n        /* \"relayer/BasicMetaTransaction.sol\":1444:1669  verify(\r... */\n      jump\t// in\n    tag_42:\n        /* \"relayer/BasicMetaTransaction.sol\":1422:1730  require(\r... */\n      tag_44\n      jumpi\n      mload(0x40)\n      0x08c379a000000000000000000000000000000000000000000000000000000000\n      dup2\n      mstore\n      0x04\n      add\n      tag_45\n      swap1\n      tag_46\n      jump\t// in\n    tag_45:\n      mload(0x40)\n      dup1\n      swap2\n      sub\n      swap1\n      revert\n    tag_44:\n        /* \"relayer/BasicMetaTransaction.sol\":1763:1789  nonces[userAddress].add(1) */\n      tag_47\n        /* \"relayer/BasicMetaTransaction.sol\":1787:1788  1 */\n      0x01\n        /* \"relayer/BasicMetaTransaction.sol\":1763:1769  nonces */\n      0x00\n        /* \"relayer/BasicMetaTransaction.sol\":1763:1782  nonces[userAddress] */\n      dup1\n        /* \"relayer/BasicMetaTransaction.sol\":1770:1781  userAddress */\n      dup10\n        /* \"relayer/BasicMetaTransaction.sol\":1763:1782  nonces[userAddress] */\n      0xffffffffffffffffffffffffffffffffffffffff\n      and\n      0xffffffffffffffffffffffffffffffffffffffff\n      and\n      dup2\n      mstore\n      0x20\n      add\n      swap1\n      dup2\n      mstore\n      0x20\n      add\n      0x00\n      keccak256\n      sload\n        /* \"relayer/BasicMetaTransaction.sol\":1763:1786  nonces[userAddress].add */\n      tag_48\n      swap1\n        /* \"relayer/BasicMetaTransaction.sol\":1763:1789  nonces[userAddress].add(1) */\n      swap2\n      swap1\n      0xffffffff\n      and\n      jump\t// in\n    tag_47:\n        /* \"relayer/BasicMetaTransaction.sol\":1741:1747  nonces */\n      0x00\n        /* \"relayer/BasicMetaTransaction.sol\":1741:1760  nonces[userAddress] */\n      dup1\n        /* \"relayer/BasicMetaTransaction.sol\":1748:1759  userAddress */\n      dup9\n        /* \"relayer/BasicMetaTransaction.sol\":1741:1760  nonces[userAddress] */\n      0xffffffffffffffffffffffffffffffffffffffff\n      and\n      0xffffffffffffffffffffffffffffffffffffffff\n      and\n      dup2\n      mstore\n      0x20\n      add\n      swap1\n      dup2\n      mstore\n      0x20\n      add\n      0x00\n      keccak256\n        /* \"relayer/BasicMetaTransaction.sol\":1741:1789  nonces[userAddress] = nonces[userAddress].add(1) */\n      dup2\n      swap1\n      sstore\n      pop\n        /* \"relayer/BasicMetaTransaction.sol\":1880:1892  bool success */\n      0x00\n        /* \"relayer/BasicMetaTransaction.sol\":1894:1917  bytes memory returnData */\n      dup1\n        /* \"relayer/BasicMetaTransaction.sol\":1929:1933  this */\n      address\n        /* \"relayer/BasicMetaTransaction.sol\":1921:1939  address(this).call */\n      0xffffffffffffffffffffffffffffffffffffffff\n      and\n        /* \"relayer/BasicMetaTransaction.sol\":1971:1988  functionSignature */\n      dup8\n        /* \"relayer/BasicMetaTransaction.sol\":1990:2001  userAddress */\n      dup10\n        /* \"relayer/BasicMetaTransaction.sol\":1954:2002  abi.encodePacked(functionSignature, userAddress) */\n      add(0x20, mload(0x40))\n      tag_49\n      swap3\n      swap2\n      swap1\n      tag_50\n      jump\t// in\n    tag_49:\n      mload(0x40)\n      0x20\n      dup2\n      dup4\n      sub\n      sub\n      dup2\n      mstore\n      swap1\n      0x40\n      mstore\n        /* \"relayer/BasicMetaTransaction.sol\":1921:2013  address(this).call(\r... */\n      mload(0x40)\n      tag_51\n      swap2\n      swap1\n      tag_52\n      jump\t// in\n    tag_51:\n      0x00\n      mload(0x40)\n      dup1\n      dup4\n      sub\n      dup2\n      0x00\n      dup7\n      gas\n      call\n      swap2\n      pop\n      pop\n      returndatasize\n      dup1\n      0x00\n      dup2\n      eq\n      tag_55\n      jumpi\n      mload(0x40)\n      swap2\n      pop\n      and(add(returndatasize, 0x3f), not(0x1f))\n      dup3\n      add\n      0x40\n      mstore\n      returndatasize\n      dup3\n      mstore\n      returndatasize\n      0x00\n      0x20\n      dup5\n      add\n      returndatacopy\n      jump(tag_54)\n    tag_55:\n      0x60\n      swap2\n      pop\n    tag_54:\n      pop\n        /* \"relayer/BasicMetaTransaction.sol\":1879:2013  (bool success, bytes memory returnData) = address(this).call(\r... */\n      swap2\n      pop\n      swap2\n      pop\n        /* \"relayer/BasicMetaTransaction.sol\":2034:2041  success */\n      dup2\n        /* \"relayer/BasicMetaTransaction.sol\":2026:2074  require(success, \"Function call not successful\") */\n      tag_56\n      jumpi\n      mload(0x40)\n      0x08c379a000000000000000000000000000000000000000000000000000000000\n      dup2\n      mstore\n      0x04\n      add\n      tag_57\n      swap1\n      tag_58\n      jump\t// in\n    tag_57:\n      mload(0x40)\n      dup1\n      swap2\n      sub\n      swap1\n      revert\n    tag_56:\n        /* \"relayer/BasicMetaTransaction.sol\":2090:2216  MetaTransactionExecuted(\r... */\n      0x5845892132946850460bff5a0083f71031bc5bf9aadcd40f1de79423eac9b10b\n        /* \"relayer/BasicMetaTransaction.sol\":2128:2139  userAddress */\n      dup9\n        /* \"relayer/BasicMetaTransaction.sol\":2162:2172  msg.sender */\n      caller\n        /* \"relayer/BasicMetaTransaction.sol\":2188:2205  functionSignature */\n      dup10\n        /* \"relayer/BasicMetaTransaction.sol\":2090:2216  MetaTransactionExecuted(\r... */\n      mload(0x40)\n      tag_59\n      swap4\n      swap3\n      swap2\n      swap1\n      tag_60\n      jump\t// in\n    tag_59:\n      mload(0x40)\n      dup1\n      swap2\n      sub\n      swap1\n      log1\n        /* \"relayer/BasicMetaTransaction.sol\":2234:2244  returnData */\n      dup1\n        /* \"relayer/BasicMetaTransaction.sol\":2227:2244  return returnData */\n      swap3\n      pop\n      pop\n      pop\n        /* \"relayer/BasicMetaTransaction.sol\":1196:2252  function executeMetaTransaction(\r... */\n      swap6\n      swap5\n      pop\n      pop\n      pop\n      pop\n      pop\n      jump\t// out\n        /* \"relayer/BasicMetaTransaction.sol\":2260:2369  function getNonce(address user) external view returns (uint256 nonce) {\r... */\n    tag_18:\n        /* \"relayer/BasicMetaTransaction.sol\":2315:2328  uint256 nonce */\n      0x00\n        /* \"relayer/BasicMetaTransaction.sol\":2349:2355  nonces */\n      dup1\n        /* \"relayer/BasicMetaTransaction.sol\":2349:2361  nonces[user] */\n      0x00\n        /* \"relayer/BasicMetaTransaction.sol\":2356:2360  user */\n      dup4\n        /* \"relayer/BasicMetaTransaction.sol\":2349:2361  nonces[user] */\n      0xffffffffffffffffffffffffffffffffffffffff\n      and\n      0xffffffffffffffffffffffffffffffffffffffff\n      and\n      dup2\n      mstore\n      0x20\n      add\n      swap1\n      dup2\n      mstore\n      0x20\n      add\n      0x00\n      keccak256\n      sload\n        /* \"relayer/BasicMetaTransaction.sol\":2341:2361  nonce = nonces[user] */\n      swap1\n      pop\n        /* \"relayer/BasicMetaTransaction.sol\":2260:2369  function getNonce(address user) external view returns (uint256 nonce) {\r... */\n      swap2\n      swap1\n      pop\n      jump\t// out\n        /* \"relayer/BasicMetaTransaction.sol\":398:559  function getChainID() public view returns (uint256) {\r... */\n    tag_23:\n        /* \"relayer/BasicMetaTransaction.sol\":441:448  uint256 */\n      0x00\n        /* \"relayer/BasicMetaTransaction.sol\":461:471  uint256 id */\n      dup1\n        /* \"relayer/BasicMetaTransaction.sol\":512:521  chainid() */\n      chainid\n        /* \"relayer/BasicMetaTransaction.sol\":506:521  id := chainid() */\n      swap1\n      pop\n        /* \"relayer/BasicMetaTransaction.sol\":549:551  id */\n      dup1\n        /* \"relayer/BasicMetaTransaction.sol\":542:551  return id */\n      swap2\n      pop\n      pop\n        /* \"relayer/BasicMetaTransaction.sol\":398:559  function getChainID() public view returns (uint256) {\r... */\n      swap1\n      jump\t// out\n        /* \"relayer/BasicMetaTransaction.sol\":2655:3180  function verify(\r... */\n    tag_29:\n        /* \"relayer/BasicMetaTransaction.sol\":2881:2885  bool */\n      0x00\n        /* \"relayer/BasicMetaTransaction.sol\":2898:2910  bytes32 hash */\n      dup1\n        /* \"relayer/BasicMetaTransaction.sol\":2913:3015  prefixed(\r... */\n      tag_64\n        /* \"relayer/BasicMetaTransaction.sol\":2963:2968  nonce */\n      dup9\n        /* \"relayer/BasicMetaTransaction.sol\":2970:2974  this */\n      address\n        /* \"relayer/BasicMetaTransaction.sol\":2976:2983  chainID */\n      dup10\n        /* \"relayer/BasicMetaTransaction.sol\":2985:3002  functionSignature */\n      dup10\n        /* \"relayer/BasicMetaTransaction.sol\":2946:3003  abi.encodePacked(nonce, this, chainID, functionSignature) */\n      add(0x20, mload(0x40))\n      tag_65\n      swap5\n      swap4\n      swap3\n      swap2\n      swap1\n      tag_66\n      jump\t// in\n    tag_65:\n      mload(0x40)\n      0x20\n      dup2\n      dup4\n      sub\n      sub\n      dup2\n      mstore\n      swap1\n      0x40\n      mstore\n        /* \"relayer/BasicMetaTransaction.sol\":2936:3004  keccak256(abi.encodePacked(nonce, this, chainID, functionSignature)) */\n      dup1\n      mload\n      swap1\n      0x20\n      add\n      keccak256\n        /* \"relayer/BasicMetaTransaction.sol\":2913:2921  prefixed */\n      tag_67\n        /* \"relayer/BasicMetaTransaction.sol\":2913:3015  prefixed(\r... */\n      jump\t// in\n    tag_64:\n        /* \"relayer/BasicMetaTransaction.sol\":2898:3015  bytes32 hash = prefixed(\r... */\n      swap1\n      pop\n        /* \"relayer/BasicMetaTransaction.sol\":3026:3040  address signer */\n      0x00\n        /* \"relayer/BasicMetaTransaction.sol\":3043:3076  ecrecover(hash, sigV, sigR, sigS) */\n      0x01\n        /* \"relayer/BasicMetaTransaction.sol\":3053:3057  hash */\n      dup3\n        /* \"relayer/BasicMetaTransaction.sol\":3059:3063  sigV */\n      dup6\n        /* \"relayer/BasicMetaTransaction.sol\":3065:3069  sigR */\n      dup9\n        /* \"relayer/BasicMetaTransaction.sol\":3071:3075  sigS */\n      dup9\n        /* \"relayer/BasicMetaTransaction.sol\":3043:3076  ecrecover(hash, sigV, sigR, sigS) */\n      mload(0x40)\n      0x00\n      dup2\n      mstore\n      0x20\n      add\n      0x40\n      mstore\n      mload(0x40)\n      tag_68\n      swap5\n      swap4\n      swap3\n      swap2\n      swap1\n      tag_69\n      jump\t// in\n    tag_68:\n      0x20\n      mload(0x40)\n      0x20\n      dup2\n      sub\n      swap1\n      dup1\n      dup5\n      sub\n      swap1\n      dup6\n      gas\n      staticcall\n      iszero\n      dup1\n      iszero\n      tag_71\n      jumpi\n      returndatasize\n      0x00\n      dup1\n      returndatacopy\n      revert(0x00, returndatasize)\n    tag_71:\n      pop\n      pop\n      pop\n      mload(sub(mload(0x40), 0x20))\n        /* \"relayer/BasicMetaTransaction.sol\":3026:3076  address signer = ecrecover(hash, sigV, sigR, sigS) */\n      swap1\n      pop\n        /* \"relayer/BasicMetaTransaction.sol\":3113:3114  0 */\n      0x00\n        /* \"relayer/BasicMetaTransaction.sol\":3095:3115  signer != address(0) */\n      0xffffffffffffffffffffffffffffffffffffffff\n      and\n        /* \"relayer/BasicMetaTransaction.sol\":3095:3101  signer */\n      dup2\n        /* \"relayer/BasicMetaTransaction.sol\":3095:3115  signer != address(0) */\n      0xffffffffffffffffffffffffffffffffffffffff\n      and\n      eq\n      iszero\n        /* \"relayer/BasicMetaTransaction.sol\":3087:3137  require(signer != address(0), \"Invalid signature\") */\n      tag_72\n      jumpi\n      mload(0x40)\n      0x08c379a000000000000000000000000000000000000000000000000000000000\n      dup2\n      mstore\n      0x04\n      add\n      tag_73\n      swap1\n      tag_74\n      jump\t// in\n    tag_73:\n      mload(0x40)\n      dup1\n      swap2\n      sub\n      swap1\n      revert\n    tag_72:\n        /* \"relayer/BasicMetaTransaction.sol\":3165:3171  signer */\n      dup1\n        /* \"relayer/BasicMetaTransaction.sol\":3156:3171  owner == signer */\n      0xffffffffffffffffffffffffffffffffffffffff\n      and\n        /* \"relayer/BasicMetaTransaction.sol\":3156:3161  owner */\n      dup11\n        /* \"relayer/BasicMetaTransaction.sol\":3156:3171  owner == signer */\n      0xffffffffffffffffffffffffffffffffffffffff\n      and\n      eq\n        /* \"relayer/BasicMetaTransaction.sol\":3148:3172  return (owner == signer) */\n      swap3\n      pop\n      pop\n      pop\n        /* \"relayer/BasicMetaTransaction.sol\":2655:3180  function verify(\r... */\n      swap8\n      swap7\n      pop\n      pop\n      pop\n      pop\n      pop\n      pop\n      pop\n      jump\t// out\n        /* \"upgradeability/CustomOwnable.sol\":1122:1201  function owner() public view returns (address) {\r... */\n    tag_34:\n        /* \"upgradeability/CustomOwnable.sol\":1160:1167  address */\n      0x00\n        /* \"upgradeability/CustomOwnable.sol\":1187:1193  _owner */\n      0x01\n      0x00\n      swap1\n      sload\n      swap1\n      0x0100\n      exp\n      swap1\n      div\n      0xffffffffffffffffffffffffffffffffffffffff\n      and\n        /* \"upgradeability/CustomOwnable.sol\":1180:1193  return _owner */\n      swap1\n      pop\n        /* \"upgradeability/CustomOwnable.sol\":1122:1201  function owner() public view returns (address) {\r... */\n      swap1\n      jump\t// out\n        /* \"upgradeability/CustomOwnable.sol\":1524:1749  function transferOwnership(address newOwner) public onlyOwner {\r... */\n    tag_40:\n        /* \"upgradeability/CustomOwnable.sol\":781:788  owner() */\n      tag_77\n        /* \"upgradeability/CustomOwnable.sol\":781:786  owner */\n      tag_34\n        /* \"upgradeability/CustomOwnable.sol\":781:788  owner() */\n      jump\t// in\n    tag_77:\n        /* \"upgradeability/CustomOwnable.sol\":765:788  _msgSender() == owner() */\n      0xffffffffffffffffffffffffffffffffffffffff\n      and\n        /* \"upgradeability/CustomOwnable.sol\":765:777  _msgSender() */\n      tag_78\n        /* \"upgradeability/CustomOwnable.sol\":765:775  _msgSender */\n      tag_79\n        /* \"upgradeability/CustomOwnable.sol\":765:777  _msgSender() */\n      jump\t// in\n    tag_78:\n        /* \"upgradeability/CustomOwnable.sol\":765:788  _msgSender() == owner() */\n      0xffffffffffffffffffffffffffffffffffffffff\n      and\n      eq\n        /* \"upgradeability/CustomOwnable.sol\":757:817  require(_msgSender() == owner(), \"CustomOwnable: FORBIDDEN\") */\n      tag_80\n      jumpi\n      mload(0x40)\n      0x08c379a000000000000000000000000000000000000000000000000000000000\n      dup2\n      mstore\n      0x04\n      add\n      tag_81\n      swap1\n      tag_82\n      jump\t// in\n    tag_81:\n      mload(0x40)\n      dup1\n      swap2\n      sub\n      swap1\n      revert\n    tag_80:\n        /* \"upgradeability/CustomOwnable.sol\":1625:1626  0 */\n      0x00\n        /* \"upgradeability/CustomOwnable.sol\":1605:1627  newOwner != address(0) */\n      0xffffffffffffffffffffffffffffffffffffffff\n      and\n        /* \"upgradeability/CustomOwnable.sol\":1605:1613  newOwner */\n      dup2\n        /* \"upgradeability/CustomOwnable.sol\":1605:1627  newOwner != address(0) */\n      0xffffffffffffffffffffffffffffffffffffffff\n      and\n      eq\n      iszero\n        /* \"upgradeability/CustomOwnable.sol\":1597:1656  require(newOwner != address(0), \"CustomOwnable: FORBIDDEN\") */\n      tag_84\n      jumpi\n      mload(0x40)\n      0x08c379a000000000000000000000000000000000000000000000000000000000\n      dup2\n      mstore\n      0x04\n      add\n      tag_85\n      swap1\n      tag_82\n      jump\t// in\n    tag_85:\n      mload(0x40)\n      dup1\n      swap2\n      sub\n      swap1\n      revert\n    tag_84:\n        /* \"upgradeability/CustomOwnable.sol\":1672:1711  OwnershipTransferred(owner(), newOwner) */\n      0x8be0079c531659141344cd1fd0a4f28419497f9722a3daafe3b4186f6b6457e0\n        /* \"upgradeability/CustomOwnable.sol\":1693:1700  owner() */\n      tag_86\n        /* \"upgradeability/CustomOwnable.sol\":1693:1698  owner */\n      tag_34\n        /* \"upgradeability/CustomOwnable.sol\":1693:1700  owner() */\n      jump\t// in\n    tag_86:\n        /* \"upgradeability/CustomOwnable.sol\":1702:1710  newOwner */\n      dup3\n        /* \"upgradeability/CustomOwnable.sol\":1672:1711  OwnershipTransferred(owner(), newOwner) */\n      mload(0x40)\n      tag_87\n      swap3\n      swap2\n      swap1\n      tag_88\n      jump\t// in\n    tag_87:\n      mload(0x40)\n      dup1\n      swap2\n      sub\n      swap1\n      log1\n        /* \"upgradeability/CustomOwnable.sol\":1722:1741  _setOwner(newOwner) */\n      tag_89\n        /* \"upgradeability/CustomOwnable.sol\":1732:1740  newOwner */\n      dup2\n        /* \"upgradeability/CustomOwnable.sol\":1722:1731  _setOwner */\n      tag_90\n        /* \"upgradeability/CustomOwnable.sol\":1722:1741  _setOwner(newOwner) */\n      jump\t// in\n    tag_89:\n        /* \"upgradeability/CustomOwnable.sol\":1524:1749  function transferOwnership(address newOwner) public onlyOwner {\r... */\n      pop\n      jump\t// out\n        /* \"@openzeppelin/contracts/utils/math/SafeMath.sol\":2755:2851  function add(uint256 a, uint256 b) internal pure returns (uint256) {... */\n    tag_48:\n        /* \"@openzeppelin/contracts/utils/math/SafeMath.sol\":2813:2820  uint256 */\n      0x00\n        /* \"@openzeppelin/contracts/utils/math/SafeMath.sol\":2843:2844  b */\n      dup2\n        /* \"@openzeppelin/contracts/utils/math/SafeMath.sol\":2839:2840  a */\n      dup4\n        /* \"@openzeppelin/contracts/utils/math/SafeMath.sol\":2839:2844  a + b */\n      tag_92\n      swap2\n      swap1\n      tag_93\n      jump\t// in\n    tag_92:\n        /* \"@openzeppelin/contracts/utils/math/SafeMath.sol\":2832:2844  return a + b */\n      swap1\n      pop\n        /* \"@openzeppelin/contracts/utils/math/SafeMath.sol\":2755:2851  function add(uint256 a, uint256 b) internal pure returns (uint256) {... */\n      swap3\n      swap2\n      pop\n      pop\n      jump\t// out\n        /* \"relayer/BasicMetaTransaction.sol\":2443:2647  function prefixed(bytes32 hash) internal pure returns (bytes32) {\r... */\n    tag_67:\n        /* \"relayer/BasicMetaTransaction.sol\":2498:2505  bytes32 */\n      0x00\n        /* \"relayer/BasicMetaTransaction.sol\":2619:2623  hash */\n      dup2\n        /* \"relayer/BasicMetaTransaction.sol\":2566:2624  abi.encodePacked(\"\\x19Ethereum Signed Message:\\n32\", hash) */\n      add(0x20, mload(0x40))\n      tag_95\n      swap2\n      swap1\n      tag_96\n      jump\t// in\n    tag_95:\n      mload(0x40)\n      0x20\n      dup2\n      dup4\n      sub\n      sub\n      dup2\n      mstore\n      swap1\n      0x40\n      mstore\n        /* \"relayer/BasicMetaTransaction.sol\":2538:2639  keccak256(\r... */\n      dup1\n      mload\n      swap1\n      0x20\n      add\n      keccak256\n        /* \"relayer/BasicMetaTransaction.sol\":2518:2639  return\r... */\n      swap1\n      pop\n        /* \"relayer/BasicMetaTransaction.sol\":2443:2647  function prefixed(bytes32 hash) internal pure returns (bytes32) {\r... */\n      swap2\n      swap1\n      pop\n      jump\t// out\n        /* \"relayer/BasicMetaTransaction.sol\":3188:3772  function _msgSender() internal view virtual returns (address sender) {\r... */\n    tag_79:\n        /* \"relayer/BasicMetaTransaction.sol\":3241:3255  address sender */\n      0x00\n        /* \"relayer/BasicMetaTransaction.sol\":3294:3298  this */\n      address\n        /* \"relayer/BasicMetaTransaction.sol\":3272:3299  msg.sender == address(this) */\n      0xffffffffffffffffffffffffffffffffffffffff\n      and\n        /* \"relayer/BasicMetaTransaction.sol\":3272:3282  msg.sender */\n      caller\n        /* \"relayer/BasicMetaTransaction.sol\":3272:3299  msg.sender == address(this) */\n      0xffffffffffffffffffffffffffffffffffffffff\n      and\n      eq\n        /* \"relayer/BasicMetaTransaction.sol\":3268:3765  if (msg.sender == address(this)) {\r... */\n      iszero\n      tag_98\n      jumpi\n        /* \"relayer/BasicMetaTransaction.sol\":3316:3334  bytes memory array */\n      0x00\n        /* \"relayer/BasicMetaTransaction.sol\":3337:3345  msg.data */\n      dup1\n      calldatasize\n        /* \"relayer/BasicMetaTransaction.sol\":3316:3345  bytes memory array = msg.data */\n      dup1\n      dup1\n      0x1f\n      add\n      0x20\n      dup1\n      swap2\n      div\n      mul\n      0x20\n      add\n      mload(0x40)\n      swap1\n      dup2\n      add\n      0x40\n      mstore\n      dup1\n      swap4\n      swap3\n      swap2\n      swap1\n      dup2\n      dup2\n      mstore\n      0x20\n      add\n      dup4\n      dup4\n      dup1\n      dup3\n      dup5\n      calldatacopy\n      0x00\n      dup2\n      dup5\n      add\n      mstore\n      not(0x1f)\n      0x1f\n      dup3\n      add\n      and\n      swap1\n      pop\n      dup1\n      dup4\n      add\n      swap3\n      pop\n      pop\n      pop\n      pop\n      pop\n      pop\n      pop\n      swap1\n      pop\n        /* \"relayer/BasicMetaTransaction.sol\":3360:3373  uint256 index */\n      0x00\n        /* \"relayer/BasicMetaTransaction.sol\":3376:3384  msg.data */\n      dup1\n      calldatasize\n        /* \"relayer/BasicMetaTransaction.sol\":3376:3391  msg.data.length */\n      swap1\n      pop\n        /* \"relayer/BasicMetaTransaction.sol\":3360:3391  uint256 index = msg.data.length */\n      swap1\n      pop\n        /* \"relayer/BasicMetaTransaction.sol\":3628:3670  0xffffffffffffffffffffffffffffffffffffffff */\n      0xffffffffffffffffffffffffffffffffffffffff\n        /* \"relayer/BasicMetaTransaction.sol\":3598:3603  index */\n      dup2\n        /* \"relayer/BasicMetaTransaction.sol\":3591:3596  array */\n      dup4\n        /* \"relayer/BasicMetaTransaction.sol\":3587:3604  add(array, index) */\n      add\n        /* \"relayer/BasicMetaTransaction.sol\":3581:3605  mload(add(array, index)) */\n      mload\n        /* \"relayer/BasicMetaTransaction.sol\":3555:3689  and(\r... */\n      and\n        /* \"relayer/BasicMetaTransaction.sol\":3545:3689  sender := and(\r... */\n      swap3\n      pop\n        /* \"relayer/BasicMetaTransaction.sol\":3415:3704  {\r... */\n      pop\n      pop\n        /* \"relayer/BasicMetaTransaction.sol\":3268:3765  if (msg.sender == address(this)) {\r... */\n      jump(tag_99)\n    tag_98:\n        /* \"relayer/BasicMetaTransaction.sol\":3743:3753  msg.sender */\n      caller\n        /* \"relayer/BasicMetaTransaction.sol\":3736:3753  return msg.sender */\n      swap1\n      pop\n      jump(tag_97)\n        /* \"relayer/BasicMetaTransaction.sol\":3268:3765  if (msg.sender == address(this)) {\r... */\n    tag_99:\n        /* \"relayer/BasicMetaTransaction.sol\":3188:3772  function _msgSender() internal view virtual returns (address sender) {\r... */\n    tag_97:\n      swap1\n      jump\t// out\n        /* \"upgradeability/CustomOwnable.sol\":1265:1347  function _setOwner(address newOwner) internal {\r... */\n    tag_90:\n        /* \"upgradeability/CustomOwnable.sol\":1331:1339  newOwner */\n      dup1\n        /* \"upgradeability/CustomOwnable.sol\":1322:1328  _owner */\n      0x01\n      0x00\n        /* \"upgradeability/CustomOwnable.sol\":1322:1339  _owner = newOwner */\n      0x0100\n      exp\n      dup2\n      sload\n      dup2\n      0xffffffffffffffffffffffffffffffffffffffff\n      mul\n      not\n      and\n      swap1\n      dup4\n      0xffffffffffffffffffffffffffffffffffffffff\n      and\n      mul\n      or\n      swap1\n      sstore\n      pop\n        /* \"upgradeability/CustomOwnable.sol\":1265:1347  function _setOwner(address newOwner) internal {\r... */\n      pop\n      jump\t// out\n        /* \"#utility.yul\":7:417   */\n    tag_102:\n        /* \"#utility.yul\":84:89   */\n      0x00\n        /* \"#utility.yul\":109:174   */\n      tag_104\n        /* \"#utility.yul\":125:173   */\n      tag_105\n        /* \"#utility.yul\":166:172   */\n      dup5\n        /* \"#utility.yul\":125:173   */\n      tag_106\n      jump\t// in\n    tag_105:\n        /* \"#utility.yul\":109:174   */\n      tag_107\n      jump\t// in\n    tag_104:\n        /* \"#utility.yul\":100:174   */\n      swap1\n      pop\n        /* \"#utility.yul\":197:203   */\n      dup3\n        /* \"#utility.yul\":190:195   */\n      dup2\n        /* \"#utility.yul\":183:204   */\n      mstore\n        /* \"#utility.yul\":235:239   */\n      0x20\n        /* \"#utility.yul\":228:233   */\n      dup2\n        /* \"#utility.yul\":224:240   */\n      add\n        /* \"#utility.yul\":273:276   */\n      dup5\n        /* \"#utility.yul\":264:270   */\n      dup5\n        /* \"#utility.yul\":259:262   */\n      dup5\n        /* \"#utility.yul\":255:271   */\n      add\n        /* \"#utility.yul\":252:277   */\n      gt\n        /* \"#utility.yul\":249:361   */\n      iszero\n      tag_108\n      jumpi\n        /* \"#utility.yul\":280:359   */\n      tag_109\n      tag_110\n      jump\t// in\n    tag_109:\n        /* \"#utility.yul\":249:361   */\n    tag_108:\n        /* \"#utility.yul\":370:411   */\n      tag_111\n        /* \"#utility.yul\":404:410   */\n      dup5\n        /* \"#utility.yul\":399:402   */\n      dup3\n        /* \"#utility.yul\":394:397   */\n      dup6\n        /* \"#utility.yul\":370:411   */\n      tag_112\n      jump\t// in\n    tag_111:\n        /* \"#utility.yul\":90:417   */\n      pop\n        /* \"#utility.yul\":7:417   */\n      swap4\n      swap3\n      pop\n      pop\n      pop\n      jump\t// out\n        /* \"#utility.yul\":423:562   */\n    tag_113:\n        /* \"#utility.yul\":469:474   */\n      0x00\n        /* \"#utility.yul\":507:513   */\n      dup2\n        /* \"#utility.yul\":494:514   */\n      calldataload\n        /* \"#utility.yul\":485:514   */\n      swap1\n      pop\n        /* \"#utility.yul\":523:556   */\n      tag_115\n        /* \"#utility.yul\":550:555   */\n      dup2\n        /* \"#utility.yul\":523:556   */\n      tag_116\n      jump\t// in\n    tag_115:\n        /* \"#utility.yul\":423:562   */\n      swap3\n      swap2\n      pop\n      pop\n      jump\t// out\n        /* \"#utility.yul\":568:707   */\n    tag_117:\n        /* \"#utility.yul\":614:619   */\n      0x00\n        /* \"#utility.yul\":652:658   */\n      dup2\n        /* \"#utility.yul\":639:659   */\n      calldataload\n        /* \"#utility.yul\":630:659   */\n      swap1\n      pop\n        /* \"#utility.yul\":668:701   */\n      tag_119\n        /* \"#utility.yul\":695:700   */\n      dup2\n        /* \"#utility.yul\":668:701   */\n      tag_120\n      jump\t// in\n    tag_119:\n        /* \"#utility.yul\":568:707   */\n      swap3\n      swap2\n      pop\n      pop\n      jump\t// out\n        /* \"#utility.yul\":726:1064   */\n    tag_121:\n        /* \"#utility.yul\":781:786   */\n      0x00\n        /* \"#utility.yul\":830:833   */\n      dup3\n        /* \"#utility.yul\":823:827   */\n      0x1f\n        /* \"#utility.yul\":815:821   */\n      dup4\n        /* \"#utility.yul\":811:828   */\n      add\n        /* \"#utility.yul\":807:834   */\n      slt\n        /* \"#utility.yul\":797:919   */\n      tag_123\n      jumpi\n        /* \"#utility.yul\":838:917   */\n      tag_124\n      tag_125\n      jump\t// in\n    tag_124:\n        /* \"#utility.yul\":797:919   */\n    tag_123:\n        /* \"#utility.yul\":955:961   */\n      dup2\n        /* \"#utility.yul\":942:962   */\n      calldataload\n        /* \"#utility.yul\":980:1058   */\n      tag_126\n        /* \"#utility.yul\":1054:1057   */\n      dup5\n        /* \"#utility.yul\":1046:1052   */\n      dup3\n        /* \"#utility.yul\":1039:1043   */\n      0x20\n        /* \"#utility.yul\":1031:1037   */\n      dup7\n        /* \"#utility.yul\":1027:1044   */\n      add\n        /* \"#utility.yul\":980:1058   */\n      tag_102\n      jump\t// in\n    tag_126:\n        /* \"#utility.yul\":971:1058   */\n      swap2\n      pop\n        /* \"#utility.yul\":787:1064   */\n      pop\n        /* \"#utility.yul\":726:1064   */\n      swap3\n      swap2\n      pop\n      pop\n      jump\t// out\n        /* \"#utility.yul\":1070:1209   */\n    tag_127:\n        /* \"#utility.yul\":1116:1121   */\n      0x00\n        /* \"#utility.yul\":1154:1160   */\n      dup2\n        /* \"#utility.yul\":1141:1161   */\n      calldataload\n        /* \"#utility.yul\":1132:1161   */\n      swap1\n      pop\n        /* \"#utility.yul\":1170:1203   */\n      tag_129\n        /* \"#utility.yul\":1197:1202   */\n      dup2\n        /* \"#utility.yul\":1170:1203   */\n      tag_130\n      jump\t// in\n    tag_129:\n        /* \"#utility.yul\":1070:1209   */\n      swap3\n      swap2\n      pop\n      pop\n      jump\t// out\n        /* \"#utility.yul\":1215:1350   */\n    tag_131:\n        /* \"#utility.yul\":1259:1264   */\n      0x00\n        /* \"#utility.yul\":1297:1303   */\n      dup2\n        /* \"#utility.yul\":1284:1304   */\n      calldataload\n        /* \"#utility.yul\":1275:1304   */\n      swap1\n      pop\n        /* \"#utility.yul\":1313:1344   */\n      tag_133\n        /* \"#utility.yul\":1338:1343   */\n      dup2\n        /* \"#utility.yul\":1313:1344   */\n      tag_134\n      jump\t// in\n    tag_133:\n        /* \"#utility.yul\":1215:1350   */\n      swap3\n      swap2\n      pop\n      pop\n      jump\t// out\n        /* \"#utility.yul\":1356:1685   */\n    tag_17:\n        /* \"#utility.yul\":1415:1421   */\n      0x00\n        /* \"#utility.yul\":1464:1466   */\n      0x20\n        /* \"#utility.yul\":1452:1461   */\n      dup3\n        /* \"#utility.yul\":1443:1450   */\n      dup5\n        /* \"#utility.yul\":1439:1462   */\n      sub\n        /* \"#utility.yul\":1435:1467   */\n      slt\n        /* \"#utility.yul\":1432:1551   */\n      iszero\n      tag_136\n      jumpi\n        /* \"#utility.yul\":1470:1549   */\n      tag_137\n      tag_138\n      jump\t// in\n    tag_137:\n        /* \"#utility.yul\":1432:1551   */\n    tag_136:\n        /* \"#utility.yul\":1590:1591   */\n      0x00\n        /* \"#utility.yul\":1615:1668   */\n      tag_139\n        /* \"#utility.yul\":1660:1667   */\n      dup5\n        /* \"#utility.yul\":1651:1657   */\n      dup3\n        /* \"#utility.yul\":1640:1649   */\n      dup6\n        /* \"#utility.yul\":1636:1658   */\n      add\n        /* \"#utility.yul\":1615:1668   */\n      tag_113\n      jump\t// in\n    tag_139:\n        /* \"#utility.yul\":1605:1668   */\n      swap2\n      pop\n        /* \"#utility.yul\":1561:1678   */\n      pop\n        /* \"#utility.yul\":1356:1685   */\n      swap3\n      swap2\n      pop\n      pop\n      jump\t// out\n        /* \"#utility.yul\":1691:2776   */\n    tag_10:\n        /* \"#utility.yul\":1793:1799   */\n      0x00\n        /* \"#utility.yul\":1801:1807   */\n      dup1\n        /* \"#utility.yul\":1809:1815   */\n      0x00\n        /* \"#utility.yul\":1817:1823   */\n      dup1\n        /* \"#utility.yul\":1825:1831   */\n      0x00\n        /* \"#utility.yul\":1874:1877   */\n      0xa0\n        /* \"#utility.yul\":1862:1871   */\n      dup7\n        /* \"#utility.yul\":1853:1860   */\n      dup9\n        /* \"#utility.yul\":1849:1872   */\n      sub\n        /* \"#utility.yul\":1845:1878   */\n      slt\n        /* \"#utility.yul\":1842:1962   */\n      iszero\n      tag_141\n      jumpi\n        /* \"#utility.yul\":1881:1960   */\n      tag_142\n      tag_138\n      jump\t// in\n    tag_142:\n        /* \"#utility.yul\":1842:1962   */\n    tag_141:\n        /* \"#utility.yul\":2001:2002   */\n      0x00\n        /* \"#utility.yul\":2026:2079   */\n      tag_143\n        /* \"#utility.yul\":2071:2078   */\n      dup9\n        /* \"#utility.yul\":2062:2068   */\n      dup3\n        /* \"#utility.yul\":2051:2060   */\n      dup10\n        /* \"#utility.yul\":2047:2069   */\n      add\n        /* \"#utility.yul\":2026:2079   */\n      tag_113\n      jump\t// in\n    tag_143:\n        /* \"#utility.yul\":2016:2079   */\n      swap6\n      pop\n        /* \"#utility.yul\":1972:2089   */\n      pop\n        /* \"#utility.yul\":2156:2158   */\n      0x20\n        /* \"#utility.yul\":2145:2154   */\n      dup7\n        /* \"#utility.yul\":2141:2159   */\n      add\n        /* \"#utility.yul\":2128:2160   */\n      calldataload\n        /* \"#utility.yul\":2187:2205   */\n      0xffffffffffffffff\n        /* \"#utility.yul\":2179:2185   */\n      dup2\n        /* \"#utility.yul\":2176:2206   */\n      gt\n        /* \"#utility.yul\":2173:2290   */\n      iszero\n      tag_144\n      jumpi\n        /* \"#utility.yul\":2209:2288   */\n      tag_145\n      tag_146\n      jump\t// in\n    tag_145:\n        /* \"#utility.yul\":2173:2290   */\n    tag_144:\n        /* \"#utility.yul\":2314:2376   */\n      tag_147\n        /* \"#utility.yul\":2368:2375   */\n      dup9\n        /* \"#utility.yul\":2359:2365   */\n      dup3\n        /* \"#utility.yul\":2348:2357   */\n      dup10\n        /* \"#utility.yul\":2344:2366   */\n      add\n        /* \"#utility.yul\":2314:2376   */\n      tag_121\n      jump\t// in\n    tag_147:\n        /* \"#utility.yul\":2304:2376   */\n      swap5\n      pop\n        /* \"#utility.yul\":2099:2386   */\n      pop\n        /* \"#utility.yul\":2425:2427   */\n      0x40\n        /* \"#utility.yul\":2451:2504   */\n      tag_148\n        /* \"#utility.yul\":2496:2503   */\n      dup9\n        /* \"#utility.yul\":2487:2493   */\n      dup3\n        /* \"#utility.yul\":2476:2485   */\n      dup10\n        /* \"#utility.yul\":2472:2494   */\n      add\n        /* \"#utility.yul\":2451:2504   */\n      tag_117\n      jump\t// in\n    tag_148:\n        /* \"#utility.yul\":2441:2504   */\n      swap4\n      pop\n        /* \"#utility.yul\":2396:2514   */\n      pop\n        /* \"#utility.yul\":2553:2555   */\n      0x60\n        /* \"#utility.yul\":2579:2632   */\n      tag_149\n        /* \"#utility.yul\":2624:2631   */\n      dup9\n        /* \"#utility.yul\":2615:2621   */\n      dup3\n        /* \"#utility.yul\":2604:2613   */\n      dup10\n        /* \"#utility.yul\":2600:2622   */\n      add\n        /* \"#utility.yul\":2579:2632   */\n      tag_117\n      jump\t// in\n    tag_149:\n        /* \"#utility.yul\":2569:2632   */\n      swap3\n      pop\n        /* \"#utility.yul\":2524:2642   */\n      pop\n        /* \"#utility.yul\":2681:2684   */\n      0x80\n        /* \"#utility.yul\":2708:2759   */\n      tag_150\n        /* \"#utility.yul\":2751:2758   */\n      dup9\n        /* \"#utility.yul\":2742:2748   */\n      dup3\n        /* \"#utility.yul\":2731:2740   */\n      dup10\n        /* \"#utility.yul\":2727:2749   */\n      add\n        /* \"#utility.yul\":2708:2759   */\n      tag_131\n      jump\t// in\n    tag_150:\n        /* \"#utility.yul\":2698:2759   */\n      swap2\n      pop\n        /* \"#utility.yul\":2652:2769   */\n      pop\n        /* \"#utility.yul\":1691:2776   */\n      swap3\n      swap6\n      pop\n      swap3\n      swap6\n      swap1\n      swap4\n      pop\n      jump\t// out\n        /* \"#utility.yul\":2782:4159   */\n    tag_28:\n        /* \"#utility.yul\":2902:2908   */\n      0x00\n        /* \"#utility.yul\":2910:2916   */\n      dup1\n        /* \"#utility.yul\":2918:2924   */\n      0x00\n        /* \"#utility.yul\":2926:2932   */\n      dup1\n        /* \"#utility.yul\":2934:2940   */\n      0x00\n        /* \"#utility.yul\":2942:2948   */\n      dup1\n        /* \"#utility.yul\":2950:2956   */\n      0x00\n        /* \"#utility.yul\":2999:3002   */\n      0xe0\n        /* \"#utility.yul\":2987:2996   */\n      dup9\n        /* \"#utility.yul\":2978:2985   */\n      dup11\n        /* \"#utility.yul\":2974:2997   */\n      sub\n        /* \"#utility.yul\":2970:3003   */\n      slt\n        /* \"#utility.yul\":2967:3087   */\n      iszero\n      tag_152\n      jumpi\n        /* \"#utility.yul\":3006:3085   */\n      tag_153\n      tag_138\n      jump\t// in\n    tag_153:\n        /* \"#utility.yul\":2967:3087   */\n    tag_152:\n        /* \"#utility.yul\":3126:3127   */\n      0x00\n        /* \"#utility.yul\":3151:3204   */\n      tag_154\n        /* \"#utility.yul\":3196:3203   */\n      dup11\n        /* \"#utility.yul\":3187:3193   */\n      dup3\n        /* \"#utility.yul\":3176:3185   */\n      dup12\n        /* \"#utility.yul\":3172:3194   */\n      add\n        /* \"#utility.yul\":3151:3204   */\n      tag_113\n      jump\t// in\n    tag_154:\n        /* \"#utility.yul\":3141:3204   */\n      swap8\n      pop\n        /* \"#utility.yul\":3097:3214   */\n      pop\n        /* \"#utility.yul\":3253:3255   */\n      0x20\n        /* \"#utility.yul\":3279:3332   */\n      tag_155\n        /* \"#utility.yul\":3324:3331   */\n      dup11\n        /* \"#utility.yul\":3315:3321   */\n      dup3\n        /* \"#utility.yul\":3304:3313   */\n      dup12\n        /* \"#utility.yul\":3300:3322   */\n      add\n        /* \"#utility.yul\":3279:3332   */\n      tag_127\n      jump\t// in\n    tag_155:\n        /* \"#utility.yul\":3269:3332   */\n      swap7\n      pop\n        /* \"#utility.yul\":3224:3342   */\n      pop\n        /* \"#utility.yul\":3381:3383   */\n      0x40\n        /* \"#utility.yul\":3407:3460   */\n      tag_156\n        /* \"#utility.yul\":3452:3459   */\n      dup11\n        /* \"#utility.yul\":3443:3449   */\n      dup3\n        /* \"#utility.yul\":3432:3441   */\n      dup12\n        /* \"#utility.yul\":3428:3450   */\n      add\n        /* \"#utility.yul\":3407:3460   */\n      tag_127\n      jump\t// in\n    tag_156:\n        /* \"#utility.yul\":3397:3460   */\n      swap6\n      pop\n        /* \"#utility.yul\":3352:3470   */\n      pop\n        /* \"#utility.yul\":3537:3539   */\n      0x60\n        /* \"#utility.yul\":3526:3535   */\n      dup9\n        /* \"#utility.yul\":3522:3540   */\n      add\n        /* \"#utility.yul\":3509:3541   */\n      calldataload\n        /* \"#utility.yul\":3568:3586   */\n      0xffffffffffffffff\n        /* \"#utility.yul\":3560:3566   */\n      dup2\n        /* \"#utility.yul\":3557:3587   */\n      gt\n        /* \"#utility.yul\":3554:3671   */\n      iszero\n      tag_157\n      jumpi\n        /* \"#utility.yul\":3590:3669   */\n      tag_158\n      tag_146\n      jump\t// in\n    tag_158:\n        /* \"#utility.yul\":3554:3671   */\n    tag_157:\n        /* \"#utility.yul\":3695:3757   */\n      tag_159\n        /* \"#utility.yul\":3749:3756   */\n      dup11\n        /* \"#utility.yul\":3740:3746   */\n      dup3\n        /* \"#utility.yul\":3729:3738   */\n      dup12\n        /* \"#utility.yul\":3725:3747   */\n      add\n        /* \"#utility.yul\":3695:3757   */\n      tag_121\n      jump\t// in\n    tag_159:\n        /* \"#utility.yul\":3685:3757   */\n      swap5\n      pop\n        /* \"#utility.yul\":3480:3767   */\n      pop\n        /* \"#utility.yul\":3806:3809   */\n      0x80\n        /* \"#utility.yul\":3833:3886   */\n      tag_160\n        /* \"#utility.yul\":3878:3885   */\n      dup11\n        /* \"#utility.yul\":3869:3875   */\n      dup3\n        /* \"#utility.yul\":3858:3867   */\n      dup12\n        /* \"#utility.yul\":3854:3876   */\n      add\n        /* \"#utility.yul\":3833:3886   */\n      tag_117\n      jump\t// in\n    tag_160:\n        /* \"#utility.yul\":3823:3886   */\n      swap4\n      pop\n        /* \"#utility.yul\":3777:3896   */\n      pop\n        /* \"#utility.yul\":3935:3938   */\n      0xa0\n        /* \"#utility.yul\":3962:4015   */\n      tag_161\n        /* \"#utility.yul\":4007:4014   */\n      dup11\n        /* \"#utility.yul\":3998:4004   */\n      dup3\n        /* \"#utility.yul\":3987:3996   */\n      dup12\n        /* \"#utility.yul\":3983:4005   */\n      add\n        /* \"#utility.yul\":3962:4015   */\n      tag_117\n      jump\t// in\n    tag_161:\n        /* \"#utility.yul\":3952:4015   */\n      swap3\n      pop\n        /* \"#utility.yul\":3906:4025   */\n      pop\n        /* \"#utility.yul\":4064:4067   */\n      0xc0\n        /* \"#utility.yul\":4091:4142   */\n      tag_162\n        /* \"#utility.yul\":4134:4141   */\n      dup11\n        /* \"#utility.yul\":4125:4131   */\n      dup3\n        /* \"#utility.yul\":4114:4123   */\n      dup12\n        /* \"#utility.yul\":4110:4132   */\n      add\n        /* \"#utility.yul\":4091:4142   */\n      tag_131\n      jump\t// in\n    tag_162:\n        /* \"#utility.yul\":4081:4142   */\n      swap2\n      pop\n        /* \"#utility.yul\":4035:4152   */\n      pop\n        /* \"#utility.yul\":2782:4159   */\n      swap3\n      swap6\n      swap9\n      swap2\n      swap5\n      swap8\n      pop\n      swap3\n      swap6\n      pop\n      jump\t// out\n        /* \"#utility.yul\":4165:4307   */\n    tag_163:\n        /* \"#utility.yul\":4268:4300   */\n      tag_165\n        /* \"#utility.yul\":4294:4299   */\n      dup2\n        /* \"#utility.yul\":4268:4300   */\n      tag_166\n      jump\t// in\n    tag_165:\n        /* \"#utility.yul\":4263:4266   */\n      dup3\n        /* \"#utility.yul\":4256:4301   */\n      mstore\n        /* \"#utility.yul\":4165:4307   */\n      pop\n      pop\n      jump\t// out\n        /* \"#utility.yul\":4313:4431   */\n    tag_167:\n        /* \"#utility.yul\":4400:4424   */\n      tag_169\n        /* \"#utility.yul\":4418:4423   */\n      dup2\n        /* \"#utility.yul\":4400:4424   */\n      tag_170\n      jump\t// in\n    tag_169:\n        /* \"#utility.yul\":4395:4398   */\n      dup3\n        /* \"#utility.yul\":4388:4425   */\n      mstore\n        /* \"#utility.yul\":4313:4431   */\n      pop\n      pop\n      jump\t// out\n        /* \"#utility.yul\":4437:4594   */\n    tag_171:\n        /* \"#utility.yul\":4542:4587   */\n      tag_173\n        /* \"#utility.yul\":4562:4586   */\n      tag_174\n        /* \"#utility.yul\":4580:4585   */\n      dup3\n        /* \"#utility.yul\":4562:4586   */\n      tag_170\n      jump\t// in\n    tag_174:\n        /* \"#utility.yul\":4542:4587   */\n      tag_175\n      jump\t// in\n    tag_173:\n        /* \"#utility.yul\":4537:4540   */\n      dup3\n        /* \"#utility.yul\":4530:4588   */\n      mstore\n        /* \"#utility.yul\":4437:4594   */\n      pop\n      pop\n      jump\t// out\n        /* \"#utility.yul\":4600:4709   */\n    tag_176:\n        /* \"#utility.yul\":4681:4702   */\n      tag_178\n        /* \"#utility.yul\":4696:4701   */\n      dup2\n        /* \"#utility.yul\":4681:4702   */\n      tag_179\n      jump\t// in\n    tag_178:\n        /* \"#utility.yul\":4676:4679   */\n      dup3\n        /* \"#utility.yul\":4669:4703   */\n      mstore\n        /* \"#utility.yul\":4600:4709   */\n      pop\n      pop\n      jump\t// out\n        /* \"#utility.yul\":4715:4833   */\n    tag_180:\n        /* \"#utility.yul\":4802:4826   */\n      tag_182\n        /* \"#utility.yul\":4820:4825   */\n      dup2\n        /* \"#utility.yul\":4802:4826   */\n      tag_183\n      jump\t// in\n    tag_182:\n        /* \"#utility.yul\":4797:4800   */\n      dup3\n        /* \"#utility.yul\":4790:4827   */\n      mstore\n        /* \"#utility.yul\":4715:4833   */\n      pop\n      pop\n      jump\t// out\n        /* \"#utility.yul\":4839:4996   */\n    tag_184:\n        /* \"#utility.yul\":4944:4989   */\n      tag_186\n        /* \"#utility.yul\":4964:4988   */\n      tag_187\n        /* \"#utility.yul\":4982:4987   */\n      dup3\n        /* \"#utility.yul\":4964:4988   */\n      tag_183\n      jump\t// in\n    tag_187:\n        /* \"#utility.yul\":4944:4989   */\n      tag_188\n      jump\t// in\n    tag_186:\n        /* \"#utility.yul\":4939:4942   */\n      dup3\n        /* \"#utility.yul\":4932:4990   */\n      mstore\n        /* \"#utility.yul\":4839:4996   */\n      pop\n      pop\n      jump\t// out\n        /* \"#utility.yul\":5002:5362   */\n    tag_189:\n        /* \"#utility.yul\":5088:5091   */\n      0x00\n        /* \"#utility.yul\":5116:5154   */\n      tag_191\n        /* \"#utility.yul\":5148:5153   */\n      dup3\n        /* \"#utility.yul\":5116:5154   */\n      tag_192\n      jump\t// in\n    tag_191:\n        /* \"#utility.yul\":5170:5240   */\n      tag_193\n        /* \"#utility.yul\":5233:5239   */\n      dup2\n        /* \"#utility.yul\":5228:5231   */\n      dup6\n        /* \"#utility.yul\":5170:5240   */\n      tag_194\n      jump\t// in\n    tag_193:\n        /* \"#utility.yul\":5163:5240   */\n      swap4\n      pop\n        /* \"#utility.yul\":5249:5301   */\n      tag_195\n        /* \"#utility.yul\":5294:5300   */\n      dup2\n        /* \"#utility.yul\":5289:5292   */\n      dup6\n        /* \"#utility.yul\":5282:5286   */\n      0x20\n        /* \"#utility.yul\":5275:5280   */\n      dup7\n        /* \"#utility.yul\":5271:5287   */\n      add\n        /* \"#utility.yul\":5249:5301   */\n      tag_196\n      jump\t// in\n    tag_195:\n        /* \"#utility.yul\":5326:5355   */\n      tag_197\n        /* \"#utility.yul\":5348:5354   */\n      dup2\n        /* \"#utility.yul\":5326:5355   */\n      tag_198\n      jump\t// in\n    tag_197:\n        /* \"#utility.yul\":5321:5324   */\n      dup5\n        /* \"#utility.yul\":5317:5356   */\n      add\n        /* \"#utility.yul\":5310:5356   */\n      swap2\n      pop\n        /* \"#utility.yul\":5092:5362   */\n      pop\n        /* \"#utility.yul\":5002:5362   */\n      swap3\n      swap2\n      pop\n      pop\n      jump\t// out\n        /* \"#utility.yul\":5368:5741   */\n    tag_199:\n        /* \"#utility.yul\":5472:5475   */\n      0x00\n        /* \"#utility.yul\":5500:5538   */\n      tag_201\n        /* \"#utility.yul\":5532:5537   */\n      dup3\n        /* \"#utility.yul\":5500:5538   */\n      tag_192\n      jump\t// in\n    tag_201:\n        /* \"#utility.yul\":5554:5642   */\n      tag_202\n        /* \"#utility.yul\":5635:5641   */\n      dup2\n        /* \"#utility.yul\":5630:5633   */\n      dup6\n        /* \"#utility.yul\":5554:5642   */\n      tag_203\n      jump\t// in\n    tag_202:\n        /* \"#utility.yul\":5547:5642   */\n      swap4\n      pop\n        /* \"#utility.yul\":5651:5703   */\n      tag_204\n        /* \"#utility.yul\":5696:5702   */\n      dup2\n        /* \"#utility.yul\":5691:5694   */\n      dup6\n        /* \"#utility.yul\":5684:5688   */\n      0x20\n        /* \"#utility.yul\":5677:5682   */\n      dup7\n        /* \"#utility.yul\":5673:5689   */\n      add\n        /* \"#utility.yul\":5651:5703   */\n      tag_196\n      jump\t// in\n    tag_204:\n        /* \"#utility.yul\":5728:5734   */\n      dup1\n        /* \"#utility.yul\":5723:5726   */\n      dup5\n        /* \"#utility.yul\":5719:5735   */\n      add\n        /* \"#utility.yul\":5712:5735   */\n      swap2\n      pop\n        /* \"#utility.yul\":5476:5741   */\n      pop\n        /* \"#utility.yul\":5368:5741   */\n      swap3\n      swap2\n      pop\n      pop\n      jump\t// out\n        /* \"#utility.yul\":5747:5973   */\n    tag_205:\n        /* \"#utility.yul\":5880:5966   */\n      tag_207\n        /* \"#utility.yul\":5900:5965   */\n      tag_208\n        /* \"#utility.yul\":5959:5964   */\n      dup3\n        /* \"#utility.yul\":5900:5965   */\n      tag_209\n      jump\t// in\n    tag_208:\n        /* \"#utility.yul\":5880:5966   */\n      tag_175\n      jump\t// in\n    tag_207:\n        /* \"#utility.yul\":5875:5878   */\n      dup3\n        /* \"#utility.yul\":5868:5967   */\n      mstore\n        /* \"#utility.yul\":5747:5973   */\n      pop\n      pop\n      jump\t// out\n        /* \"#utility.yul\":5979:6381   */\n    tag_210:\n        /* \"#utility.yul\":6139:6142   */\n      0x00\n        /* \"#utility.yul\":6160:6245   */\n      tag_212\n        /* \"#utility.yul\":6242:6244   */\n      0x1c\n        /* \"#utility.yul\":6237:6240   */\n      dup4\n        /* \"#utility.yul\":6160:6245   */\n      tag_213\n      jump\t// in\n    tag_212:\n        /* \"#utility.yul\":6153:6245   */\n      swap2\n      pop\n        /* \"#utility.yul\":6254:6347   */\n      tag_214\n        /* \"#utility.yul\":6343:6346   */\n      dup3\n        /* \"#utility.yul\":6254:6347   */\n      tag_215\n      jump\t// in\n    tag_214:\n        /* \"#utility.yul\":6372:6374   */\n      0x1c\n        /* \"#utility.yul\":6367:6370   */\n      dup3\n        /* \"#utility.yul\":6363:6375   */\n      add\n        /* \"#utility.yul\":6356:6375   */\n      swap1\n      pop\n        /* \"#utility.yul\":5979:6381   */\n      swap2\n      swap1\n      pop\n      jump\t// out\n        /* \"#utility.yul\":6387:6753   */\n    tag_216:\n        /* \"#utility.yul\":6529:6532   */\n      0x00\n        /* \"#utility.yul\":6550:6617   */\n      tag_218\n        /* \"#utility.yul\":6614:6616   */\n      0x1c\n        /* \"#utility.yul\":6609:6612   */\n      dup4\n        /* \"#utility.yul\":6550:6617   */\n      tag_219\n      jump\t// in\n    tag_218:\n        /* \"#utility.yul\":6543:6617   */\n      swap2\n      pop\n        /* \"#utility.yul\":6626:6719   */\n      tag_220\n        /* \"#utility.yul\":6715:6718   */\n      dup3\n        /* \"#utility.yul\":6626:6719   */\n      tag_221\n      jump\t// in\n    tag_220:\n        /* \"#utility.yul\":6744:6746   */\n      0x20\n        /* \"#utility.yul\":6739:6742   */\n      dup3\n        /* \"#utility.yul\":6735:6747   */\n      add\n        /* \"#utility.yul\":6728:6747   */\n      swap1\n      pop\n        /* \"#utility.yul\":6387:6753   */\n      swap2\n      swap1\n      pop\n      jump\t// out\n        /* \"#utility.yul\":6759:7125   */\n    tag_222:\n        /* \"#utility.yul\":6901:6904   */\n      0x00\n        /* \"#utility.yul\":6922:6989   */\n      tag_224\n        /* \"#utility.yul\":6986:6988   */\n      0x11\n        /* \"#utility.yul\":6981:6984   */\n      dup4\n        /* \"#utility.yul\":6922:6989   */\n      tag_219\n      jump\t// in\n    tag_224:\n        /* \"#utility.yul\":6915:6989   */\n      swap2\n      pop\n        /* \"#utility.yul\":6998:7091   */\n      tag_225\n        /* \"#utility.yul\":7087:7090   */\n      dup3\n        /* \"#utility.yul\":6998:7091   */\n      tag_226\n      jump\t// in\n    tag_225:\n        /* \"#utility.yul\":7116:7118   */\n      0x20\n        /* \"#utility.yul\":7111:7114   */\n      dup3\n        /* \"#utility.yul\":7107:7119   */\n      add\n        /* \"#utility.yul\":7100:7119   */\n      swap1\n      pop\n        /* \"#utility.yul\":6759:7125   */\n      swap2\n      swap1\n      pop\n      jump\t// out\n        /* \"#utility.yul\":7131:7497   */\n    tag_227:\n        /* \"#utility.yul\":7273:7276   */\n      0x00\n        /* \"#utility.yul\":7294:7361   */\n      tag_229\n        /* \"#utility.yul\":7358:7360   */\n      0x21\n        /* \"#utility.yul\":7353:7356   */\n      dup4\n        /* \"#utility.yul\":7294:7361   */\n      tag_219\n      jump\t// in\n    tag_229:\n        /* \"#utility.yul\":7287:7361   */\n      swap2\n      pop\n        /* \"#utility.yul\":7370:7463   */\n      tag_230\n        /* \"#utility.yul\":7459:7462   */\n      dup3\n        /* \"#utility.yul\":7370:7463   */\n      tag_231\n      jump\t// in\n    tag_230:\n        /* \"#utility.yul\":7488:7490   */\n      0x40\n        /* \"#utility.yul\":7483:7486   */\n      dup3\n        /* \"#utility.yul\":7479:7491   */\n      add\n        /* \"#utility.yul\":7472:7491   */\n      swap1\n      pop\n        /* \"#utility.yul\":7131:7497   */\n      swap2\n      swap1\n      pop\n      jump\t// out\n        /* \"#utility.yul\":7503:7869   */\n    tag_232:\n        /* \"#utility.yul\":7645:7648   */\n      0x00\n        /* \"#utility.yul\":7666:7733   */\n      tag_234\n        /* \"#utility.yul\":7730:7732   */\n      0x18\n        /* \"#utility.yul\":7725:7728   */\n      dup4\n        /* \"#utility.yul\":7666:7733   */\n      tag_219\n      jump\t// in\n    tag_234:\n        /* \"#utility.yul\":7659:7733   */\n      swap2\n      pop\n        /* \"#utility.yul\":7742:7835   */\n      tag_235\n        /* \"#utility.yul\":7831:7834   */\n      dup3\n        /* \"#utility.yul\":7742:7835   */\n      tag_236\n      jump\t// in\n    tag_235:\n        /* \"#utility.yul\":7860:7862   */\n      0x20\n        /* \"#utility.yul\":7855:7858   */\n      dup3\n        /* \"#utility.yul\":7851:7863   */\n      add\n        /* \"#utility.yul\":7844:7863   */\n      swap1\n      pop\n        /* \"#utility.yul\":7503:7869   */\n      swap2\n      swap1\n      pop\n      jump\t// out\n        /* \"#utility.yul\":7875:7993   */\n    tag_237:\n        /* \"#utility.yul\":7962:7986   */\n      tag_239\n        /* \"#utility.yul\":7980:7985   */\n      dup2\n        /* \"#utility.yul\":7962:7986   */\n      tag_240\n      jump\t// in\n    tag_239:\n        /* \"#utility.yul\":7957:7960   */\n      dup3\n        /* \"#utility.yul\":7950:7987   */\n      mstore\n        /* \"#utility.yul\":7875:7993   */\n      pop\n      pop\n      jump\t// out\n        /* \"#utility.yul\":7999:8156   */\n    tag_241:\n        /* \"#utility.yul\":8104:8149   */\n      tag_243\n        /* \"#utility.yul\":8124:8148   */\n      tag_244\n        /* \"#utility.yul\":8142:8147   */\n      dup3\n        /* \"#utility.yul\":8124:8148   */\n      tag_240\n      jump\t// in\n    tag_244:\n        /* \"#utility.yul\":8104:8149   */\n      tag_245\n      jump\t// in\n    tag_243:\n        /* \"#utility.yul\":8099:8102   */\n      dup3\n        /* \"#utility.yul\":8092:8150   */\n      mstore\n        /* \"#utility.yul\":7999:8156   */\n      pop\n      pop\n      jump\t// out\n        /* \"#utility.yul\":8162:8274   */\n    tag_246:\n        /* \"#utility.yul\":8245:8267   */\n      tag_248\n        /* \"#utility.yul\":8261:8266   */\n      dup2\n        /* \"#utility.yul\":8245:8267   */\n      tag_249\n      jump\t// in\n    tag_248:\n        /* \"#utility.yul\":8240:8243   */\n      dup3\n        /* \"#utility.yul\":8233:8268   */\n      mstore\n        /* \"#utility.yul\":8162:8274   */\n      pop\n      pop\n      jump\t// out\n        /* \"#utility.yul\":8280:8551   */\n    tag_52:\n        /* \"#utility.yul\":8410:8413   */\n      0x00\n        /* \"#utility.yul\":8432:8525   */\n      tag_251\n        /* \"#utility.yul\":8521:8524   */\n      dup3\n        /* \"#utility.yul\":8512:8518   */\n      dup5\n        /* \"#utility.yul\":8432:8525   */\n      tag_199\n      jump\t// in\n    tag_251:\n        /* \"#utility.yul\":8425:8525   */\n      swap2\n      pop\n        /* \"#utility.yul\":8542:8545   */\n      dup2\n        /* \"#utility.yul\":8535:8545   */\n      swap1\n      pop\n        /* \"#utility.yul\":8280:8551   */\n      swap3\n      swap2\n      pop\n      pop\n      jump\t// out\n        /* \"#utility.yul\":8557:8969   */\n    tag_50:\n        /* \"#utility.yul\":8715:8718   */\n      0x00\n        /* \"#utility.yul\":8737:8830   */\n      tag_253\n        /* \"#utility.yul\":8826:8829   */\n      dup3\n        /* \"#utility.yul\":8817:8823   */\n      dup6\n        /* \"#utility.yul\":8737:8830   */\n      tag_199\n      jump\t// in\n    tag_253:\n        /* \"#utility.yul\":8730:8830   */\n      swap2\n      pop\n        /* \"#utility.yul\":8840:8915   */\n      tag_254\n        /* \"#utility.yul\":8911:8914   */\n      dup3\n        /* \"#utility.yul\":8902:8908   */\n      dup5\n        /* \"#utility.yul\":8840:8915   */\n      tag_171\n      jump\t// in\n    tag_254:\n        /* \"#utility.yul\":8940:8942   */\n      0x14\n        /* \"#utility.yul\":8935:8938   */\n      dup3\n        /* \"#utility.yul\":8931:8943   */\n      add\n        /* \"#utility.yul\":8924:8943   */\n      swap2\n      pop\n        /* \"#utility.yul\":8960:8963   */\n      dup2\n        /* \"#utility.yul\":8953:8963   */\n      swap1\n      pop\n        /* \"#utility.yul\":8557:8969   */\n      swap4\n      swap3\n      pop\n      pop\n      pop\n      jump\t// out\n        /* \"#utility.yul\":8975:9497   */\n    tag_96:\n        /* \"#utility.yul\":9188:9191   */\n      0x00\n        /* \"#utility.yul\":9210:9358   */\n      tag_256\n        /* \"#utility.yul\":9354:9357   */\n      dup3\n        /* \"#utility.yul\":9210:9358   */\n      tag_210\n      jump\t// in\n    tag_256:\n        /* \"#utility.yul\":9203:9358   */\n      swap2\n      pop\n        /* \"#utility.yul\":9368:9443   */\n      tag_257\n        /* \"#utility.yul\":9439:9442   */\n      dup3\n        /* \"#utility.yul\":9430:9436   */\n      dup5\n        /* \"#utility.yul\":9368:9443   */\n      tag_184\n      jump\t// in\n    tag_257:\n        /* \"#utility.yul\":9468:9470   */\n      0x20\n        /* \"#utility.yul\":9463:9466   */\n      dup3\n        /* \"#utility.yul\":9459:9471   */\n      add\n        /* \"#utility.yul\":9452:9471   */\n      swap2\n      pop\n        /* \"#utility.yul\":9488:9491   */\n      dup2\n        /* \"#utility.yul\":9481:9491   */\n      swap1\n      pop\n        /* \"#utility.yul\":8975:9497   */\n      swap3\n      swap2\n      pop\n      pop\n      jump\t// out\n        /* \"#utility.yul\":9503:10253   */\n    tag_66:\n        /* \"#utility.yul\":9745:9748   */\n      0x00\n        /* \"#utility.yul\":9760:9835   */\n      tag_259\n        /* \"#utility.yul\":9831:9834   */\n      dup3\n        /* \"#utility.yul\":9822:9828   */\n      dup8\n        /* \"#utility.yul\":9760:9835   */\n      tag_241\n      jump\t// in\n    tag_259:\n        /* \"#utility.yul\":9860:9862   */\n      0x20\n        /* \"#utility.yul\":9855:9858   */\n      dup3\n        /* \"#utility.yul\":9851:9863   */\n      add\n        /* \"#utility.yul\":9844:9863   */\n      swap2\n      pop\n        /* \"#utility.yul\":9873:9976   */\n      tag_260\n        /* \"#utility.yul\":9972:9975   */\n      dup3\n        /* \"#utility.yul\":9963:9969   */\n      dup7\n        /* \"#utility.yul\":9873:9976   */\n      tag_205\n      jump\t// in\n    tag_260:\n        /* \"#utility.yul\":10001:10003   */\n      0x14\n        /* \"#utility.yul\":9996:9999   */\n      dup3\n        /* \"#utility.yul\":9992:10004   */\n      add\n        /* \"#utility.yul\":9985:10004   */\n      swap2\n      pop\n        /* \"#utility.yul\":10014:10089   */\n      tag_261\n        /* \"#utility.yul\":10085:10088   */\n      dup3\n        /* \"#utility.yul\":10076:10082   */\n      dup6\n        /* \"#utility.yul\":10014:10089   */\n      tag_241\n      jump\t// in\n    tag_261:\n        /* \"#utility.yul\":10114:10116   */\n      0x20\n        /* \"#utility.yul\":10109:10112   */\n      dup3\n        /* \"#utility.yul\":10105:10117   */\n      add\n        /* \"#utility.yul\":10098:10117   */\n      swap2\n      pop\n        /* \"#utility.yul\":10134:10227   */\n      tag_262\n        /* \"#utility.yul\":10223:10226   */\n      dup3\n        /* \"#utility.yul\":10214:10220   */\n      dup5\n        /* \"#utility.yul\":10134:10227   */\n      tag_199\n      jump\t// in\n    tag_262:\n        /* \"#utility.yul\":10127:10227   */\n      swap2\n      pop\n        /* \"#utility.yul\":10244:10247   */\n      dup2\n        /* \"#utility.yul\":10237:10247   */\n      swap1\n      pop\n        /* \"#utility.yul\":9503:10253   */\n      swap6\n      swap5\n      pop\n      pop\n      pop\n      pop\n      pop\n      jump\t// out\n        /* \"#utility.yul\":10259:10481   */\n    tag_36:\n        /* \"#utility.yul\":10352:10356   */\n      0x00\n        /* \"#utility.yul\":10390:10392   */\n      0x20\n        /* \"#utility.yul\":10379:10388   */\n      dup3\n        /* \"#utility.yul\":10375:10393   */\n      add\n        /* \"#utility.yul\":10367:10393   */\n      swap1\n      pop\n        /* \"#utility.yul\":10403:10474   */\n      tag_264\n        /* \"#utility.yul\":10471:10472   */\n      0x00\n        /* \"#utility.yul\":10460:10469   */\n      dup4\n        /* \"#utility.yul\":10456:10473   */\n      add\n        /* \"#utility.yul\":10447:10453   */\n      dup5\n        /* \"#utility.yul\":10403:10474   */\n      tag_167\n      jump\t// in\n    tag_264:\n        /* \"#utility.yul\":10259:10481   */\n      swap3\n      swap2\n      pop\n      pop\n      jump\t// out\n        /* \"#utility.yul\":10487:10819   */\n    tag_88:\n        /* \"#utility.yul\":10608:10612   */\n      0x00\n        /* \"#utility.yul\":10646:10648   */\n      0x40\n        /* \"#utility.yul\":10635:10644   */\n      dup3\n        /* \"#utility.yul\":10631:10649   */\n      add\n        /* \"#utility.yul\":10623:10649   */\n      swap1\n      pop\n        /* \"#utility.yul\":10659:10730   */\n      tag_266\n        /* \"#utility.yul\":10727:10728   */\n      0x00\n        /* \"#utility.yul\":10716:10725   */\n      dup4\n        /* \"#utility.yul\":10712:10729   */\n      add\n        /* \"#utility.yul\":10703:10709   */\n      dup6\n        /* \"#utility.yul\":10659:10730   */\n      tag_167\n      jump\t// in\n    tag_266:\n        /* \"#utility.yul\":10740:10812   */\n      tag_267\n        /* \"#utility.yul\":10808:10810   */\n      0x20\n        /* \"#utility.yul\":10797:10806   */\n      dup4\n        /* \"#utility.yul\":10793:10811   */\n      add\n        /* \"#utility.yul\":10784:10790   */\n      dup5\n        /* \"#utility.yul\":10740:10812   */\n      tag_167\n      jump\t// in\n    tag_267:\n        /* \"#utility.yul\":10487:10819   */\n      swap4\n      swap3\n      pop\n      pop\n      pop\n      jump\t// out\n        /* \"#utility.yul\":10825:11386   */\n    tag_60:\n        /* \"#utility.yul\":11008:11012   */\n      0x00\n        /* \"#utility.yul\":11046:11048   */\n      0x60\n        /* \"#utility.yul\":11035:11044   */\n      dup3\n        /* \"#utility.yul\":11031:11049   */\n      add\n        /* \"#utility.yul\":11023:11049   */\n      swap1\n      pop\n        /* \"#utility.yul\":11059:11130   */\n      tag_269\n        /* \"#utility.yul\":11127:11128   */\n      0x00\n        /* \"#utility.yul\":11116:11125   */\n      dup4\n        /* \"#utility.yul\":11112:11129   */\n      add\n        /* \"#utility.yul\":11103:11109   */\n      dup7\n        /* \"#utility.yul\":11059:11130   */\n      tag_167\n      jump\t// in\n    tag_269:\n        /* \"#utility.yul\":11140:11228   */\n      tag_270\n        /* \"#utility.yul\":11224:11226   */\n      0x20\n        /* \"#utility.yul\":11213:11222   */\n      dup4\n        /* \"#utility.yul\":11209:11227   */\n      add\n        /* \"#utility.yul\":11200:11206   */\n      dup6\n        /* \"#utility.yul\":11140:11228   */\n      tag_163\n      jump\t// in\n    tag_270:\n        /* \"#utility.yul\":11275:11284   */\n      dup2\n        /* \"#utility.yul\":11269:11273   */\n      dup2\n        /* \"#utility.yul\":11265:11285   */\n      sub\n        /* \"#utility.yul\":11260:11262   */\n      0x40\n        /* \"#utility.yul\":11249:11258   */\n      dup4\n        /* \"#utility.yul\":11245:11263   */\n      add\n        /* \"#utility.yul\":11238:11286   */\n      mstore\n        /* \"#utility.yul\":11303:11379   */\n      tag_271\n        /* \"#utility.yul\":11374:11378   */\n      dup2\n        /* \"#utility.yul\":11365:11371   */\n      dup5\n        /* \"#utility.yul\":11303:11379   */\n      tag_189\n      jump\t// in\n    tag_271:\n        /* \"#utility.yul\":11295:11379   */\n      swap1\n      pop\n        /* \"#utility.yul\":10825:11386   */\n      swap5\n      swap4\n      pop\n      pop\n      pop\n      pop\n      jump\t// out\n        /* \"#utility.yul\":11392:11602   */\n    tag_31:\n        /* \"#utility.yul\":11479:11483   */\n      0x00\n        /* \"#utility.yul\":11517:11519   */\n      0x20\n        /* \"#utility.yul\":11506:11515   */\n      dup3\n        /* \"#utility.yul\":11502:11520   */\n      add\n        /* \"#utility.yul\":11494:11520   */\n      swap1\n      pop\n        /* \"#utility.yul\":11530:11595   */\n      tag_273\n        /* \"#utility.yul\":11592:11593   */\n      0x00\n        /* \"#utility.yul\":11581:11590   */\n      dup4\n        /* \"#utility.yul\":11577:11594   */\n      add\n        /* \"#utility.yul\":11568:11574   */\n      dup5\n        /* \"#utility.yul\":11530:11595   */\n      tag_176\n      jump\t// in\n    tag_273:\n        /* \"#utility.yul\":11392:11602   */\n      swap3\n      swap2\n      pop\n      pop\n      jump\t// out\n        /* \"#utility.yul\":11608:12153   */\n    tag_69:\n        /* \"#utility.yul\":11781:11785   */\n      0x00\n        /* \"#utility.yul\":11819:11822   */\n      0x80\n        /* \"#utility.yul\":11808:11817   */\n      dup3\n        /* \"#utility.yul\":11804:11823   */\n      add\n        /* \"#utility.yul\":11796:11823   */\n      swap1\n      pop\n        /* \"#utility.yul\":11833:11904   */\n      tag_275\n        /* \"#utility.yul\":11901:11902   */\n      0x00\n        /* \"#utility.yul\":11890:11899   */\n      dup4\n        /* \"#utility.yul\":11886:11903   */\n      add\n        /* \"#utility.yul\":11877:11883   */\n      dup8\n        /* \"#utility.yul\":11833:11904   */\n      tag_180\n      jump\t// in\n    tag_275:\n        /* \"#utility.yul\":11914:11982   */\n      tag_276\n        /* \"#utility.yul\":11978:11980   */\n      0x20\n        /* \"#utility.yul\":11967:11976   */\n      dup4\n        /* \"#utility.yul\":11963:11981   */\n      add\n        /* \"#utility.yul\":11954:11960   */\n      dup7\n        /* \"#utility.yul\":11914:11982   */\n      tag_246\n      jump\t// in\n    tag_276:\n        /* \"#utility.yul\":11992:12064   */\n      tag_277\n        /* \"#utility.yul\":12060:12062   */\n      0x40\n        /* \"#utility.yul\":12049:12058   */\n      dup4\n        /* \"#utility.yul\":12045:12063   */\n      add\n        /* \"#utility.yul\":12036:12042   */\n      dup6\n        /* \"#utility.yul\":11992:12064   */\n      tag_180\n      jump\t// in\n    tag_277:\n        /* \"#utility.yul\":12074:12146   */\n      tag_278\n        /* \"#utility.yul\":12142:12144   */\n      0x60\n        /* \"#utility.yul\":12131:12140   */\n      dup4\n        /* \"#utility.yul\":12127:12145   */\n      add\n        /* \"#utility.yul\":12118:12124   */\n      dup5\n        /* \"#utility.yul\":12074:12146   */\n      tag_180\n      jump\t// in\n    tag_278:\n        /* \"#utility.yul\":11608:12153   */\n      swap6\n      swap5\n      pop\n      pop\n      pop\n      pop\n      pop\n      jump\t// out\n        /* \"#utility.yul\":12159:12468   */\n    tag_13:\n        /* \"#utility.yul\":12270:12274   */\n      0x00\n        /* \"#utility.yul\":12308:12310   */\n      0x20\n        /* \"#utility.yul\":12297:12306   */\n      dup3\n        /* \"#utility.yul\":12293:12311   */\n      add\n        /* \"#utility.yul\":12285:12311   */\n      swap1\n      pop\n        /* \"#utility.yul\":12357:12366   */\n      dup2\n        /* \"#utility.yul\":12351:12355   */\n      dup2\n        /* \"#utility.yul\":12347:12367   */\n      sub\n        /* \"#utility.yul\":12343:12344   */\n      0x00\n        /* \"#utility.yul\":12332:12341   */\n      dup4\n        /* \"#utility.yul\":12328:12345   */\n      add\n        /* \"#utility.yul\":12321:12368   */\n      mstore\n        /* \"#utility.yul\":12385:12461   */\n      tag_280\n        /* \"#utility.yul\":12456:12460   */\n      dup2\n        /* \"#utility.yul\":12447:12453   */\n      dup5\n        /* \"#utility.yul\":12385:12461   */\n      tag_189\n      jump\t// in\n    tag_280:\n        /* \"#utility.yul\":12377:12461   */\n      swap1\n      pop\n        /* \"#utility.yul\":12159:12468   */\n      swap3\n      swap2\n      pop\n      pop\n      jump\t// out\n        /* \"#utility.yul\":12474:12893   */\n    tag_58:\n        /* \"#utility.yul\":12640:12644   */\n      0x00\n        /* \"#utility.yul\":12678:12680   */\n      0x20\n        /* \"#utility.yul\":12667:12676   */\n      dup3\n        /* \"#utility.yul\":12663:12681   */\n      add\n        /* \"#utility.yul\":12655:12681   */\n      swap1\n      pop\n        /* \"#utility.yul\":12727:12736   */\n      dup2\n        /* \"#utility.yul\":12721:12725   */\n      dup2\n        /* \"#utility.yul\":12717:12737   */\n      sub\n        /* \"#utility.yul\":12713:12714   */\n      0x00\n        /* \"#utility.yul\":12702:12711   */\n      dup4\n        /* \"#utility.yul\":12698:12715   */\n      add\n        /* \"#utility.yul\":12691:12738   */\n      mstore\n        /* \"#utility.yul\":12755:12886   */\n      tag_282\n        /* \"#utility.yul\":12881:12885   */\n      dup2\n        /* \"#utility.yul\":12755:12886   */\n      tag_216\n      jump\t// in\n    tag_282:\n        /* \"#utility.yul\":12747:12886   */\n      swap1\n      pop\n        /* \"#utility.yul\":12474:12893   */\n      swap2\n      swap1\n      pop\n      jump\t// out\n        /* \"#utility.yul\":12899:13318   */\n    tag_74:\n        /* \"#utility.yul\":13065:13069   */\n      0x00\n        /* \"#utility.yul\":13103:13105   */\n      0x20\n        /* \"#utility.yul\":13092:13101   */\n      dup3\n        /* \"#utility.yul\":13088:13106   */\n      add\n        /* \"#utility.yul\":13080:13106   */\n      swap1\n      pop\n        /* \"#utility.yul\":13152:13161   */\n      dup2\n        /* \"#utility.yul\":13146:13150   */\n      dup2\n        /* \"#utility.yul\":13142:13162   */\n      sub\n        /* \"#utility.yul\":13138:13139   */\n      0x00\n        /* \"#utility.yul\":13127:13136   */\n      dup4\n        /* \"#utility.yul\":13123:13140   */\n      add\n        /* \"#utility.yul\":13116:13163   */\n      mstore\n        /* \"#utility.yul\":13180:13311   */\n      tag_284\n        /* \"#utility.yul\":13306:13310   */\n      dup2\n        /* \"#utility.yul\":13180:13311   */\n      tag_222\n      jump\t// in\n    tag_284:\n        /* \"#utility.yul\":13172:13311   */\n      swap1\n      pop\n        /* \"#utility.yul\":12899:13318   */\n      swap2\n      swap1\n      pop\n      jump\t// out\n        /* \"#utility.yul\":13324:13743   */\n    tag_46:\n        /* \"#utility.yul\":13490:13494   */\n      0x00\n        /* \"#utility.yul\":13528:13530   */\n      0x20\n        /* \"#utility.yul\":13517:13526   */\n      dup3\n        /* \"#utility.yul\":13513:13531   */\n      add\n        /* \"#utility.yul\":13505:13531   */\n      swap1\n      pop\n        /* \"#utility.yul\":13577:13586   */\n      dup2\n        /* \"#utility.yul\":13571:13575   */\n      dup2\n        /* \"#utility.yul\":13567:13587   */\n      sub\n        /* \"#utility.yul\":13563:13564   */\n      0x00\n        /* \"#utility.yul\":13552:13561   */\n      dup4\n        /* \"#utility.yul\":13548:13565   */\n      add\n        /* \"#utility.yul\":13541:13588   */\n      mstore\n        /* \"#utility.yul\":13605:13736   */\n      tag_286\n        /* \"#utility.yul\":13731:13735   */\n      dup2\n        /* \"#utility.yul\":13605:13736   */\n      tag_227\n      jump\t// in\n    tag_286:\n        /* \"#utility.yul\":13597:13736   */\n      swap1\n      pop\n        /* \"#utility.yul\":13324:13743   */\n      swap2\n      swap1\n      pop\n      jump\t// out\n        /* \"#utility.yul\":13749:14168   */\n    tag_82:\n        /* \"#utility.yul\":13915:13919   */\n      0x00\n        /* \"#utility.yul\":13953:13955   */\n      0x20\n        /* \"#utility.yul\":13942:13951   */\n      dup3\n        /* \"#utility.yul\":13938:13956   */\n      add\n        /* \"#utility.yul\":13930:13956   */\n      swap1\n      pop\n        /* \"#utility.yul\":14002:14011   */\n      dup2\n        /* \"#utility.yul\":13996:14000   */\n      dup2\n        /* \"#utility.yul\":13992:14012   */\n      sub\n        /* \"#utility.yul\":13988:13989   */\n      0x00\n        /* \"#utility.yul\":13977:13986   */\n      dup4\n        /* \"#utility.yul\":13973:13990   */\n      add\n        /* \"#utility.yul\":13966:14013   */\n      mstore\n        /* \"#utility.yul\":14030:14161   */\n      tag_288\n        /* \"#utility.yul\":14156:14160   */\n      dup2\n        /* \"#utility.yul\":14030:14161   */\n      tag_232\n      jump\t// in\n    tag_288:\n        /* \"#utility.yul\":14022:14161   */\n      swap1\n      pop\n        /* \"#utility.yul\":13749:14168   */\n      swap2\n      swap1\n      pop\n      jump\t// out\n        /* \"#utility.yul\":14174:14396   */\n    tag_20:\n        /* \"#utility.yul\":14267:14271   */\n      0x00\n        /* \"#utility.yul\":14305:14307   */\n      0x20\n        /* \"#utility.yul\":14294:14303   */\n      dup3\n        /* \"#utility.yul\":14290:14308   */\n      add\n        /* \"#utility.yul\":14282:14308   */\n      swap1\n      pop\n        /* \"#utility.yul\":14318:14389   */\n      tag_290\n        /* \"#utility.yul\":14386:14387   */\n      0x00\n        /* \"#utility.yul\":14375:14384   */\n      dup4\n        /* \"#utility.yul\":14371:14388   */\n      add\n        /* \"#utility.yul\":14362:14368   */\n      dup5\n        /* \"#utility.yul\":14318:14389   */\n      tag_237\n      jump\t// in\n    tag_290:\n        /* \"#utility.yul\":14174:14396   */\n      swap3\n      swap2\n      pop\n      pop\n      jump\t// out\n        /* \"#utility.yul\":14402:14531   */\n    tag_107:\n        /* \"#utility.yul\":14436:14442   */\n      0x00\n        /* \"#utility.yul\":14463:14483   */\n      tag_292\n      tag_293\n      jump\t// in\n    tag_292:\n        /* \"#utility.yul\":14453:14483   */\n      swap1\n      pop\n        /* \"#utility.yul\":14492:14525   */\n      tag_294\n        /* \"#utility.yul\":14520:14524   */\n      dup3\n        /* \"#utility.yul\":14512:14518   */\n      dup3\n        /* \"#utility.yul\":14492:14525   */\n      tag_295\n      jump\t// in\n    tag_294:\n        /* \"#utility.yul\":14402:14531   */\n      swap2\n      swap1\n      pop\n      jump\t// out\n        /* \"#utility.yul\":14537:14612   */\n    tag_293:\n        /* \"#utility.yul\":14570:14576   */\n      0x00\n        /* \"#utility.yul\":14603:14605   */\n      0x40\n        /* \"#utility.yul\":14597:14606   */\n      mload\n        /* \"#utility.yul\":14587:14606   */\n      swap1\n      pop\n        /* \"#utility.yul\":14537:14612   */\n      swap1\n      jump\t// out\n        /* \"#utility.yul\":14618:14925   */\n    tag_106:\n        /* \"#utility.yul\":14679:14683   */\n      0x00\n        /* \"#utility.yul\":14769:14787   */\n      0xffffffffffffffff\n        /* \"#utility.yul\":14761:14767   */\n      dup3\n        /* \"#utility.yul\":14758:14788   */\n      gt\n        /* \"#utility.yul\":14755:14811   */\n      iszero\n      tag_298\n      jumpi\n        /* \"#utility.yul\":14791:14809   */\n      tag_299\n      tag_300\n      jump\t// in\n    tag_299:\n        /* \"#utility.yul\":14755:14811   */\n    tag_298:\n        /* \"#utility.yul\":14829:14858   */\n      tag_301\n        /* \"#utility.yul\":14851:14857   */\n      dup3\n        /* \"#utility.yul\":14829:14858   */\n      tag_198\n      jump\t// in\n    tag_301:\n        /* \"#utility.yul\":14821:14858   */\n      swap1\n      pop\n        /* \"#utility.yul\":14913:14917   */\n      0x20\n        /* \"#utility.yul\":14907:14911   */\n      dup2\n        /* \"#utility.yul\":14903:14918   */\n      add\n        /* \"#utility.yul\":14895:14918   */\n      swap1\n      pop\n        /* \"#utility.yul\":14618:14925   */\n      swap2\n      swap1\n      pop\n      jump\t// out\n        /* \"#utility.yul\":14931:15029   */\n    tag_192:\n        /* \"#utility.yul\":14982:14988   */\n      0x00\n        /* \"#utility.yul\":15016:15021   */\n      dup2\n        /* \"#utility.yul\":15010:15022   */\n      mload\n        /* \"#utility.yul\":15000:15022   */\n      swap1\n      pop\n        /* \"#utility.yul\":14931:15029   */\n      swap2\n      swap1\n      pop\n      jump\t// out\n        /* \"#utility.yul\":15035:15203   */\n    tag_194:\n        /* \"#utility.yul\":15118:15129   */\n      0x00\n        /* \"#utility.yul\":15152:15158   */\n      dup3\n        /* \"#utility.yul\":15147:15150   */\n      dup3\n        /* \"#utility.yul\":15140:15159   */\n      mstore\n        /* \"#utility.yul\":15192:15196   */\n      0x20\n        /* \"#utility.yul\":15187:15190   */\n      dup3\n        /* \"#utility.yul\":15183:15197   */\n      add\n        /* \"#utility.yul\":15168:15197   */\n      swap1\n      pop\n        /* \"#utility.yul\":15035:15203   */\n      swap3\n      swap2\n      pop\n      pop\n      jump\t// out\n        /* \"#utility.yul\":15209:15356   */\n    tag_203:\n        /* \"#utility.yul\":15310:15321   */\n      0x00\n        /* \"#utility.yul\":15347:15350   */\n      dup2\n        /* \"#utility.yul\":15332:15350   */\n      swap1\n      pop\n        /* \"#utility.yul\":15209:15356   */\n      swap3\n      swap2\n      pop\n      pop\n      jump\t// out\n        /* \"#utility.yul\":15362:15531   */\n    tag_219:\n        /* \"#utility.yul\":15446:15457   */\n      0x00\n        /* \"#utility.yul\":15480:15486   */\n      dup3\n        /* \"#utility.yul\":15475:15478   */\n      dup3\n        /* \"#utility.yul\":15468:15487   */\n      mstore\n        /* \"#utility.yul\":15520:15524   */\n      0x20\n        /* \"#utility.yul\":15515:15518   */\n      dup3\n        /* \"#utility.yul\":15511:15525   */\n      add\n        /* \"#utility.yul\":15496:15525   */\n      swap1\n      pop\n        /* \"#utility.yul\":15362:15531   */\n      swap3\n      swap2\n      pop\n      pop\n      jump\t// out\n        /* \"#utility.yul\":15537:15685   */\n    tag_213:\n        /* \"#utility.yul\":15639:15650   */\n      0x00\n        /* \"#utility.yul\":15676:15679   */\n      dup2\n        /* \"#utility.yul\":15661:15679   */\n      swap1\n      pop\n        /* \"#utility.yul\":15537:15685   */\n      swap3\n      swap2\n      pop\n      pop\n      jump\t// out\n        /* \"#utility.yul\":15691:15996   */\n    tag_93:\n        /* \"#utility.yul\":15731:15734   */\n      0x00\n        /* \"#utility.yul\":15750:15770   */\n      tag_308\n        /* \"#utility.yul\":15768:15769   */\n      dup3\n        /* \"#utility.yul\":15750:15770   */\n      tag_240\n      jump\t// in\n    tag_308:\n        /* \"#utility.yul\":15745:15770   */\n      swap2\n      pop\n        /* \"#utility.yul\":15784:15804   */\n      tag_309\n        /* \"#utility.yul\":15802:15803   */\n      dup4\n        /* \"#utility.yul\":15784:15804   */\n      tag_240\n      jump\t// in\n    tag_309:\n        /* \"#utility.yul\":15779:15804   */\n      swap3\n      pop\n        /* \"#utility.yul\":15938:15939   */\n      dup3\n        /* \"#utility.yul\":15870:15936   */\n      0xffffffffffffffffffffffffffffffffffffffffffffffffffffffffffffffff\n        /* \"#utility.yul\":15866:15940   */\n      sub\n        /* \"#utility.yul\":15863:15864   */\n      dup3\n        /* \"#utility.yul\":15860:15941   */\n      gt\n        /* \"#utility.yul\":15857:15964   */\n      iszero\n      tag_310\n      jumpi\n        /* \"#utility.yul\":15944:15962   */\n      tag_311\n      tag_312\n      jump\t// in\n    tag_311:\n        /* \"#utility.yul\":15857:15964   */\n    tag_310:\n        /* \"#utility.yul\":15988:15989   */\n      dup3\n        /* \"#utility.yul\":15985:15986   */\n      dup3\n        /* \"#utility.yul\":15981:15990   */\n      add\n        /* \"#utility.yul\":15974:15990   */\n      swap1\n      pop\n        /* \"#utility.yul\":15691:15996   */\n      swap3\n      swap2\n      pop\n      pop\n      jump\t// out\n        /* \"#utility.yul\":16002:16098   */\n    tag_170:\n        /* \"#utility.yul\":16039:16046   */\n      0x00\n        /* \"#utility.yul\":16068:16092   */\n      tag_314\n        /* \"#utility.yul\":16086:16091   */\n      dup3\n        /* \"#utility.yul\":16068:16092   */\n      tag_315\n      jump\t// in\n    tag_314:\n        /* \"#utility.yul\":16057:16092   */\n      swap1\n      pop\n        /* \"#utility.yul\":16002:16098   */\n      swap2\n      swap1\n      pop\n      jump\t// out\n        /* \"#utility.yul\":16104:16208   */\n    tag_166:\n        /* \"#utility.yul\":16149:16156   */\n      0x00\n        /* \"#utility.yul\":16178:16202   */\n      tag_317\n        /* \"#utility.yul\":16196:16201   */\n      dup3\n        /* \"#utility.yul\":16178:16202   */\n      tag_315\n      jump\t// in\n    tag_317:\n        /* \"#utility.yul\":16167:16202   */\n      swap1\n      pop\n        /* \"#utility.yul\":16104:16208   */\n      swap2\n      swap1\n      pop\n      jump\t// out\n        /* \"#utility.yul\":16214:16304   */\n    tag_179:\n        /* \"#utility.yul\":16248:16255   */\n      0x00\n        /* \"#utility.yul\":16291:16296   */\n      dup2\n        /* \"#utility.yul\":16284:16297   */\n      iszero\n        /* \"#utility.yul\":16277:16298   */\n      iszero\n        /* \"#utility.yul\":16266:16298   */\n      swap1\n      pop\n        /* \"#utility.yul\":16214:16304   */\n      swap2\n      swap1\n      pop\n      jump\t// out\n        /* \"#utility.yul\":16310:16387   */\n    tag_183:\n        /* \"#utility.yul\":16347:16354   */\n      0x00\n        /* \"#utility.yul\":16376:16381   */\n      dup2\n        /* \"#utility.yul\":16365:16381   */\n      swap1\n      pop\n        /* \"#utility.yul\":16310:16387   */\n      swap2\n      swap1\n      pop\n      jump\t// out\n        /* \"#utility.yul\":16393:16519   */\n    tag_315:\n        /* \"#utility.yul\":16430:16437   */\n      0x00\n        /* \"#utility.yul\":16470:16512   */\n      0xffffffffffffffffffffffffffffffffffffffff\n        /* \"#utility.yul\":16463:16468   */\n      dup3\n        /* \"#utility.yul\":16459:16513   */\n      and\n        /* \"#utility.yul\":16448:16513   */\n      swap1\n      pop\n        /* \"#utility.yul\":16393:16519   */\n      swap2\n      swap1\n      pop\n      jump\t// out\n        /* \"#utility.yul\":16525:16602   */\n    tag_240:\n        /* \"#utility.yul\":16562:16569   */\n      0x00\n        /* \"#utility.yul\":16591:16596   */\n      dup2\n        /* \"#utility.yul\":16580:16596   */\n      swap1\n      pop\n        /* \"#utility.yul\":16525:16602   */\n      swap2\n      swap1\n      pop\n      jump\t// out\n        /* \"#utility.yul\":16608:16694   */\n    tag_249:\n        /* \"#utility.yul\":16643:16650   */\n      0x00\n        /* \"#utility.yul\":16683:16687   */\n      0xff\n        /* \"#utility.yul\":16676:16681   */\n      dup3\n        /* \"#utility.yul\":16672:16688   */\n      and\n        /* \"#utility.yul\":16661:16688   */\n      swap1\n      pop\n        /* \"#utility.yul\":16608:16694   */\n      swap2\n      swap1\n      pop\n      jump\t// out\n        /* \"#utility.yul\":16700:16854   */\n    tag_209:\n        /* \"#utility.yul\":16778:16787   */\n      0x00\n        /* \"#utility.yul\":16811:16848   */\n      tag_324\n        /* \"#utility.yul\":16842:16847   */\n      dup3\n        /* \"#utility.yul\":16811:16848   */\n      tag_325\n      jump\t// in\n    tag_324:\n        /* \"#utility.yul\":16798:16848   */\n      swap1\n      pop\n        /* \"#utility.yul\":16700:16854   */\n      swap2\n      swap1\n      pop\n      jump\t// out\n        /* \"#utility.yul\":16860:16986   */\n    tag_325:\n        /* \"#utility.yul\":16910:16919   */\n      0x00\n        /* \"#utility.yul\":16943:16980   */\n      tag_327\n        /* \"#utility.yul\":16974:16979   */\n      dup3\n        /* \"#utility.yul\":16943:16980   */\n      tag_328\n      jump\t// in\n    tag_327:\n        /* \"#utility.yul\":16930:16980   */\n      swap1\n      pop\n        /* \"#utility.yul\":16860:16986   */\n      swap2\n      swap1\n      pop\n      jump\t// out\n        /* \"#utility.yul\":16992:17105   */\n    tag_328:\n        /* \"#utility.yul\":17042:17051   */\n      0x00\n        /* \"#utility.yul\":17075:17099   */\n      tag_330\n        /* \"#utility.yul\":17093:17098   */\n      dup3\n        /* \"#utility.yul\":17075:17099   */\n      tag_315\n      jump\t// in\n    tag_330:\n        /* \"#utility.yul\":17062:17099   */\n      swap1\n      pop\n        /* \"#utility.yul\":16992:17105   */\n      swap2\n      swap1\n      pop\n      jump\t// out\n        /* \"#utility.yul\":17111:17265   */\n    tag_112:\n        /* \"#utility.yul\":17195:17201   */\n      dup3\n        /* \"#utility.yul\":17190:17193   */\n      dup2\n        /* \"#utility.yul\":17185:17188   */\n      dup4\n        /* \"#utility.yul\":17172:17202   */\n      calldatacopy\n        /* \"#utility.yul\":17257:17258   */\n      0x00\n        /* \"#utility.yul\":17248:17254   */\n      dup4\n        /* \"#utility.yul\":17243:17246   */\n      dup4\n        /* \"#utility.yul\":17239:17255   */\n      add\n        /* \"#utility.yul\":17232:17259   */\n      mstore\n        /* \"#utility.yul\":17111:17265   */\n      pop\n      pop\n      pop\n      jump\t// out\n        /* \"#utility.yul\":17271:17578   */\n    tag_196:\n        /* \"#utility.yul\":17339:17340   */\n      0x00\n        /* \"#utility.yul\":17349:17462   */\n    tag_333:\n        /* \"#utility.yul\":17363:17369   */\n      dup4\n        /* \"#utility.yul\":17360:17361   */\n      dup2\n        /* \"#utility.yul\":17357:17370   */\n      lt\n        /* \"#utility.yul\":17349:17462   */\n      iszero\n      tag_335\n      jumpi\n        /* \"#utility.yul\":17448:17449   */\n      dup1\n        /* \"#utility.yul\":17443:17446   */\n      dup3\n        /* \"#utility.yul\":17439:17450   */\n      add\n        /* \"#utility.yul\":17433:17451   */\n      mload\n        /* \"#utility.yul\":17429:17430   */\n      dup2\n        /* \"#utility.yul\":17424:17427   */\n      dup5\n        /* \"#utility.yul\":17420:17431   */\n      add\n        /* \"#utility.yul\":17413:17452   */\n      mstore\n        /* \"#utility.yul\":17385:17387   */\n      0x20\n        /* \"#utility.yul\":17382:17383   */\n      dup2\n        /* \"#utility.yul\":17378:17388   */\n      add\n        /* \"#utility.yul\":17373:17388   */\n      swap1\n      pop\n        /* \"#utility.yul\":17349:17462   */\n      jump(tag_333)\n    tag_335:\n        /* \"#utility.yul\":17480:17486   */\n      dup4\n        /* \"#utility.yul\":17477:17478   */\n      dup2\n        /* \"#utility.yul\":17474:17487   */\n      gt\n        /* \"#utility.yul\":17471:17572   */\n      iszero\n      tag_336\n      jumpi\n        /* \"#utility.yul\":17560:17561   */\n      0x00\n        /* \"#utility.yul\":17551:17557   */\n      dup5\n        /* \"#utility.yul\":17546:17549   */\n      dup5\n        /* \"#utility.yul\":17542:17558   */\n      add\n        /* \"#utility.yul\":17535:17562   */\n      mstore\n        /* \"#utility.yul\":17471:17572   */\n    tag_336:\n        /* \"#utility.yul\":17320:17578   */\n      pop\n        /* \"#utility.yul\":17271:17578   */\n      pop\n      pop\n      pop\n      jump\t// out\n        /* \"#utility.yul\":17584:17865   */\n    tag_295:\n        /* \"#utility.yul\":17667:17694   */\n      tag_338\n        /* \"#utility.yul\":17689:17693   */\n      dup3\n        /* \"#utility.yul\":17667:17694   */\n      tag_198\n      jump\t// in\n    tag_338:\n        /* \"#utility.yul\":17659:17665   */\n      dup2\n        /* \"#utility.yul\":17655:17695   */\n      add\n        /* \"#utility.yul\":17797:17803   */\n      dup2\n        /* \"#utility.yul\":17785:17795   */\n      dup2\n        /* \"#utility.yul\":17782:17804   */\n      lt\n        /* \"#utility.yul\":17761:17779   */\n      0xffffffffffffffff\n        /* \"#utility.yul\":17749:17759   */\n      dup3\n        /* \"#utility.yul\":17746:17780   */\n      gt\n        /* \"#utility.yul\":17743:17805   */\n      or\n        /* \"#utility.yul\":17740:17828   */\n      iszero\n      tag_339\n      jumpi\n        /* \"#utility.yul\":17808:17826   */\n      tag_340\n      tag_300\n      jump\t// in\n    tag_340:\n        /* \"#utility.yul\":17740:17828   */\n    tag_339:\n        /* \"#utility.yul\":17848:17858   */\n      dup1\n        /* \"#utility.yul\":17844:17846   */\n      0x40\n        /* \"#utility.yul\":17837:17859   */\n      mstore\n        /* \"#utility.yul\":17627:17865   */\n      pop\n        /* \"#utility.yul\":17584:17865   */\n      pop\n      pop\n      jump\t// out\n        /* \"#utility.yul\":17871:17971   */\n    tag_175:\n        /* \"#utility.yul\":17910:17917   */\n      0x00\n        /* \"#utility.yul\":17939:17965   */\n      tag_342\n        /* \"#utility.yul\":17959:17964   */\n      dup3\n        /* \"#utility.yul\":17939:17965   */\n      tag_343\n      jump\t// in\n    tag_342:\n        /* \"#utility.yul\":17928:17965   */\n      swap1\n      pop\n        /* \"#utility.yul\":17871:17971   */\n      swap2\n      swap1\n      pop\n      jump\t// out\n        /* \"#utility.yul\":17977:18056   */\n    tag_188:\n        /* \"#utility.yul\":18016:18023   */\n      0x00\n        /* \"#utility.yul\":18045:18050   */\n      dup2\n        /* \"#utility.yul\":18034:18050   */\n      swap1\n      pop\n        /* \"#utility.yul\":17977:18056   */\n      swap2\n      swap1\n      pop\n      jump\t// out\n        /* \"#utility.yul\":18062:18156   */\n    tag_343:\n        /* \"#utility.yul\":18101:18108   */\n      0x00\n        /* \"#utility.yul\":18130:18150   */\n      tag_346\n        /* \"#utility.yul\":18144:18149   */\n      dup3\n        /* \"#utility.yul\":18130:18150   */\n      tag_347\n      jump\t// in\n    tag_346:\n        /* \"#utility.yul\":18119:18150   */\n      swap1\n      pop\n        /* \"#utility.yul\":18062:18156   */\n      swap2\n      swap1\n      pop\n      jump\t// out\n        /* \"#utility.yul\":18162:18241   */\n    tag_245:\n        /* \"#utility.yul\":18201:18208   */\n      0x00\n        /* \"#utility.yul\":18230:18235   */\n      dup2\n        /* \"#utility.yul\":18219:18235   */\n      swap1\n      pop\n        /* \"#utility.yul\":18162:18241   */\n      swap2\n      swap1\n      pop\n      jump\t// out\n        /* \"#utility.yul\":18247:18427   */\n    tag_312:\n        /* \"#utility.yul\":18295:18372   */\n      0x4e487b7100000000000000000000000000000000000000000000000000000000\n        /* \"#utility.yul\":18292:18293   */\n      0x00\n        /* \"#utility.yul\":18285:18373   */\n      mstore\n        /* \"#utility.yul\":18392:18396   */\n      0x11\n        /* \"#utility.yul\":18389:18390   */\n      0x04\n        /* \"#utility.yul\":18382:18397   */\n      mstore\n        /* \"#utility.yul\":18416:18420   */\n      0x24\n        /* \"#utility.yul\":18413:18414   */\n      0x00\n        /* \"#utility.yul\":18406:18421   */\n      revert\n        /* \"#utility.yul\":18433:18613   */\n    tag_300:\n        /* \"#utility.yul\":18481:18558   */\n      0x4e487b7100000000000000000000000000000000000000000000000000000000\n        /* \"#utility.yul\":18478:18479   */\n      0x00\n        /* \"#utility.yul\":18471:18559   */\n      mstore\n        /* \"#utility.yul\":18578:18582   */\n      0x41\n        /* \"#utility.yul\":18575:18576   */\n      0x04\n        /* \"#utility.yul\":18568:18583   */\n      mstore\n        /* \"#utility.yul\":18602:18606   */\n      0x24\n        /* \"#utility.yul\":18599:18600   */\n      0x00\n        /* \"#utility.yul\":18592:18607   */\n      revert\n        /* \"#utility.yul\":18619:18736   */\n    tag_125:\n        /* \"#utility.yul\":18728:18729   */\n      0x00\n        /* \"#utility.yul\":18725:18726   */\n      dup1\n        /* \"#utility.yul\":18718:18730   */\n      revert\n        /* \"#utility.yul\":18742:18859   */\n    tag_110:\n        /* \"#utility.yul\":18851:18852   */\n      0x00\n        /* \"#utility.yul\":18848:18849   */\n      dup1\n        /* \"#utility.yul\":18841:18853   */\n      revert\n        /* \"#utility.yul\":18865:18982   */\n    tag_146:\n        /* \"#utility.yul\":18974:18975   */\n      0x00\n        /* \"#utility.yul\":18971:18972   */\n      dup1\n        /* \"#utility.yul\":18964:18976   */\n      revert\n        /* \"#utility.yul\":18988:19105   */\n    tag_138:\n        /* \"#utility.yul\":19097:19098   */\n      0x00\n        /* \"#utility.yul\":19094:19095   */\n      dup1\n        /* \"#utility.yul\":19087:19099   */\n      revert\n        /* \"#utility.yul\":19111:19213   */\n    tag_198:\n        /* \"#utility.yul\":19152:19158   */\n      0x00\n        /* \"#utility.yul\":19203:19205   */\n      0x1f\n        /* \"#utility.yul\":19199:19206   */\n      not\n        /* \"#utility.yul\":19194:19196   */\n      0x1f\n        /* \"#utility.yul\":19187:19192   */\n      dup4\n        /* \"#utility.yul\":19183:19197   */\n      add\n        /* \"#utility.yul\":19179:19207   */\n      and\n        /* \"#utility.yul\":19169:19207   */\n      swap1\n      pop\n        /* \"#utility.yul\":19111:19213   */\n      swap2\n      swap1\n      pop\n      jump\t// out\n        /* \"#utility.yul\":19219:19313   */\n    tag_347:\n        /* \"#utility.yul\":19252:19260   */\n      0x00\n        /* \"#utility.yul\":19300:19305   */\n      dup2\n        /* \"#utility.yul\":19296:19298   */\n      0x60\n        /* \"#utility.yul\":19292:19306   */\n      shl\n        /* \"#utility.yul\":19271:19306   */\n      swap1\n      pop\n        /* \"#utility.yul\":19219:19313   */\n      swap2\n      swap1\n      pop\n      jump\t// out\n        /* \"#utility.yul\":19319:19533   */\n    tag_215:\n        /* \"#utility.yul\":19459:19525   */\n      0x19457468657265756d205369676e6564204d6573736167653a0a333200000000\n        /* \"#utility.yul\":19455:19456   */\n      0x00\n        /* \"#utility.yul\":19447:19453   */\n      dup3\n        /* \"#utility.yul\":19443:19457   */\n      add\n        /* \"#utility.yul\":19436:19526   */\n      mstore\n        /* \"#utility.yul\":19319:19533   */\n      pop\n      jump\t// out\n        /* \"#utility.yul\":19539:19717   */\n    tag_221:\n        /* \"#utility.yul\":19679:19709   */\n      0x46756e6374696f6e2063616c6c206e6f74207375636365737366756c00000000\n        /* \"#utility.yul\":19675:19676   */\n      0x00\n        /* \"#utility.yul\":19667:19673   */\n      dup3\n        /* \"#utility.yul\":19663:19677   */\n      add\n        /* \"#utility.yul\":19656:19710   */\n      mstore\n        /* \"#utility.yul\":19539:19717   */\n      pop\n      jump\t// out\n        /* \"#utility.yul\":19723:19890   */\n    tag_226:\n        /* \"#utility.yul\":19863:19882   */\n      0x496e76616c6964207369676e6174757265000000000000000000000000000000\n        /* \"#utility.yul\":19859:19860   */\n      0x00\n        /* \"#utility.yul\":19851:19857   */\n      dup3\n        /* \"#utility.yul\":19847:19861   */\n      add\n        /* \"#utility.yul\":19840:19883   */\n      mstore\n        /* \"#utility.yul\":19723:19890   */\n      pop\n      jump\t// out\n        /* \"#utility.yul\":19896:20116   */\n    tag_231:\n        /* \"#utility.yul\":20036:20070   */\n      0x5369676e657220616e64207369676e617475726520646f206e6f74206d617463\n        /* \"#utility.yul\":20032:20033   */\n      0x00\n        /* \"#utility.yul\":20024:20030   */\n      dup3\n        /* \"#utility.yul\":20020:20034   */\n      add\n        /* \"#utility.yul\":20013:20071   */\n      mstore\n        /* \"#utility.yul\":20105:20108   */\n      0x6800000000000000000000000000000000000000000000000000000000000000\n        /* \"#utility.yul\":20100:20102   */\n      0x20\n        /* \"#utility.yul\":20092:20098   */\n      dup3\n        /* \"#utility.yul\":20088:20103   */\n      add\n        /* \"#utility.yul\":20081:20109   */\n      mstore\n        /* \"#utility.yul\":19896:20116   */\n      pop\n      jump\t// out\n        /* \"#utility.yul\":20122:20296   */\n    tag_236:\n        /* \"#utility.yul\":20262:20288   */\n      0x437573746f6d4f776e61626c653a20464f5242494444454e0000000000000000\n        /* \"#utility.yul\":20258:20259   */\n      0x00\n        /* \"#utility.yul\":20250:20256   */\n      dup3\n        /* \"#utility.yul\":20246:20260   */\n      add\n        /* \"#utility.yul\":20239:20289   */\n      mstore\n        /* \"#utility.yul\":20122:20296   */\n      pop\n      jump\t// out\n        /* \"#utility.yul\":20302:20424   */\n    tag_116:\n        /* \"#utility.yul\":20375:20399   */\n      tag_363\n        /* \"#utility.yul\":20393:20398   */\n      dup2\n        /* \"#utility.yul\":20375:20399   */\n      tag_170\n      jump\t// in\n    tag_363:\n        /* \"#utility.yul\":20368:20373   */\n      dup2\n        /* \"#utility.yul\":20365:20400   */\n      eq\n        /* \"#utility.yul\":20355:20418   */\n      tag_364\n      jumpi\n        /* \"#utility.yul\":20414:20415   */\n      0x00\n        /* \"#utility.yul\":20411:20412   */\n      dup1\n        /* \"#utility.yul\":20404:20416   */\n      revert\n        /* \"#utility.yul\":20355:20418   */\n    tag_364:\n        /* \"#utility.yul\":20302:20424   */\n      pop\n      jump\t// out\n        /* \"#utility.yul\":20430:20552   */\n    tag_120:\n        /* \"#utility.yul\":20503:20527   */\n      tag_366\n        /* \"#utility.yul\":20521:20526   */\n      dup2\n        /* \"#utility.yul\":20503:20527   */\n      tag_183\n      jump\t// in\n    tag_366:\n        /* \"#utility.yul\":20496:20501   */\n      dup2\n        /* \"#utility.yul\":20493:20528   */\n      eq\n        /* \"#utility.yul\":20483:20546   */\n      tag_367\n      jumpi\n        /* \"#utility.yul\":20542:20543   */\n      0x00\n        /* \"#utility.yul\":20539:20540   */\n      dup1\n        /* \"#utility.yul\":20532:20544   */\n      revert\n        /* \"#utility.yul\":20483:20546   */\n    tag_367:\n        /* \"#utility.yul\":20430:20552   */\n      pop\n      jump\t// out\n        /* \"#utility.yul\":20558:20680   */\n    tag_130:\n        /* \"#utility.yul\":20631:20655   */\n      tag_369\n        /* \"#utility.yul\":20649:20654   */\n      dup2\n        /* \"#utility.yul\":20631:20655   */\n      tag_240\n      jump\t// in\n    tag_369:\n        /* \"#utility.yul\":20624:20629   */\n      dup2\n        /* \"#utility.yul\":20621:20656   */\n      eq\n        /* \"#utility.yul\":20611:20674   */\n      tag_370\n      jumpi\n        /* \"#utility.yul\":20670:20671   */\n      0x00\n        /* \"#utility.yul\":20667:20668   */\n      dup1\n        /* \"#utility.yul\":20660:20672   */\n      revert\n        /* \"#utility.yul\":20611:20674   */\n    tag_370:\n        /* \"#utility.yul\":20558:20680   */\n      pop\n      jump\t// out\n        /* \"#utility.yul\":20686:20804   */\n    tag_134:\n        /* \"#utility.yul\":20757:20779   */\n      tag_372\n        /* \"#utility.yul\":20773:20778   */\n      dup2\n        /* \"#utility.yul\":20757:20779   */\n      tag_249\n      jump\t// in\n    tag_372:\n        /* \"#utility.yul\":20750:20755   */\n      dup2\n        /* \"#utility.yul\":20747:20780   */\n      eq\n        /* \"#utility.yul\":20737:20798   */\n      tag_373\n      jumpi\n        /* \"#utility.yul\":20794:20795   */\n      0x00\n        /* \"#utility.yul\":20791:20792   */\n      dup1\n        /* \"#utility.yul\":20784:20796   */\n      revert\n        /* \"#utility.yul\":20737:20798   */\n    tag_373:\n        /* \"#utility.yul\":20686:20804   */\n      pop\n      jump\t// out\n\n    auxdata: 0xa26469706673582212205c1b5883ea227d36b5509a048228df271d6eee4532d87b74eef209d9e811f8b464736f6c63430008070033\n}\n",
				"bytecode": {
					"linkReferences": {},
					"object": "608060405234801561001057600080fd5b5061002d61002261003260201b60201c565b6100e860201b60201c565b61012c565b60003073ffffffffffffffffffffffffffffffffffffffff163373ffffffffffffffffffffffffffffffffffffffff1614156100dc57600080368080601f016020809104026020016040519081016040528093929190818152602001838380828437600081840152601f19601f820116905080830192505050505050509050600080369050905073ffffffffffffffffffffffffffffffffffffffff8183015116925050506100e4565b3390506100e5565b5b90565b80600160006101000a81548173ffffffffffffffffffffffffffffffffffffffff021916908373ffffffffffffffffffffffffffffffffffffffff16021790555050565b6112b08061013b6000396000f3fe6080604052600436106100555760003560e01c80630c53c51c1461005a5780632d0335ab1461008a578063564b81ef146100c75780636281133d146100f25780638da5cb5b1461012f578063f2fde38b1461015a575b600080fd5b610074600480360381019061006f91906108e8565b610183565b6040516100819190610d9d565b60405180910390f35b34801561009657600080fd5b506100b160048036038101906100ac91906108bb565b6103c5565b6040516100be9190610e3f565b60405180910390f35b3480156100d357600080fd5b506100dc61040d565b6040516100e99190610e3f565b60405180910390f35b3480156100fe57600080fd5b506101196004803603810190610114919061097f565b61041a565b6040516101269190610d3d565b60405180910390f35b34801561013b57600080fd5b50610144610555565b6040516101519190610cbb565b60405180910390f35b34801561016657600080fd5b50610181600480360381019061017c91906108bb565b61057f565b005b60606101d9866000808973ffffffffffffffffffffffffffffffffffffffff1673ffffffffffffffffffffffffffffffffffffffff168152602001908152602001600020546101d061040d565b8888888861041a565b610218576040517f08c379a000000000000000000000000000000000000000000000000000000000815260040161020f90610dff565b60405180910390fd5b61026a60016000808973ffffffffffffffffffffffffffffffffffffffff1673ffffffffffffffffffffffffffffffffffffffff168152602001908152602001600020546106b790919063ffffffff16565b6000808873ffffffffffffffffffffffffffffffffffffffff1673ffffffffffffffffffffffffffffffffffffffff168152602001908152602001600020819055506000803073ffffffffffffffffffffffffffffffffffffffff1687896040516020016102d9929190610c23565b6040516020818303038152906040526040516102f59190610c0c565b6000604051808303816000865af19150503d8060008114610332576040519150601f19603f3d011682016040523d82523d6000602084013e610337565b606091505b50915091508161037c576040517f08c379a000000000000000000000000000000000000000000000000000000000815260040161037390610dbf565b60405180910390fd5b7f5845892132946850460bff5a0083f71031bc5bf9aadcd40f1de79423eac9b10b8833896040516103af93929190610cff565b60405180910390a1809250505095945050505050565b60008060008373ffffffffffffffffffffffffffffffffffffffff1673ffffffffffffffffffffffffffffffffffffffff168152602001908152602001600020549050919050565b6000804690508091505090565b600080610452883089896040516020016104379493929190610c71565b604051602081830303815290604052805190602001206106cd565b90506000600182858888604051600081526020016040526040516104799493929190610d58565b6020604051602081039080840390855afa15801561049b573d6000803e3d6000fd5b505050602060405103519050600073ffffffffffffffffffffffffffffffffffffffff168173ffffffffffffffffffffffffffffffffffffffff161415610517576040517f08c379a000000000000000000000000000000000000000000000000000000000815260040161050e90610ddf565b60405180910390fd5b8073ffffffffffffffffffffffffffffffffffffffff168a73ffffffffffffffffffffffffffffffffffffffff161492505050979650505050505050565b6000600160009054906101000a900473ffffffffffffffffffffffffffffffffffffffff16905090565b610587610555565b73ffffffffffffffffffffffffffffffffffffffff166105a56106fd565b73ffffffffffffffffffffffffffffffffffffffff16146105fb576040517f08c379a00000000000000000000000000000000000000000000000000000000081526004016105f290610e1f565b60405180910390fd5b600073ffffffffffffffffffffffffffffffffffffffff168173ffffffffffffffffffffffffffffffffffffffff16141561066b576040517f08c379a000000000000000000000000000000000000000000000000000000000815260040161066290610e1f565b60405180910390fd5b7f8be0079c531659141344cd1fd0a4f28419497f9722a3daafe3b4186f6b6457e0610694610555565b826040516106a3929190610cd6565b60405180910390a16106b4816107b3565b50565b600081836106c59190610ef3565b905092915050565b6000816040516020016106e09190610c4b565b604051602081830303815290604052805190602001209050919050565b60003073ffffffffffffffffffffffffffffffffffffffff163373ffffffffffffffffffffffffffffffffffffffff1614156107a757600080368080601f016020809104026020016040519081016040528093929190818152602001838380828437600081840152601f19601f820116905080830192505050505050509050600080369050905073ffffffffffffffffffffffffffffffffffffffff8183015116925050506107af565b3390506107b0565b5b90565b80600160006101000a81548173ffffffffffffffffffffffffffffffffffffffff021916908373ffffffffffffffffffffffffffffffffffffffff16021790555050565b600061080a61080584610e7f565b610e5a565b905082815260208101848484011115610826576108256110fe565b5b610831848285610ff0565b509392505050565b6000813590506108488161121e565b92915050565b60008135905061085d81611235565b92915050565b600082601f830112610878576108776110f9565b5b81356108888482602086016107f7565b91505092915050565b6000813590506108a08161124c565b92915050565b6000813590506108b581611263565b92915050565b6000602082840312156108d1576108d0611108565b5b60006108df84828501610839565b91505092915050565b600080600080600060a0868803121561090457610903611108565b5b600061091288828901610839565b955050602086013567ffffffffffffffff81111561093357610932611103565b5b61093f88828901610863565b94505060406109508882890161084e565b93505060606109618882890161084e565b9250506080610972888289016108a6565b9150509295509295909350565b600080600080600080600060e0888a03121561099e5761099d611108565b5b60006109ac8a828b01610839565b97505060206109bd8a828b01610891565b96505060406109ce8a828b01610891565b955050606088013567ffffffffffffffff8111156109ef576109ee611103565b5b6109fb8a828b01610863565b9450506080610a0c8a828b0161084e565b93505060a0610a1d8a828b0161084e565b92505060c0610a2e8a828b016108a6565b91505092959891949750929550565b610a4681610f5b565b82525050565b610a5581610f49565b82525050565b610a6c610a6782610f49565b611063565b82525050565b610a7b81610f6d565b82525050565b610a8a81610f79565b82525050565b610aa1610a9c82610f79565b611075565b82525050565b6000610ab282610eb0565b610abc8185610ebb565b9350610acc818560208601610fff565b610ad58161110d565b840191505092915050565b6000610aeb82610eb0565b610af58185610ecc565b9350610b05818560208601610fff565b80840191505092915050565b610b22610b1d82610fba565b611063565b82525050565b6000610b35601c83610ee8565b9150610b408261112b565b601c82019050919050565b6000610b58601c83610ed7565b9150610b6382611154565b602082019050919050565b6000610b7b601183610ed7565b9150610b868261117d565b602082019050919050565b6000610b9e602183610ed7565b9150610ba9826111a6565b604082019050919050565b6000610bc1601883610ed7565b9150610bcc826111f5565b602082019050919050565b610be081610fa3565b82525050565b610bf7610bf282610fa3565b611091565b82525050565b610c0681610fad565b82525050565b6000610c188284610ae0565b915081905092915050565b6000610c2f8285610ae0565b9150610c3b8284610a5b565b6014820191508190509392505050565b6000610c5682610b28565b9150610c628284610a90565b60208201915081905092915050565b6000610c7d8287610be6565b602082019150610c8d8286610b11565b601482019150610c9d8285610be6565b602082019150610cad8284610ae0565b915081905095945050505050565b6000602082019050610cd06000830184610a4c565b92915050565b6000604082019050610ceb6000830185610a4c565b610cf86020830184610a4c565b9392505050565b6000606082019050610d146000830186610a4c565b610d216020830185610a3d565b8181036040830152610d338184610aa7565b9050949350505050565b6000602082019050610d526000830184610a72565b92915050565b6000608082019050610d6d6000830187610a81565b610d7a6020830186610bfd565b610d876040830185610a81565b610d946060830184610a81565b95945050505050565b60006020820190508181036000830152610db78184610aa7565b905092915050565b60006020820190508181036000830152610dd881610b4b565b9050919050565b60006020820190508181036000830152610df881610b6e565b9050919050565b60006020820190508181036000830152610e1881610b91565b9050919050565b60006020820190508181036000830152610e3881610bb4565b9050919050565b6000602082019050610e546000830184610bd7565b92915050565b6000610e64610e75565b9050610e708282611032565b919050565b6000604051905090565b600067ffffffffffffffff821115610e9a57610e996110ca565b5b610ea38261110d565b9050602081019050919050565b600081519050919050565b600082825260208201905092915050565b600081905092915050565b600082825260208201905092915050565b600081905092915050565b6000610efe82610fa3565b9150610f0983610fa3565b9250827fffffffffffffffffffffffffffffffffffffffffffffffffffffffffffffffff03821115610f3e57610f3d61109b565b5b828201905092915050565b6000610f5482610f83565b9050919050565b6000610f6682610f83565b9050919050565b60008115159050919050565b6000819050919050565b600073ffffffffffffffffffffffffffffffffffffffff82169050919050565b6000819050919050565b600060ff82169050919050565b6000610fc582610fcc565b9050919050565b6000610fd782610fde565b9050919050565b6000610fe982610f83565b9050919050565b82818337600083830152505050565b60005b8381101561101d578082015181840152602081019050611002565b8381111561102c576000848401525b50505050565b61103b8261110d565b810181811067ffffffffffffffff8211171561105a576110596110ca565b5b80604052505050565b600061106e8261107f565b9050919050565b6000819050919050565b600061108a8261111e565b9050919050565b6000819050919050565b7f4e487b7100000000000000000000000000000000000000000000000000000000600052601160045260246000fd5b7f4e487b7100000000000000000000000000000000000000000000000000000000600052604160045260246000fd5b600080fd5b600080fd5b600080fd5b600080fd5b6000601f19601f8301169050919050565b60008160601b9050919050565b7f19457468657265756d205369676e6564204d6573736167653a0a333200000000600082015250565b7f46756e6374696f6e2063616c6c206e6f74207375636365737366756c00000000600082015250565b7f496e76616c6964207369676e6174757265000000000000000000000000000000600082015250565b7f5369676e657220616e64207369676e617475726520646f206e6f74206d61746360008201527f6800000000000000000000000000000000000000000000000000000000000000602082015250565b7f437573746f6d4f776e61626c653a20464f5242494444454e0000000000000000600082015250565b61122781610f49565b811461123257600080fd5b50565b61123e81610f79565b811461124957600080fd5b50565b61125581610fa3565b811461126057600080fd5b50565b61126c81610fad565b811461127757600080fd5b5056fea26469706673582212205c1b5883ea227d36b5509a048228df271d6eee4532d87b74eef209d9e811f8b464736f6c63430008070033",
					"opcodes": "PUSH1 0x80 PUSH1 0x40 MSTORE CALLVALUE DUP1 ISZERO PUSH2 0x10 JUMPI PUSH1 0x0 DUP1 REVERT JUMPDEST POP PUSH2 0x2D PUSH2 0x22 PUSH2 0x32 PUSH1 0x20 SHL PUSH1 0x20 SHR JUMP JUMPDEST PUSH2 0xE8 PUSH1 0x20 SHL PUSH1 0x20 SHR JUMP JUMPDEST PUSH2 0x12C JUMP JUMPDEST PUSH1 0x0 ADDRESS PUSH20 0xFFFFFFFFFFFFFFFFFFFFFFFFFFFFFFFFFFFFFFFF AND CALLER PUSH20 0xFFFFFFFFFFFFFFFFFFFFFFFFFFFFFFFFFFFFFFFF AND EQ ISZERO PUSH2 0xDC JUMPI PUSH1 0x0 DUP1 CALLDATASIZE DUP1 DUP1 PUSH1 0x1F ADD PUSH1 0x20 DUP1 SWAP2 DIV MUL PUSH1 0x20 ADD PUSH1 0x40 MLOAD SWAP1 DUP2 ADD PUSH1 0x40 MSTORE DUP1 SWAP4 SWAP3 SWAP2 SWAP1 DUP2 DUP2 MSTORE PUSH1 0x20 ADD DUP4 DUP4 DUP1 DUP3 DUP5 CALLDATACOPY PUSH1 0x0 DUP2 DUP5 ADD MSTORE PUSH1 0x1F NOT PUSH1 0x1F DUP3 ADD AND SWAP1 POP DUP1 DUP4 ADD SWAP3 POP POP POP POP POP POP POP SWAP1 POP PUSH1 0x0 DUP1 CALLDATASIZE SWAP1 POP SWAP1 POP PUSH20 0xFFFFFFFFFFFFFFFFFFFFFFFFFFFFFFFFFFFFFFFF DUP2 DUP4 ADD MLOAD AND SWAP3 POP POP POP PUSH2 0xE4 JUMP JUMPDEST CALLER SWAP1 POP PUSH2 0xE5 JUMP JUMPDEST JUMPDEST SWAP1 JUMP JUMPDEST DUP1 PUSH1 0x1 PUSH1 0x0 PUSH2 0x100 EXP DUP2 SLOAD DUP2 PUSH20 0xFFFFFFFFFFFFFFFFFFFFFFFFFFFFFFFFFFFFFFFF MUL NOT AND SWAP1 DUP4 PUSH20 0xFFFFFFFFFFFFFFFFFFFFFFFFFFFFFFFFFFFFFFFF AND MUL OR SWAP1 SSTORE POP POP JUMP JUMPDEST PUSH2 0x12B0 DUP1 PUSH2 0x13B PUSH1 0x0 CODECOPY PUSH1 0x0 RETURN INVALID PUSH1 0x80 PUSH1 0x40 MSTORE PUSH1 0x4 CALLDATASIZE LT PUSH2 0x55 JUMPI PUSH1 0x0 CALLDATALOAD PUSH1 0xE0 SHR DUP1 PUSH4 0xC53C51C EQ PUSH2 0x5A JUMPI DUP1 PUSH4 0x2D0335AB EQ PUSH2 0x8A JUMPI DUP1 PUSH4 0x564B81EF EQ PUSH2 0xC7 JUMPI DUP1 PUSH4 0x6281133D EQ PUSH2 0xF2 JUMPI DUP1 PUSH4 0x8DA5CB5B EQ PUSH2 0x12F JUMPI DUP1 PUSH4 0xF2FDE38B EQ PUSH2 0x15A JUMPI JUMPDEST PUSH1 0x0 DUP1 REVERT JUMPDEST PUSH2 0x74 PUSH1 0x4 DUP1 CALLDATASIZE SUB DUP2 ADD SWAP1 PUSH2 0x6F SWAP2 SWAP1 PUSH2 0x8E8 JUMP JUMPDEST PUSH2 0x183 JUMP JUMPDEST PUSH1 0x40 MLOAD PUSH2 0x81 SWAP2 SWAP1 PUSH2 0xD9D JUMP JUMPDEST PUSH1 0x40 MLOAD DUP1 SWAP2 SUB SWAP1 RETURN JUMPDEST CALLVALUE DUP1 ISZERO PUSH2 0x96 JUMPI PUSH1 0x0 DUP1 REVERT JUMPDEST POP PUSH2 0xB1 PUSH1 0x4 DUP1 CALLDATASIZE SUB DUP2 ADD SWAP1 PUSH2 0xAC SWAP2 SWAP1 PUSH2 0x8BB JUMP JUMPDEST PUSH2 0x3C5 JUMP JUMPDEST PUSH1 0x40 MLOAD PUSH2 0xBE SWAP2 SWAP1 PUSH2 0xE3F JUMP JUMPDEST PUSH1 0x40 MLOAD DUP1 SWAP2 SUB SWAP1 RETURN JUMPDEST CALLVALUE DUP1 ISZERO PUSH2 0xD3 JUMPI PUSH1 0x0 DUP1 REVERT JUMPDEST POP PUSH2 0xDC PUSH2 0x40D JUMP JUMPDEST PUSH1 0x40 MLOAD PUSH2 0xE9 SWAP2 SWAP1 PUSH2 0xE3F JUMP JUMPDEST PUSH1 0x40 MLOAD DUP1 SWAP2 SUB SWAP1 RETURN JUMPDEST CALLVALUE DUP1 ISZERO PUSH2 0xFE JUMPI PUSH1 0x0 DUP1 REVERT JUMPDEST POP PUSH2 0x119 PUSH1 0x4 DUP1 CALLDATASIZE SUB DUP2 ADD SWAP1 PUSH2 0x114 SWAP2 SWAP1 PUSH2 0x97F JUMP JUMPDEST PUSH2 0x41A JUMP JUMPDEST PUSH1 0x40 MLOAD PUSH2 0x126 SWAP2 SWAP1 PUSH2 0xD3D JUMP JUMPDEST PUSH1 0x40 MLOAD DUP1 SWAP2 SUB SWAP1 RETURN JUMPDEST CALLVALUE DUP1 ISZERO PUSH2 0x13B JUMPI PUSH1 0x0 DUP1 REVERT JUMPDEST POP PUSH2 0x144 PUSH2 0x555 JUMP JUMPDEST PUSH1 0x40 MLOAD PUSH2 0x151 SWAP2 SWAP1 PUSH2 0xCBB JUMP JUMPDEST PUSH1 0x40 MLOAD DUP1 SWAP2 SUB SWAP1 RETURN JUMPDEST CALLVALUE DUP1 ISZERO PUSH2 0x166 JUMPI PUSH1 0x0 DUP1 REVERT JUMPDEST POP PUSH2 0x181 PUSH1 0x4 DUP1 CALLDATASIZE SUB DUP2 ADD SWAP1 PUSH2 0x17C SWAP2 SWAP1 PUSH2 0x8BB JUMP JUMPDEST PUSH2 0x57F JUMP JUMPDEST STOP JUMPDEST PUSH1 0x60 PUSH2 0x1D9 DUP7 PUSH1 0x0 DUP1 DUP10 PUSH20 0xFFFFFFFFFFFFFFFFFFFFFFFFFFFFFFFFFFFFFFFF AND PUSH20 0xFFFFFFFFFFFFFFFFFFFFFFFFFFFFFFFFFFFFFFFF AND DUP2 MSTORE PUSH1 0x20 ADD SWAP1 DUP2 MSTORE PUSH1 0x20 ADD PUSH1 0x0 KECCAK256 SLOAD PUSH2 0x1D0 PUSH2 0x40D JUMP JUMPDEST DUP9 DUP9 DUP9 DUP9 PUSH2 0x41A JUMP JUMPDEST PUSH2 0x218 JUMPI PUSH1 0x40 MLOAD PUSH32 0x8C379A000000000000000000000000000000000000000000000000000000000 DUP2 MSTORE PUSH1 0x4 ADD PUSH2 0x20F SWAP1 PUSH2 0xDFF JUMP JUMPDEST PUSH1 0x40 MLOAD DUP1 SWAP2 SUB SWAP1 REVERT JUMPDEST PUSH2 0x26A PUSH1 0x1 PUSH1 0x0 DUP1 DUP10 PUSH20 0xFFFFFFFFFFFFFFFFFFFFFFFFFFFFFFFFFFFFFFFF AND PUSH20 0xFFFFFFFFFFFFFFFFFFFFFFFFFFFFFFFFFFFFFFFF AND DUP2 MSTORE PUSH1 0x20 ADD SWAP1 DUP2 MSTORE PUSH1 0x20 ADD PUSH1 0x0 KECCAK256 SLOAD PUSH2 0x6B7 SWAP1 SWAP2 SWAP1 PUSH4 0xFFFFFFFF AND JUMP JUMPDEST PUSH1 0x0 DUP1 DUP9 PUSH20 0xFFFFFFFFFFFFFFFFFFFFFFFFFFFFFFFFFFFFFFFF AND PUSH20 0xFFFFFFFFFFFFFFFFFFFFFFFFFFFFFFFFFFFFFFFF AND DUP2 MSTORE PUSH1 0x20 ADD SWAP1 DUP2 MSTORE PUSH1 0x20 ADD PUSH1 0x0 KECCAK256 DUP2 SWAP1 SSTORE POP PUSH1 0x0 DUP1 ADDRESS PUSH20 0xFFFFFFFFFFFFFFFFFFFFFFFFFFFFFFFFFFFFFFFF AND DUP8 DUP10 PUSH1 0x40 MLOAD PUSH1 0x20 ADD PUSH2 0x2D9 SWAP3 SWAP2 SWAP1 PUSH2 0xC23 JUMP JUMPDEST PUSH1 0x40 MLOAD PUSH1 0x20 DUP2 DUP4 SUB SUB DUP2 MSTORE SWAP1 PUSH1 0x40 MSTORE PUSH1 0x40 MLOAD PUSH2 0x2F5 SWAP2 SWAP1 PUSH2 0xC0C JUMP JUMPDEST PUSH1 0x0 PUSH1 0x40 MLOAD DUP1 DUP4 SUB DUP2 PUSH1 0x0 DUP7 GAS CALL SWAP2 POP POP RETURNDATASIZE DUP1 PUSH1 0x0 DUP2 EQ PUSH2 0x332 JUMPI PUSH1 0x40 MLOAD SWAP2 POP PUSH1 0x1F NOT PUSH1 0x3F RETURNDATASIZE ADD AND DUP3 ADD PUSH1 0x40 MSTORE RETURNDATASIZE DUP3 MSTORE RETURNDATASIZE PUSH1 0x0 PUSH1 0x20 DUP5 ADD RETURNDATACOPY PUSH2 0x337 JUMP JUMPDEST PUSH1 0x60 SWAP2 POP JUMPDEST POP SWAP2 POP SWAP2 POP DUP2 PUSH2 0x37C JUMPI PUSH1 0x40 MLOAD PUSH32 0x8C379A000000000000000000000000000000000000000000000000000000000 DUP2 MSTORE PUSH1 0x4 ADD PUSH2 0x373 SWAP1 PUSH2 0xDBF JUMP JUMPDEST PUSH1 0x40 MLOAD DUP1 SWAP2 SUB SWAP1 REVERT JUMPDEST PUSH32 0x5845892132946850460BFF5A0083F71031BC5BF9AADCD40F1DE79423EAC9B10B DUP9 CALLER DUP10 PUSH1 0x40 MLOAD PUSH2 0x3AF SWAP4 SWAP3 SWAP2 SWAP1 PUSH2 0xCFF JUMP JUMPDEST PUSH1 0x40 MLOAD DUP1 SWAP2 SUB SWAP1 LOG1 DUP1 SWAP3 POP POP POP SWAP6 SWAP5 POP POP POP POP POP JUMP JUMPDEST PUSH1 0x0 DUP1 PUSH1 0x0 DUP4 PUSH20 0xFFFFFFFFFFFFFFFFFFFFFFFFFFFFFFFFFFFFFFFF AND PUSH20 0xFFFFFFFFFFFFFFFFFFFFFFFFFFFFFFFFFFFFFFFF AND DUP2 MSTORE PUSH1 0x20 ADD SWAP1 DUP2 MSTORE PUSH1 0x20 ADD PUSH1 0x0 KECCAK256 SLOAD SWAP1 POP SWAP2 SWAP1 POP JUMP JUMPDEST PUSH1 0x0 DUP1 CHAINID SWAP1 POP DUP1 SWAP2 POP POP SWAP1 JUMP JUMPDEST PUSH1 0x0 DUP1 PUSH2 0x452 DUP9 ADDRESS DUP10 DUP10 PUSH1 0x40 MLOAD PUSH1 0x20 ADD PUSH2 0x437 SWAP5 SWAP4 SWAP3 SWAP2 SWAP1 PUSH2 0xC71 JUMP JUMPDEST PUSH1 0x40 MLOAD PUSH1 0x20 DUP2 DUP4 SUB SUB DUP2 MSTORE SWAP1 PUSH1 0x40 MSTORE DUP1 MLOAD SWAP1 PUSH1 0x20 ADD KECCAK256 PUSH2 0x6CD JUMP JUMPDEST SWAP1 POP PUSH1 0x0 PUSH1 0x1 DUP3 DUP6 DUP9 DUP9 PUSH1 0x40 MLOAD PUSH1 0x0 DUP2 MSTORE PUSH1 0x20 ADD PUSH1 0x40 MSTORE PUSH1 0x40 MLOAD PUSH2 0x479 SWAP5 SWAP4 SWAP3 SWAP2 SWAP1 PUSH2 0xD58 JUMP JUMPDEST PUSH1 0x20 PUSH1 0x40 MLOAD PUSH1 0x20 DUP2 SUB SWAP1 DUP1 DUP5 SUB SWAP1 DUP6 GAS STATICCALL ISZERO DUP1 ISZERO PUSH2 0x49B JUMPI RETURNDATASIZE PUSH1 0x0 DUP1 RETURNDATACOPY RETURNDATASIZE PUSH1 0x0 REVERT JUMPDEST POP POP POP PUSH1 0x20 PUSH1 0x40 MLOAD SUB MLOAD SWAP1 POP PUSH1 0x0 PUSH20 0xFFFFFFFFFFFFFFFFFFFFFFFFFFFFFFFFFFFFFFFF AND DUP2 PUSH20 0xFFFFFFFFFFFFFFFFFFFFFFFFFFFFFFFFFFFFFFFF AND EQ ISZERO PUSH2 0x517 JUMPI PUSH1 0x40 MLOAD PUSH32 0x8C379A000000000000000000000000000000000000000000000000000000000 DUP2 MSTORE PUSH1 0x4 ADD PUSH2 0x50E SWAP1 PUSH2 0xDDF JUMP JUMPDEST PUSH1 0x40 MLOAD DUP1 SWAP2 SUB SWAP1 REVERT JUMPDEST DUP1 PUSH20 0xFFFFFFFFFFFFFFFFFFFFFFFFFFFFFFFFFFFFFFFF AND DUP11 PUSH20 0xFFFFFFFFFFFFFFFFFFFFFFFFFFFFFFFFFFFFFFFF AND EQ SWAP3 POP POP POP SWAP8 SWAP7 POP POP POP POP POP POP POP JUMP JUMPDEST PUSH1 0x0 PUSH1 0x1 PUSH1 0x0 SWAP1 SLOAD SWAP1 PUSH2 0x100 EXP SWAP1 DIV PUSH20 0xFFFFFFFFFFFFFFFFFFFFFFFFFFFFFFFFFFFFFFFF AND SWAP1 POP SWAP1 JUMP JUMPDEST PUSH2 0x587 PUSH2 0x555 JUMP JUMPDEST PUSH20 0xFFFFFFFFFFFFFFFFFFFFFFFFFFFFFFFFFFFFFFFF AND PUSH2 0x5A5 PUSH2 0x6FD JUMP JUMPDEST PUSH20 0xFFFFFFFFFFFFFFFFFFFFFFFFFFFFFFFFFFFFFFFF AND EQ PUSH2 0x5FB JUMPI PUSH1 0x40 MLOAD PUSH32 0x8C379A000000000000000000000000000000000000000000000000000000000 DUP2 MSTORE PUSH1 0x4 ADD PUSH2 0x5F2 SWAP1 PUSH2 0xE1F JUMP JUMPDEST PUSH1 0x40 MLOAD DUP1 SWAP2 SUB SWAP1 REVERT JUMPDEST PUSH1 0x0 PUSH20 0xFFFFFFFFFFFFFFFFFFFFFFFFFFFFFFFFFFFFFFFF AND DUP2 PUSH20 0xFFFFFFFFFFFFFFFFFFFFFFFFFFFFFFFFFFFFFFFF AND EQ ISZERO PUSH2 0x66B JUMPI PUSH1 0x40 MLOAD PUSH32 0x8C379A000000000000000000000000000000000000000000000000000000000 DUP2 MSTORE PUSH1 0x4 ADD PUSH2 0x662 SWAP1 PUSH2 0xE1F JUMP JUMPDEST PUSH1 0x40 MLOAD DUP1 SWAP2 SUB SWAP1 REVERT JUMPDEST PUSH32 0x8BE0079C531659141344CD1FD0A4F28419497F9722A3DAAFE3B4186F6B6457E0 PUSH2 0x694 PUSH2 0x555 JUMP JUMPDEST DUP3 PUSH1 0x40 MLOAD PUSH2 0x6A3 SWAP3 SWAP2 SWAP1 PUSH2 0xCD6 JUMP JUMPDEST PUSH1 0x40 MLOAD DUP1 SWAP2 SUB SWAP1 LOG1 PUSH2 0x6B4 DUP2 PUSH2 0x7B3 JUMP JUMPDEST POP JUMP JUMPDEST PUSH1 0x0 DUP2 DUP4 PUSH2 0x6C5 SWAP2 SWAP1 PUSH2 0xEF3 JUMP JUMPDEST SWAP1 POP SWAP3 SWAP2 POP POP JUMP JUMPDEST PUSH1 0x0 DUP2 PUSH1 0x40 MLOAD PUSH1 0x20 ADD PUSH2 0x6E0 SWAP2 SWAP1 PUSH2 0xC4B JUMP JUMPDEST PUSH1 0x40 MLOAD PUSH1 0x20 DUP2 DUP4 SUB SUB DUP2 MSTORE SWAP1 PUSH1 0x40 MSTORE DUP1 MLOAD SWAP1 PUSH1 0x20 ADD KECCAK256 SWAP1 POP SWAP2 SWAP1 POP JUMP JUMPDEST PUSH1 0x0 ADDRESS PUSH20 0xFFFFFFFFFFFFFFFFFFFFFFFFFFFFFFFFFFFFFFFF AND CALLER PUSH20 0xFFFFFFFFFFFFFFFFFFFFFFFFFFFFFFFFFFFFFFFF AND EQ ISZERO PUSH2 0x7A7 JUMPI PUSH1 0x0 DUP1 CALLDATASIZE DUP1 DUP1 PUSH1 0x1F ADD PUSH1 0x20 DUP1 SWAP2 DIV MUL PUSH1 0x20 ADD PUSH1 0x40 MLOAD SWAP1 DUP2 ADD PUSH1 0x40 MSTORE DUP1 SWAP4 SWAP3 SWAP2 SWAP1 DUP2 DUP2 MSTORE PUSH1 0x20 ADD DUP4 DUP4 DUP1 DUP3 DUP5 CALLDATACOPY PUSH1 0x0 DUP2 DUP5 ADD MSTORE PUSH1 0x1F NOT PUSH1 0x1F DUP3 ADD AND SWAP1 POP DUP1 DUP4 ADD SWAP3 POP POP POP POP POP POP POP SWAP1 POP PUSH1 0x0 DUP1 CALLDATASIZE SWAP1 POP SWAP1 POP PUSH20 0xFFFFFFFFFFFFFFFFFFFFFFFFFFFFFFFFFFFFFFFF DUP2 DUP4 ADD MLOAD AND SWAP3 POP POP POP PUSH2 0x7AF JUMP JUMPDEST CALLER SWAP1 POP PUSH2 0x7B0 JUMP JUMPDEST JUMPDEST SWAP1 JUMP JUMPDEST DUP1 PUSH1 0x1 PUSH1 0x0 PUSH2 0x100 EXP DUP2 SLOAD DUP2 PUSH20 0xFFFFFFFFFFFFFFFFFFFFFFFFFFFFFFFFFFFFFFFF MUL NOT AND SWAP1 DUP4 PUSH20 0xFFFFFFFFFFFFFFFFFFFFFFFFFFFFFFFFFFFFFFFF AND MUL OR SWAP1 SSTORE POP POP JUMP JUMPDEST PUSH1 0x0 PUSH2 0x80A PUSH2 0x805 DUP5 PUSH2 0xE7F JUMP JUMPDEST PUSH2 0xE5A JUMP JUMPDEST SWAP1 POP DUP3 DUP2 MSTORE PUSH1 0x20 DUP2 ADD DUP5 DUP5 DUP5 ADD GT ISZERO PUSH2 0x826 JUMPI PUSH2 0x825 PUSH2 0x10FE JUMP JUMPDEST JUMPDEST PUSH2 0x831 DUP5 DUP3 DUP6 PUSH2 0xFF0 JUMP JUMPDEST POP SWAP4 SWAP3 POP POP POP JUMP JUMPDEST PUSH1 0x0 DUP2 CALLDATALOAD SWAP1 POP PUSH2 0x848 DUP2 PUSH2 0x121E JUMP JUMPDEST SWAP3 SWAP2 POP POP JUMP JUMPDEST PUSH1 0x0 DUP2 CALLDATALOAD SWAP1 POP PUSH2 0x85D DUP2 PUSH2 0x1235 JUMP JUMPDEST SWAP3 SWAP2 POP POP JUMP JUMPDEST PUSH1 0x0 DUP3 PUSH1 0x1F DUP4 ADD SLT PUSH2 0x878 JUMPI PUSH2 0x877 PUSH2 0x10F9 JUMP JUMPDEST JUMPDEST DUP2 CALLDATALOAD PUSH2 0x888 DUP5 DUP3 PUSH1 0x20 DUP7 ADD PUSH2 0x7F7 JUMP JUMPDEST SWAP2 POP POP SWAP3 SWAP2 POP POP JUMP JUMPDEST PUSH1 0x0 DUP2 CALLDATALOAD SWAP1 POP PUSH2 0x8A0 DUP2 PUSH2 0x124C JUMP JUMPDEST SWAP3 SWAP2 POP POP JUMP JUMPDEST PUSH1 0x0 DUP2 CALLDATALOAD SWAP1 POP PUSH2 0x8B5 DUP2 PUSH2 0x1263 JUMP JUMPDEST SWAP3 SWAP2 POP POP JUMP JUMPDEST PUSH1 0x0 PUSH1 0x20 DUP3 DUP5 SUB SLT ISZERO PUSH2 0x8D1 JUMPI PUSH2 0x8D0 PUSH2 0x1108 JUMP JUMPDEST JUMPDEST PUSH1 0x0 PUSH2 0x8DF DUP5 DUP3 DUP6 ADD PUSH2 0x839 JUMP JUMPDEST SWAP2 POP POP SWAP3 SWAP2 POP POP JUMP JUMPDEST PUSH1 0x0 DUP1 PUSH1 0x0 DUP1 PUSH1 0x0 PUSH1 0xA0 DUP7 DUP9 SUB SLT ISZERO PUSH2 0x904 JUMPI PUSH2 0x903 PUSH2 0x1108 JUMP JUMPDEST JUMPDEST PUSH1 0x0 PUSH2 0x912 DUP9 DUP3 DUP10 ADD PUSH2 0x839 JUMP JUMPDEST SWAP6 POP POP PUSH1 0x20 DUP7 ADD CALLDATALOAD PUSH8 0xFFFFFFFFFFFFFFFF DUP2 GT ISZERO PUSH2 0x933 JUMPI PUSH2 0x932 PUSH2 0x1103 JUMP JUMPDEST JUMPDEST PUSH2 0x93F DUP9 DUP3 DUP10 ADD PUSH2 0x863 JUMP JUMPDEST SWAP5 POP POP PUSH1 0x40 PUSH2 0x950 DUP9 DUP3 DUP10 ADD PUSH2 0x84E JUMP JUMPDEST SWAP4 POP POP PUSH1 0x60 PUSH2 0x961 DUP9 DUP3 DUP10 ADD PUSH2 0x84E JUMP JUMPDEST SWAP3 POP POP PUSH1 0x80 PUSH2 0x972 DUP9 DUP3 DUP10 ADD PUSH2 0x8A6 JUMP JUMPDEST SWAP2 POP POP SWAP3 SWAP6 POP SWAP3 SWAP6 SWAP1 SWAP4 POP JUMP JUMPDEST PUSH1 0x0 DUP1 PUSH1 0x0 DUP1 PUSH1 0x0 DUP1 PUSH1 0x0 PUSH1 0xE0 DUP9 DUP11 SUB SLT ISZERO PUSH2 0x99E JUMPI PUSH2 0x99D PUSH2 0x1108 JUMP JUMPDEST JUMPDEST PUSH1 0x0 PUSH2 0x9AC DUP11 DUP3 DUP12 ADD PUSH2 0x839 JUMP JUMPDEST SWAP8 POP POP PUSH1 0x20 PUSH2 0x9BD DUP11 DUP3 DUP12 ADD PUSH2 0x891 JUMP JUMPDEST SWAP7 POP POP PUSH1 0x40 PUSH2 0x9CE DUP11 DUP3 DUP12 ADD PUSH2 0x891 JUMP JUMPDEST SWAP6 POP POP PUSH1 0x60 DUP9 ADD CALLDATALOAD PUSH8 0xFFFFFFFFFFFFFFFF DUP2 GT ISZERO PUSH2 0x9EF JUMPI PUSH2 0x9EE PUSH2 0x1103 JUMP JUMPDEST JUMPDEST PUSH2 0x9FB DUP11 DUP3 DUP12 ADD PUSH2 0x863 JUMP JUMPDEST SWAP5 POP POP PUSH1 0x80 PUSH2 0xA0C DUP11 DUP3 DUP12 ADD PUSH2 0x84E JUMP JUMPDEST SWAP4 POP POP PUSH1 0xA0 PUSH2 0xA1D DUP11 DUP3 DUP12 ADD PUSH2 0x84E JUMP JUMPDEST SWAP3 POP POP PUSH1 0xC0 PUSH2 0xA2E DUP11 DUP3 DUP12 ADD PUSH2 0x8A6 JUMP JUMPDEST SWAP2 POP POP SWAP3 SWAP6 SWAP9 SWAP2 SWAP5 SWAP8 POP SWAP3 SWAP6 POP JUMP JUMPDEST PUSH2 0xA46 DUP2 PUSH2 0xF5B JUMP JUMPDEST DUP3 MSTORE POP POP JUMP JUMPDEST PUSH2 0xA55 DUP2 PUSH2 0xF49 JUMP JUMPDEST DUP3 MSTORE POP POP JUMP JUMPDEST PUSH2 0xA6C PUSH2 0xA67 DUP3 PUSH2 0xF49 JUMP JUMPDEST PUSH2 0x1063 JUMP JUMPDEST DUP3 MSTORE POP POP JUMP JUMPDEST PUSH2 0xA7B DUP2 PUSH2 0xF6D JUMP JUMPDEST DUP3 MSTORE POP POP JUMP JUMPDEST PUSH2 0xA8A DUP2 PUSH2 0xF79 JUMP JUMPDEST DUP3 MSTORE POP POP JUMP JUMPDEST PUSH2 0xAA1 PUSH2 0xA9C DUP3 PUSH2 0xF79 JUMP JUMPDEST PUSH2 0x1075 JUMP JUMPDEST DUP3 MSTORE POP POP JUMP JUMPDEST PUSH1 0x0 PUSH2 0xAB2 DUP3 PUSH2 0xEB0 JUMP JUMPDEST PUSH2 0xABC DUP2 DUP6 PUSH2 0xEBB JUMP JUMPDEST SWAP4 POP PUSH2 0xACC DUP2 DUP6 PUSH1 0x20 DUP7 ADD PUSH2 0xFFF JUMP JUMPDEST PUSH2 0xAD5 DUP2 PUSH2 0x110D JUMP JUMPDEST DUP5 ADD SWAP2 POP POP SWAP3 SWAP2 POP POP JUMP JUMPDEST PUSH1 0x0 PUSH2 0xAEB DUP3 PUSH2 0xEB0 JUMP JUMPDEST PUSH2 0xAF5 DUP2 DUP6 PUSH2 0xECC JUMP JUMPDEST SWAP4 POP PUSH2 0xB05 DUP2 DUP6 PUSH1 0x20 DUP7 ADD PUSH2 0xFFF JUMP JUMPDEST DUP1 DUP5 ADD SWAP2 POP POP SWAP3 SWAP2 POP POP JUMP JUMPDEST PUSH2 0xB22 PUSH2 0xB1D DUP3 PUSH2 0xFBA JUMP JUMPDEST PUSH2 0x1063 JUMP JUMPDEST DUP3 MSTORE POP POP JUMP JUMPDEST PUSH1 0x0 PUSH2 0xB35 PUSH1 0x1C DUP4 PUSH2 0xEE8 JUMP JUMPDEST SWAP2 POP PUSH2 0xB40 DUP3 PUSH2 0x112B JUMP JUMPDEST PUSH1 0x1C DUP3 ADD SWAP1 POP SWAP2 SWAP1 POP JUMP JUMPDEST PUSH1 0x0 PUSH2 0xB58 PUSH1 0x1C DUP4 PUSH2 0xED7 JUMP JUMPDEST SWAP2 POP PUSH2 0xB63 DUP3 PUSH2 0x1154 JUMP JUMPDEST PUSH1 0x20 DUP3 ADD SWAP1 POP SWAP2 SWAP1 POP JUMP JUMPDEST PUSH1 0x0 PUSH2 0xB7B PUSH1 0x11 DUP4 PUSH2 0xED7 JUMP JUMPDEST SWAP2 POP PUSH2 0xB86 DUP3 PUSH2 0x117D JUMP JUMPDEST PUSH1 0x20 DUP3 ADD SWAP1 POP SWAP2 SWAP1 POP JUMP JUMPDEST PUSH1 0x0 PUSH2 0xB9E PUSH1 0x21 DUP4 PUSH2 0xED7 JUMP JUMPDEST SWAP2 POP PUSH2 0xBA9 DUP3 PUSH2 0x11A6 JUMP JUMPDEST PUSH1 0x40 DUP3 ADD SWAP1 POP SWAP2 SWAP1 POP JUMP JUMPDEST PUSH1 0x0 PUSH2 0xBC1 PUSH1 0x18 DUP4 PUSH2 0xED7 JUMP JUMPDEST SWAP2 POP PUSH2 0xBCC DUP3 PUSH2 0x11F5 JUMP JUMPDEST PUSH1 0x20 DUP3 ADD SWAP1 POP SWAP2 SWAP1 POP JUMP JUMPDEST PUSH2 0xBE0 DUP2 PUSH2 0xFA3 JUMP JUMPDEST DUP3 MSTORE POP POP JUMP JUMPDEST PUSH2 0xBF7 PUSH2 0xBF2 DUP3 PUSH2 0xFA3 JUMP JUMPDEST PUSH2 0x1091 JUMP JUMPDEST DUP3 MSTORE POP POP JUMP JUMPDEST PUSH2 0xC06 DUP2 PUSH2 0xFAD JUMP JUMPDEST DUP3 MSTORE POP POP JUMP JUMPDEST PUSH1 0x0 PUSH2 0xC18 DUP3 DUP5 PUSH2 0xAE0 JUMP JUMPDEST SWAP2 POP DUP2 SWAP1 POP SWAP3 SWAP2 POP POP JUMP JUMPDEST PUSH1 0x0 PUSH2 0xC2F DUP3 DUP6 PUSH2 0xAE0 JUMP JUMPDEST SWAP2 POP PUSH2 0xC3B DUP3 DUP5 PUSH2 0xA5B JUMP JUMPDEST PUSH1 0x14 DUP3 ADD SWAP2 POP DUP2 SWAP1 POP SWAP4 SWAP3 POP POP POP JUMP JUMPDEST PUSH1 0x0 PUSH2 0xC56 DUP3 PUSH2 0xB28 JUMP JUMPDEST SWAP2 POP PUSH2 0xC62 DUP3 DUP5 PUSH2 0xA90 JUMP JUMPDEST PUSH1 0x20 DUP3 ADD SWAP2 POP DUP2 SWAP1 POP SWAP3 SWAP2 POP POP JUMP JUMPDEST PUSH1 0x0 PUSH2 0xC7D DUP3 DUP8 PUSH2 0xBE6 JUMP JUMPDEST PUSH1 0x20 DUP3 ADD SWAP2 POP PUSH2 0xC8D DUP3 DUP7 PUSH2 0xB11 JUMP JUMPDEST PUSH1 0x14 DUP3 ADD SWAP2 POP PUSH2 0xC9D DUP3 DUP6 PUSH2 0xBE6 JUMP JUMPDEST PUSH1 0x20 DUP3 ADD SWAP2 POP PUSH2 0xCAD DUP3 DUP5 PUSH2 0xAE0 JUMP JUMPDEST SWAP2 POP DUP2 SWAP1 POP SWAP6 SWAP5 POP POP POP POP POP JUMP JUMPDEST PUSH1 0x0 PUSH1 0x20 DUP3 ADD SWAP1 POP PUSH2 0xCD0 PUSH1 0x0 DUP4 ADD DUP5 PUSH2 0xA4C JUMP JUMPDEST SWAP3 SWAP2 POP POP JUMP JUMPDEST PUSH1 0x0 PUSH1 0x40 DUP3 ADD SWAP1 POP PUSH2 0xCEB PUSH1 0x0 DUP4 ADD DUP6 PUSH2 0xA4C JUMP JUMPDEST PUSH2 0xCF8 PUSH1 0x20 DUP4 ADD DUP5 PUSH2 0xA4C JUMP JUMPDEST SWAP4 SWAP3 POP POP POP JUMP JUMPDEST PUSH1 0x0 PUSH1 0x60 DUP3 ADD SWAP1 POP PUSH2 0xD14 PUSH1 0x0 DUP4 ADD DUP7 PUSH2 0xA4C JUMP JUMPDEST PUSH2 0xD21 PUSH1 0x20 DUP4 ADD DUP6 PUSH2 0xA3D JUMP JUMPDEST DUP2 DUP2 SUB PUSH1 0x40 DUP4 ADD MSTORE PUSH2 0xD33 DUP2 DUP5 PUSH2 0xAA7 JUMP JUMPDEST SWAP1 POP SWAP5 SWAP4 POP POP POP POP JUMP JUMPDEST PUSH1 0x0 PUSH1 0x20 DUP3 ADD SWAP1 POP PUSH2 0xD52 PUSH1 0x0 DUP4 ADD DUP5 PUSH2 0xA72 JUMP JUMPDEST SWAP3 SWAP2 POP POP JUMP JUMPDEST PUSH1 0x0 PUSH1 0x80 DUP3 ADD SWAP1 POP PUSH2 0xD6D PUSH1 0x0 DUP4 ADD DUP8 PUSH2 0xA81 JUMP JUMPDEST PUSH2 0xD7A PUSH1 0x20 DUP4 ADD DUP7 PUSH2 0xBFD JUMP JUMPDEST PUSH2 0xD87 PUSH1 0x40 DUP4 ADD DUP6 PUSH2 0xA81 JUMP JUMPDEST PUSH2 0xD94 PUSH1 0x60 DUP4 ADD DUP5 PUSH2 0xA81 JUMP JUMPDEST SWAP6 SWAP5 POP POP POP POP POP JUMP JUMPDEST PUSH1 0x0 PUSH1 0x20 DUP3 ADD SWAP1 POP DUP2 DUP2 SUB PUSH1 0x0 DUP4 ADD MSTORE PUSH2 0xDB7 DUP2 DUP5 PUSH2 0xAA7 JUMP JUMPDEST SWAP1 POP SWAP3 SWAP2 POP POP JUMP JUMPDEST PUSH1 0x0 PUSH1 0x20 DUP3 ADD SWAP1 POP DUP2 DUP2 SUB PUSH1 0x0 DUP4 ADD MSTORE PUSH2 0xDD8 DUP2 PUSH2 0xB4B JUMP JUMPDEST SWAP1 POP SWAP2 SWAP1 POP JUMP JUMPDEST PUSH1 0x0 PUSH1 0x20 DUP3 ADD SWAP1 POP DUP2 DUP2 SUB PUSH1 0x0 DUP4 ADD MSTORE PUSH2 0xDF8 DUP2 PUSH2 0xB6E JUMP JUMPDEST SWAP1 POP SWAP2 SWAP1 POP JUMP JUMPDEST PUSH1 0x0 PUSH1 0x20 DUP3 ADD SWAP1 POP DUP2 DUP2 SUB PUSH1 0x0 DUP4 ADD MSTORE PUSH2 0xE18 DUP2 PUSH2 0xB91 JUMP JUMPDEST SWAP1 POP SWAP2 SWAP1 POP JUMP JUMPDEST PUSH1 0x0 PUSH1 0x20 DUP3 ADD SWAP1 POP DUP2 DUP2 SUB PUSH1 0x0 DUP4 ADD MSTORE PUSH2 0xE38 DUP2 PUSH2 0xBB4 JUMP JUMPDEST SWAP1 POP SWAP2 SWAP1 POP JUMP JUMPDEST PUSH1 0x0 PUSH1 0x20 DUP3 ADD SWAP1 POP PUSH2 0xE54 PUSH1 0x0 DUP4 ADD DUP5 PUSH2 0xBD7 JUMP JUMPDEST SWAP3 SWAP2 POP POP JUMP JUMPDEST PUSH1 0x0 PUSH2 0xE64 PUSH2 0xE75 JUMP JUMPDEST SWAP1 POP PUSH2 0xE70 DUP3 DUP3 PUSH2 0x1032 JUMP JUMPDEST SWAP2 SWAP1 POP JUMP JUMPDEST PUSH1 0x0 PUSH1 0x40 MLOAD SWAP1 POP SWAP1 JUMP JUMPDEST PUSH1 0x0 PUSH8 0xFFFFFFFFFFFFFFFF DUP3 GT ISZERO PUSH2 0xE9A JUMPI PUSH2 0xE99 PUSH2 0x10CA JUMP JUMPDEST JUMPDEST PUSH2 0xEA3 DUP3 PUSH2 0x110D JUMP JUMPDEST SWAP1 POP PUSH1 0x20 DUP2 ADD SWAP1 POP SWAP2 SWAP1 POP JUMP JUMPDEST PUSH1 0x0 DUP2 MLOAD SWAP1 POP SWAP2 SWAP1 POP JUMP JUMPDEST PUSH1 0x0 DUP3 DUP3 MSTORE PUSH1 0x20 DUP3 ADD SWAP1 POP SWAP3 SWAP2 POP POP JUMP JUMPDEST PUSH1 0x0 DUP2 SWAP1 POP SWAP3 SWAP2 POP POP JUMP JUMPDEST PUSH1 0x0 DUP3 DUP3 MSTORE PUSH1 0x20 DUP3 ADD SWAP1 POP SWAP3 SWAP2 POP POP JUMP JUMPDEST PUSH1 0x0 DUP2 SWAP1 POP SWAP3 SWAP2 POP POP JUMP JUMPDEST PUSH1 0x0 PUSH2 0xEFE DUP3 PUSH2 0xFA3 JUMP JUMPDEST SWAP2 POP PUSH2 0xF09 DUP4 PUSH2 0xFA3 JUMP JUMPDEST SWAP3 POP DUP3 PUSH32 0xFFFFFFFFFFFFFFFFFFFFFFFFFFFFFFFFFFFFFFFFFFFFFFFFFFFFFFFFFFFFFFFF SUB DUP3 GT ISZERO PUSH2 0xF3E JUMPI PUSH2 0xF3D PUSH2 0x109B JUMP JUMPDEST JUMPDEST DUP3 DUP3 ADD SWAP1 POP SWAP3 SWAP2 POP POP JUMP JUMPDEST PUSH1 0x0 PUSH2 0xF54 DUP3 PUSH2 0xF83 JUMP JUMPDEST SWAP1 POP SWAP2 SWAP1 POP JUMP JUMPDEST PUSH1 0x0 PUSH2 0xF66 DUP3 PUSH2 0xF83 JUMP JUMPDEST SWAP1 POP SWAP2 SWAP1 POP JUMP JUMPDEST PUSH1 0x0 DUP2 ISZERO ISZERO SWAP1 POP SWAP2 SWAP1 POP JUMP JUMPDEST PUSH1 0x0 DUP2 SWAP1 POP SWAP2 SWAP1 POP JUMP JUMPDEST PUSH1 0x0 PUSH20 0xFFFFFFFFFFFFFFFFFFFFFFFFFFFFFFFFFFFFFFFF DUP3 AND SWAP1 POP SWAP2 SWAP1 POP JUMP JUMPDEST PUSH1 0x0 DUP2 SWAP1 POP SWAP2 SWAP1 POP JUMP JUMPDEST PUSH1 0x0 PUSH1 0xFF DUP3 AND SWAP1 POP SWAP2 SWAP1 POP JUMP JUMPDEST PUSH1 0x0 PUSH2 0xFC5 DUP3 PUSH2 0xFCC JUMP JUMPDEST SWAP1 POP SWAP2 SWAP1 POP JUMP JUMPDEST PUSH1 0x0 PUSH2 0xFD7 DUP3 PUSH2 0xFDE JUMP JUMPDEST SWAP1 POP SWAP2 SWAP1 POP JUMP JUMPDEST PUSH1 0x0 PUSH2 0xFE9 DUP3 PUSH2 0xF83 JUMP JUMPDEST SWAP1 POP SWAP2 SWAP1 POP JUMP JUMPDEST DUP3 DUP2 DUP4 CALLDATACOPY PUSH1 0x0 DUP4 DUP4 ADD MSTORE POP POP POP JUMP JUMPDEST PUSH1 0x0 JUMPDEST DUP4 DUP2 LT ISZERO PUSH2 0x101D JUMPI DUP1 DUP3 ADD MLOAD DUP2 DUP5 ADD MSTORE PUSH1 0x20 DUP2 ADD SWAP1 POP PUSH2 0x1002 JUMP JUMPDEST DUP4 DUP2 GT ISZERO PUSH2 0x102C JUMPI PUSH1 0x0 DUP5 DUP5 ADD MSTORE JUMPDEST POP POP POP POP JUMP JUMPDEST PUSH2 0x103B DUP3 PUSH2 0x110D JUMP JUMPDEST DUP2 ADD DUP2 DUP2 LT PUSH8 0xFFFFFFFFFFFFFFFF DUP3 GT OR ISZERO PUSH2 0x105A JUMPI PUSH2 0x1059 PUSH2 0x10CA JUMP JUMPDEST JUMPDEST DUP1 PUSH1 0x40 MSTORE POP POP POP JUMP JUMPDEST PUSH1 0x0 PUSH2 0x106E DUP3 PUSH2 0x107F JUMP JUMPDEST SWAP1 POP SWAP2 SWAP1 POP JUMP JUMPDEST PUSH1 0x0 DUP2 SWAP1 POP SWAP2 SWAP1 POP JUMP JUMPDEST PUSH1 0x0 PUSH2 0x108A DUP3 PUSH2 0x111E JUMP JUMPDEST SWAP1 POP SWAP2 SWAP1 POP JUMP JUMPDEST PUSH1 0x0 DUP2 SWAP1 POP SWAP2 SWAP1 POP JUMP JUMPDEST PUSH32 0x4E487B7100000000000000000000000000000000000000000000000000000000 PUSH1 0x0 MSTORE PUSH1 0x11 PUSH1 0x4 MSTORE PUSH1 0x24 PUSH1 0x0 REVERT JUMPDEST PUSH32 0x4E487B7100000000000000000000000000000000000000000000000000000000 PUSH1 0x0 MSTORE PUSH1 0x41 PUSH1 0x4 MSTORE PUSH1 0x24 PUSH1 0x0 REVERT JUMPDEST PUSH1 0x0 DUP1 REVERT JUMPDEST PUSH1 0x0 DUP1 REVERT JUMPDEST PUSH1 0x0 DUP1 REVERT JUMPDEST PUSH1 0x0 DUP1 REVERT JUMPDEST PUSH1 0x0 PUSH1 0x1F NOT PUSH1 0x1F DUP4 ADD AND SWAP1 POP SWAP2 SWAP1 POP JUMP JUMPDEST PUSH1 0x0 DUP2 PUSH1 0x60 SHL SWAP1 POP SWAP2 SWAP1 POP JUMP JUMPDEST PUSH32 0x19457468657265756D205369676E6564204D6573736167653A0A333200000000 PUSH1 0x0 DUP3 ADD MSTORE POP JUMP JUMPDEST PUSH32 0x46756E6374696F6E2063616C6C206E6F74207375636365737366756C00000000 PUSH1 0x0 DUP3 ADD MSTORE POP JUMP JUMPDEST PUSH32 0x496E76616C6964207369676E6174757265000000000000000000000000000000 PUSH1 0x0 DUP3 ADD MSTORE POP JUMP JUMPDEST PUSH32 0x5369676E657220616E64207369676E617475726520646F206E6F74206D617463 PUSH1 0x0 DUP3 ADD MSTORE PUSH32 0x6800000000000000000000000000000000000000000000000000000000000000 PUSH1 0x20 DUP3 ADD MSTORE POP JUMP JUMPDEST PUSH32 0x437573746F6D4F776E61626C653A20464F5242494444454E0000000000000000 PUSH1 0x0 DUP3 ADD MSTORE POP JUMP JUMPDEST PUSH2 0x1227 DUP2 PUSH2 0xF49 JUMP JUMPDEST DUP2 EQ PUSH2 0x1232 JUMPI PUSH1 0x0 DUP1 REVERT JUMPDEST POP JUMP JUMPDEST PUSH2 0x123E DUP2 PUSH2 0xF79 JUMP JUMPDEST DUP2 EQ PUSH2 0x1249 JUMPI PUSH1 0x0 DUP1 REVERT JUMPDEST POP JUMP JUMPDEST PUSH2 0x1255 DUP2 PUSH2 0xFA3 JUMP JUMPDEST DUP2 EQ PUSH2 0x1260 JUMPI PUSH1 0x0 DUP1 REVERT JUMPDEST POP JUMP JUMPDEST PUSH2 0x126C DUP2 PUSH2 0xFAD JUMP JUMPDEST DUP2 EQ PUSH2 0x1277 JUMPI PUSH1 0x0 DUP1 REVERT JUMPDEST POP JUMP INVALID LOG2 PUSH5 0x6970667358 0x22 SLT KECCAK256 0x5C SHL PC DUP4 0xEA 0x22 PUSH30 0x36B5509A048228DF271D6EEE4532D87B74EEF209D9E811F8B464736F6C63 NUMBER STOP ADDMOD SMOD STOP CALLER "
				},
				"gasEstimates": {
					"creation": {
						"codeDepositCost": "956800",
						"executionCost": "infinite",
						"totalCost": "infinite"
					},
					"external": {
						"executeMetaTransaction(address,bytes,bytes32,bytes32,uint8)": "infinite",
						"getChainID()": "371",
						"getNonce(address)": "2841",
						"owner()": "2588",
						"transferOwnership(address)": "infinite",
						"verify(address,uint256,uint256,bytes,bytes32,bytes32,uint8)": "infinite"
					},
					"internal": {
						"_setOwner(address)": "24278"
					}
				},
				"methodIdentifiers": {
					"executeMetaTransaction(address,bytes,bytes32,bytes32,uint8)": "0c53c51c",
					"getChainID()": "564b81ef",
					"getNonce(address)": "2d0335ab",
					"owner()": "8da5cb5b",
					"transferOwnership(address)": "f2fde38b",
					"verify(address,uint256,uint256,bytes,bytes32,bytes32,uint8)": "6281133d"
				}
			},
			"storageLayout": {
				"storage": [
					{
						"astId": 329,
						"contract": "upgradeability/CustomOwnable.sol:CustomOwnable",
						"label": "nonces",
						"offset": 0,
						"slot": "0",
						"type": "t_mapping(t_address,t_uint256)"
					},
					{
						"astId": 553,
						"contract": "upgradeability/CustomOwnable.sol:CustomOwnable",
						"label": "_owner",
						"offset": 0,
						"slot": "1",
						"type": "t_address"
					}
				],
				"types": {
					"t_address": {
						"encoding": "inplace",
						"label": "address",
						"numberOfBytes": "20"
					},
					"t_mapping(t_address,t_uint256)": {
						"encoding": "mapping",
						"key": "t_address",
						"label": "mapping(address => uint256)",
						"numberOfBytes": "32",
						"value": "t_uint256"
					},
					"t_uint256": {
						"encoding": "inplace",
						"label": "uint256",
						"numberOfBytes": "32"
					}
				}
			},
			"userdoc": {
				"kind": "user",
				"methods": {
					"executeMetaTransaction(address,bytes,bytes32,bytes32,uint8)": {
						"notice": "Main function to be called when user wants to execute meta transaction. The actual function to be called should be passed as param with name functionSignature Here the basic signature recovery is being used. Signature is expected to be generated using personal_sign method."
					}
				},
				"version": 1
			}
		}
	}
}