{
	"relayer/BasicMetaTransaction.sol": {
		"BasicMetaTransaction": {
			"abi": [
				{
					"anonymous": false,
					"inputs": [
						{
							"indexed": false,
							"internalType": "address",
							"name": "userAddress",
							"type": "address"
						},
						{
							"indexed": false,
							"internalType": "address payable",
							"name": "relayerAddress",
							"type": "address"
						},
						{
							"indexed": false,
							"internalType": "bytes",
							"name": "functionSignature",
							"type": "bytes"
						}
					],
					"name": "MetaTransactionExecuted",
					"type": "event"
				},
				{
					"inputs": [
						{
							"internalType": "address",
							"name": "userAddress",
							"type": "address"
						},
						{
							"internalType": "bytes",
							"name": "functionSignature",
							"type": "bytes"
						},
						{
							"internalType": "bytes32",
							"name": "sigR",
							"type": "bytes32"
						},
						{
							"internalType": "bytes32",
							"name": "sigS",
							"type": "bytes32"
						},
						{
							"internalType": "uint8",
							"name": "sigV",
							"type": "uint8"
						}
					],
					"name": "executeMetaTransaction",
					"outputs": [
						{
							"internalType": "bytes",
							"name": "",
							"type": "bytes"
						}
					],
					"stateMutability": "payable",
					"type": "function"
				},
				{
					"inputs": [],
					"name": "getChainID",
					"outputs": [
						{
							"internalType": "uint256",
							"name": "",
							"type": "uint256"
						}
					],
					"stateMutability": "view",
					"type": "function"
				},
				{
					"inputs": [
						{
							"internalType": "address",
							"name": "user",
							"type": "address"
						}
					],
					"name": "getNonce",
					"outputs": [
						{
							"internalType": "uint256",
							"name": "nonce",
							"type": "uint256"
						}
					],
					"stateMutability": "view",
					"type": "function"
				},
				{
					"inputs": [
						{
							"internalType": "address",
							"name": "owner",
							"type": "address"
						},
						{
							"internalType": "uint256",
							"name": "nonce",
							"type": "uint256"
						},
						{
							"internalType": "uint256",
							"name": "chainID",
							"type": "uint256"
						},
						{
							"internalType": "bytes",
							"name": "functionSignature",
							"type": "bytes"
						},
						{
							"internalType": "bytes32",
							"name": "sigR",
							"type": "bytes32"
						},
						{
							"internalType": "bytes32",
							"name": "sigS",
							"type": "bytes32"
						},
						{
							"internalType": "uint8",
							"name": "sigV",
							"type": "uint8"
						}
					],
					"name": "verify",
					"outputs": [
						{
							"internalType": "bool",
							"name": "",
							"type": "bool"
						}
					],
					"stateMutability": "view",
					"type": "function"
				}
			],
			"devdoc": {
				"kind": "dev",
				"methods": {
					"executeMetaTransaction(address,bytes,bytes32,bytes32,uint8)": {
						"params": {
							"functionSignature": "Signature of the actual function to be called via meta transaction",
							"sigR": "R part of the signature",
							"sigS": "S part of the signature",
							"sigV": "V part of the signature",
							"userAddress": "Address of user trying to do meta transaction"
						}
					}
				},
				"version": 1
			},
			"evm": {
				"assembly": "    /* \"relayer/BasicMetaTransaction.sol\":127:3775  contract BasicMetaTransaction {\r... */\n  mstore(0x40, 0x80)\n  callvalue\n  dup1\n  iszero\n  tag_1\n  jumpi\n  0x00\n  dup1\n  revert\ntag_1:\n  pop\n  dataSize(sub_0)\n  dup1\n  dataOffset(sub_0)\n  0x00\n  codecopy\n  0x00\n  return\nstop\n\nsub_0: assembly {\n        /* \"relayer/BasicMetaTransaction.sol\":127:3775  contract BasicMetaTransaction {\r... */\n      mstore(0x40, 0x80)\n      jumpi(tag_1, lt(calldatasize, 0x04))\n      shr(0xe0, calldataload(0x00))\n      dup1\n      0x0c53c51c\n      eq\n      tag_2\n      jumpi\n      dup1\n      0x2d0335ab\n      eq\n      tag_3\n      jumpi\n      dup1\n      0x564b81ef\n      eq\n      tag_4\n      jumpi\n      dup1\n      0x6281133d\n      eq\n      tag_5\n      jumpi\n    tag_1:\n      0x00\n      dup1\n      revert\n        /* \"relayer/BasicMetaTransaction.sol\":1196:2252  function executeMetaTransaction(\r... */\n    tag_2:\n      tag_6\n      0x04\n      dup1\n      calldatasize\n      sub\n      dup2\n      add\n      swap1\n      tag_7\n      swap2\n      swap1\n      tag_8\n      jump\t// in\n    tag_7:\n      tag_9\n      jump\t// in\n    tag_6:\n      mload(0x40)\n      tag_10\n      swap2\n      swap1\n      tag_11\n      jump\t// in\n    tag_10:\n      mload(0x40)\n      dup1\n      swap2\n      sub\n      swap1\n      return\n        /* \"relayer/BasicMetaTransaction.sol\":2260:2369  function getNonce(address user) external view returns (uint256 nonce) {\r... */\n    tag_3:\n      callvalue\n      dup1\n      iszero\n      tag_12\n      jumpi\n      0x00\n      dup1\n      revert\n    tag_12:\n      pop\n      tag_13\n      0x04\n      dup1\n      calldatasize\n      sub\n      dup2\n      add\n      swap1\n      tag_14\n      swap2\n      swap1\n      tag_15\n      jump\t// in\n    tag_14:\n      tag_16\n      jump\t// in\n    tag_13:\n      mload(0x40)\n      tag_17\n      swap2\n      swap1\n      tag_18\n      jump\t// in\n    tag_17:\n      mload(0x40)\n      dup1\n      swap2\n      sub\n      swap1\n      return\n        /* \"relayer/BasicMetaTransaction.sol\":398:559  function getChainID() public view returns (uint256) {\r... */\n    tag_4:\n      callvalue\n      dup1\n      iszero\n      tag_19\n      jumpi\n      0x00\n      dup1\n      revert\n    tag_19:\n      pop\n      tag_20\n      tag_21\n      jump\t// in\n    tag_20:\n      mload(0x40)\n      tag_22\n      swap2\n      swap1\n      tag_18\n      jump\t// in\n    tag_22:\n      mload(0x40)\n      dup1\n      swap2\n      sub\n      swap1\n      return\n        /* \"relayer/BasicMetaTransaction.sol\":2655:3180  function verify(\r... */\n    tag_5:\n      callvalue\n      dup1\n      iszero\n      tag_23\n      jumpi\n      0x00\n      dup1\n      revert\n    tag_23:\n      pop\n      tag_24\n      0x04\n      dup1\n      calldatasize\n      sub\n      dup2\n      add\n      swap1\n      tag_25\n      swap2\n      swap1\n      tag_26\n      jump\t// in\n    tag_25:\n      tag_27\n      jump\t// in\n    tag_24:\n      mload(0x40)\n      tag_28\n      swap2\n      swap1\n      tag_29\n      jump\t// in\n    tag_28:\n      mload(0x40)\n      dup1\n      swap2\n      sub\n      swap1\n      return\n        /* \"relayer/BasicMetaTransaction.sol\":1196:2252  function executeMetaTransaction(\r... */\n    tag_9:\n        /* \"relayer/BasicMetaTransaction.sol\":1397:1409  bytes memory */\n      0x60\n        /* \"relayer/BasicMetaTransaction.sol\":1444:1669  verify(\r... */\n      tag_31\n        /* \"relayer/BasicMetaTransaction.sol\":1469:1480  userAddress */\n      dup7\n        /* \"relayer/BasicMetaTransaction.sol\":1499:1505  nonces */\n      0x00\n        /* \"relayer/BasicMetaTransaction.sol\":1499:1518  nonces[userAddress] */\n      dup1\n        /* \"relayer/BasicMetaTransaction.sol\":1506:1517  userAddress */\n      dup10\n        /* \"relayer/BasicMetaTransaction.sol\":1499:1518  nonces[userAddress] */\n      0xffffffffffffffffffffffffffffffffffffffff\n      and\n      0xffffffffffffffffffffffffffffffffffffffff\n      and\n      dup2\n      mstore\n      0x20\n      add\n      swap1\n      dup2\n      mstore\n      0x20\n      add\n      0x00\n      keccak256\n      sload\n        /* \"relayer/BasicMetaTransaction.sol\":1537:1549  getChainID() */\n      tag_32\n        /* \"relayer/BasicMetaTransaction.sol\":1537:1547  getChainID */\n      tag_21\n        /* \"relayer/BasicMetaTransaction.sol\":1537:1549  getChainID() */\n      jump\t// in\n    tag_32:\n        /* \"relayer/BasicMetaTransaction.sol\":1568:1585  functionSignature */\n      dup9\n        /* \"relayer/BasicMetaTransaction.sol\":1604:1608  sigR */\n      dup9\n        /* \"relayer/BasicMetaTransaction.sol\":1627:1631  sigS */\n      dup9\n        /* \"relayer/BasicMetaTransaction.sol\":1650:1654  sigV */\n      dup9\n        /* \"relayer/BasicMetaTransaction.sol\":1444:1450  verify */\n      tag_27\n        /* \"relayer/BasicMetaTransaction.sol\":1444:1669  verify(\r... */\n      jump\t// in\n    tag_31:\n        /* \"relayer/BasicMetaTransaction.sol\":1422:1730  require(\r... */\n      tag_33\n      jumpi\n      mload(0x40)\n      0x08c379a000000000000000000000000000000000000000000000000000000000\n      dup2\n      mstore\n      0x04\n      add\n      tag_34\n      swap1\n      tag_35\n      jump\t// in\n    tag_34:\n      mload(0x40)\n      dup1\n      swap2\n      sub\n      swap1\n      revert\n    tag_33:\n        /* \"relayer/BasicMetaTransaction.sol\":1763:1789  nonces[userAddress].add(1) */\n      tag_36\n        /* \"relayer/BasicMetaTransaction.sol\":1787:1788  1 */\n      0x01\n        /* \"relayer/BasicMetaTransaction.sol\":1763:1769  nonces */\n      0x00\n        /* \"relayer/BasicMetaTransaction.sol\":1763:1782  nonces[userAddress] */\n      dup1\n        /* \"relayer/BasicMetaTransaction.sol\":1770:1781  userAddress */\n      dup10\n        /* \"relayer/BasicMetaTransaction.sol\":1763:1782  nonces[userAddress] */\n      0xffffffffffffffffffffffffffffffffffffffff\n      and\n      0xffffffffffffffffffffffffffffffffffffffff\n      and\n      dup2\n      mstore\n      0x20\n      add\n      swap1\n      dup2\n      mstore\n      0x20\n      add\n      0x00\n      keccak256\n      sload\n        /* \"relayer/BasicMetaTransaction.sol\":1763:1786  nonces[userAddress].add */\n      tag_37\n      swap1\n        /* \"relayer/BasicMetaTransaction.sol\":1763:1789  nonces[userAddress].add(1) */\n      swap2\n      swap1\n      0xffffffff\n      and\n      jump\t// in\n    tag_36:\n        /* \"relayer/BasicMetaTransaction.sol\":1741:1747  nonces */\n      0x00\n        /* \"relayer/BasicMetaTransaction.sol\":1741:1760  nonces[userAddress] */\n      dup1\n        /* \"relayer/BasicMetaTransaction.sol\":1748:1759  userAddress */\n      dup9\n        /* \"relayer/BasicMetaTransaction.sol\":1741:1760  nonces[userAddress] */\n      0xffffffffffffffffffffffffffffffffffffffff\n      and\n      0xffffffffffffffffffffffffffffffffffffffff\n      and\n      dup2\n      mstore\n      0x20\n      add\n      swap1\n      dup2\n      mstore\n      0x20\n      add\n      0x00\n      keccak256\n        /* \"relayer/BasicMetaTransaction.sol\":1741:1789  nonces[userAddress] = nonces[userAddress].add(1) */\n      dup2\n      swap1\n      sstore\n      pop\n        /* \"relayer/BasicMetaTransaction.sol\":1880:1892  bool success */\n      0x00\n        /* \"relayer/BasicMetaTransaction.sol\":1894:1917  bytes memory returnData */\n      dup1\n        /* \"relayer/BasicMetaTransaction.sol\":1929:1933  this */\n      address\n        /* \"relayer/BasicMetaTransaction.sol\":1921:1939  address(this).call */\n      0xffffffffffffffffffffffffffffffffffffffff\n      and\n        /* \"relayer/BasicMetaTransaction.sol\":1971:1988  functionSignature */\n      dup8\n        /* \"relayer/BasicMetaTransaction.sol\":1990:2001  userAddress */\n      dup10\n        /* \"relayer/BasicMetaTransaction.sol\":1954:2002  abi.encodePacked(functionSignature, userAddress) */\n      add(0x20, mload(0x40))\n      tag_38\n      swap3\n      swap2\n      swap1\n      tag_39\n      jump\t// in\n    tag_38:\n      mload(0x40)\n      0x20\n      dup2\n      dup4\n      sub\n      sub\n      dup2\n      mstore\n      swap1\n      0x40\n      mstore\n        /* \"relayer/BasicMetaTransaction.sol\":1921:2013  address(this).call(\r... */\n      mload(0x40)\n      tag_40\n      swap2\n      swap1\n      tag_41\n      jump\t// in\n    tag_40:\n      0x00\n      mload(0x40)\n      dup1\n      dup4\n      sub\n      dup2\n      0x00\n      dup7\n      gas\n      call\n      swap2\n      pop\n      pop\n      returndatasize\n      dup1\n      0x00\n      dup2\n      eq\n      tag_44\n      jumpi\n      mload(0x40)\n      swap2\n      pop\n      and(add(returndatasize, 0x3f), not(0x1f))\n      dup3\n      add\n      0x40\n      mstore\n      returndatasize\n      dup3\n      mstore\n      returndatasize\n      0x00\n      0x20\n      dup5\n      add\n      returndatacopy\n      jump(tag_43)\n    tag_44:\n      0x60\n      swap2\n      pop\n    tag_43:\n      pop\n        /* \"relayer/BasicMetaTransaction.sol\":1879:2013  (bool success, bytes memory returnData) = address(this).call(\r... */\n      swap2\n      pop\n      swap2\n      pop\n        /* \"relayer/BasicMetaTransaction.sol\":2034:2041  success */\n      dup2\n        /* \"relayer/BasicMetaTransaction.sol\":2026:2074  require(success, \"Function call not successful\") */\n      tag_45\n      jumpi\n      mload(0x40)\n      0x08c379a000000000000000000000000000000000000000000000000000000000\n      dup2\n      mstore\n      0x04\n      add\n      tag_46\n      swap1\n      tag_47\n      jump\t// in\n    tag_46:\n      mload(0x40)\n      dup1\n      swap2\n      sub\n      swap1\n      revert\n    tag_45:\n        /* \"relayer/BasicMetaTransaction.sol\":2090:2216  MetaTransactionExecuted(\r... */\n      0x5845892132946850460bff5a0083f71031bc5bf9aadcd40f1de79423eac9b10b\n        /* \"relayer/BasicMetaTransaction.sol\":2128:2139  userAddress */\n      dup9\n        /* \"relayer/BasicMetaTransaction.sol\":2162:2172  msg.sender */\n      caller\n        /* \"relayer/BasicMetaTransaction.sol\":2188:2205  functionSignature */\n      dup10\n        /* \"relayer/BasicMetaTransaction.sol\":2090:2216  MetaTransactionExecuted(\r... */\n      mload(0x40)\n      tag_48\n      swap4\n      swap3\n      swap2\n      swap1\n      tag_49\n      jump\t// in\n    tag_48:\n      mload(0x40)\n      dup1\n      swap2\n      sub\n      swap1\n      log1\n        /* \"relayer/BasicMetaTransaction.sol\":2234:2244  returnData */\n      dup1\n        /* \"relayer/BasicMetaTransaction.sol\":2227:2244  return returnData */\n      swap3\n      pop\n      pop\n      pop\n        /* \"relayer/BasicMetaTransaction.sol\":1196:2252  function executeMetaTransaction(\r... */\n      swap6\n      swap5\n      pop\n      pop\n      pop\n      pop\n      pop\n      jump\t// out\n        /* \"relayer/BasicMetaTransaction.sol\":2260:2369  function getNonce(address user) external view returns (uint256 nonce) {\r... */\n    tag_16:\n        /* \"relayer/BasicMetaTransaction.sol\":2315:2328  uint256 nonce */\n      0x00\n        /* \"relayer/BasicMetaTransaction.sol\":2349:2355  nonces */\n      dup1\n        /* \"relayer/BasicMetaTransaction.sol\":2349:2361  nonces[user] */\n      0x00\n        /* \"relayer/BasicMetaTransaction.sol\":2356:2360  user */\n      dup4\n        /* \"relayer/BasicMetaTransaction.sol\":2349:2361  nonces[user] */\n      0xffffffffffffffffffffffffffffffffffffffff\n      and\n      0xffffffffffffffffffffffffffffffffffffffff\n      and\n      dup2\n      mstore\n      0x20\n      add\n      swap1\n      dup2\n      mstore\n      0x20\n      add\n      0x00\n      keccak256\n      sload\n        /* \"relayer/BasicMetaTransaction.sol\":2341:2361  nonce = nonces[user] */\n      swap1\n      pop\n        /* \"relayer/BasicMetaTransaction.sol\":2260:2369  function getNonce(address user) external view returns (uint256 nonce) {\r... */\n      swap2\n      swap1\n      pop\n      jump\t// out\n        /* \"relayer/BasicMetaTransaction.sol\":398:559  function getChainID() public view returns (uint256) {\r... */\n    tag_21:\n        /* \"relayer/BasicMetaTransaction.sol\":441:448  uint256 */\n      0x00\n        /* \"relayer/BasicMetaTransaction.sol\":461:471  uint256 id */\n      dup1\n        /* \"relayer/BasicMetaTransaction.sol\":512:521  chainid() */\n      chainid\n        /* \"relayer/BasicMetaTransaction.sol\":506:521  id := chainid() */\n      swap1\n      pop\n        /* \"relayer/BasicMetaTransaction.sol\":549:551  id */\n      dup1\n        /* \"relayer/BasicMetaTransaction.sol\":542:551  return id */\n      swap2\n      pop\n      pop\n        /* \"relayer/BasicMetaTransaction.sol\":398:559  function getChainID() public view returns (uint256) {\r... */\n      swap1\n      jump\t// out\n        /* \"relayer/BasicMetaTransaction.sol\":2655:3180  function verify(\r... */\n    tag_27:\n        /* \"relayer/BasicMetaTransaction.sol\":2881:2885  bool */\n      0x00\n        /* \"relayer/BasicMetaTransaction.sol\":2898:2910  bytes32 hash */\n      dup1\n        /* \"relayer/BasicMetaTransaction.sol\":2913:3015  prefixed(\r... */\n      tag_53\n        /* \"relayer/BasicMetaTransaction.sol\":2963:2968  nonce */\n      dup9\n        /* \"relayer/BasicMetaTransaction.sol\":2970:2974  this */\n      address\n        /* \"relayer/BasicMetaTransaction.sol\":2976:2983  chainID */\n      dup10\n        /* \"relayer/BasicMetaTransaction.sol\":2985:3002  functionSignature */\n      dup10\n        /* \"relayer/BasicMetaTransaction.sol\":2946:3003  abi.encodePacked(nonce, this, chainID, functionSignature) */\n      add(0x20, mload(0x40))\n      tag_54\n      swap5\n      swap4\n      swap3\n      swap2\n      swap1\n      tag_55\n      jump\t// in\n    tag_54:\n      mload(0x40)\n      0x20\n      dup2\n      dup4\n      sub\n      sub\n      dup2\n      mstore\n      swap1\n      0x40\n      mstore\n        /* \"relayer/BasicMetaTransaction.sol\":2936:3004  keccak256(abi.encodePacked(nonce, this, chainID, functionSignature)) */\n      dup1\n      mload\n      swap1\n      0x20\n      add\n      keccak256\n        /* \"relayer/BasicMetaTransaction.sol\":2913:2921  prefixed */\n      tag_56\n        /* \"relayer/BasicMetaTransaction.sol\":2913:3015  prefixed(\r... */\n      jump\t// in\n    tag_53:\n        /* \"relayer/BasicMetaTransaction.sol\":2898:3015  bytes32 hash = prefixed(\r... */\n      swap1\n      pop\n        /* \"relayer/BasicMetaTransaction.sol\":3026:3040  address signer */\n      0x00\n        /* \"relayer/BasicMetaTransaction.sol\":3043:3076  ecrecover(hash, sigV, sigR, sigS) */\n      0x01\n        /* \"relayer/BasicMetaTransaction.sol\":3053:3057  hash */\n      dup3\n        /* \"relayer/BasicMetaTransaction.sol\":3059:3063  sigV */\n      dup6\n        /* \"relayer/BasicMetaTransaction.sol\":3065:3069  sigR */\n      dup9\n        /* \"relayer/BasicMetaTransaction.sol\":3071:3075  sigS */\n      dup9\n        /* \"relayer/BasicMetaTransaction.sol\":3043:3076  ecrecover(hash, sigV, sigR, sigS) */\n      mload(0x40)\n      0x00\n      dup2\n      mstore\n      0x20\n      add\n      0x40\n      mstore\n      mload(0x40)\n      tag_57\n      swap5\n      swap4\n      swap3\n      swap2\n      swap1\n      tag_58\n      jump\t// in\n    tag_57:\n      0x20\n      mload(0x40)\n      0x20\n      dup2\n      sub\n      swap1\n      dup1\n      dup5\n      sub\n      swap1\n      dup6\n      gas\n      staticcall\n      iszero\n      dup1\n      iszero\n      tag_60\n      jumpi\n      returndatasize\n      0x00\n      dup1\n      returndatacopy\n      revert(0x00, returndatasize)\n    tag_60:\n      pop\n      pop\n      pop\n      mload(sub(mload(0x40), 0x20))\n        /* \"relayer/BasicMetaTransaction.sol\":3026:3076  address signer = ecrecover(hash, sigV, sigR, sigS) */\n      swap1\n      pop\n        /* \"relayer/BasicMetaTransaction.sol\":3113:3114  0 */\n      0x00\n        /* \"relayer/BasicMetaTransaction.sol\":3095:3115  signer != address(0) */\n      0xffffffffffffffffffffffffffffffffffffffff\n      and\n        /* \"relayer/BasicMetaTransaction.sol\":3095:3101  signer */\n      dup2\n        /* \"relayer/BasicMetaTransaction.sol\":3095:3115  signer != address(0) */\n      0xffffffffffffffffffffffffffffffffffffffff\n      and\n      eq\n      iszero\n        /* \"relayer/BasicMetaTransaction.sol\":3087:3137  require(signer != address(0), \"Invalid signature\") */\n      tag_61\n      jumpi\n      mload(0x40)\n      0x08c379a000000000000000000000000000000000000000000000000000000000\n      dup2\n      mstore\n      0x04\n      add\n      tag_62\n      swap1\n      tag_63\n      jump\t// in\n    tag_62:\n      mload(0x40)\n      dup1\n      swap2\n      sub\n      swap1\n      revert\n    tag_61:\n        /* \"relayer/BasicMetaTransaction.sol\":3165:3171  signer */\n      dup1\n        /* \"relayer/BasicMetaTransaction.sol\":3156:3171  owner == signer */\n      0xffffffffffffffffffffffffffffffffffffffff\n      and\n        /* \"relayer/BasicMetaTransaction.sol\":3156:3161  owner */\n      dup11\n        /* \"relayer/BasicMetaTransaction.sol\":3156:3171  owner == signer */\n      0xffffffffffffffffffffffffffffffffffffffff\n      and\n      eq\n        /* \"relayer/BasicMetaTransaction.sol\":3148:3172  return (owner == signer) */\n      swap3\n      pop\n      pop\n      pop\n        /* \"relayer/BasicMetaTransaction.sol\":2655:3180  function verify(\r... */\n      swap8\n      swap7\n      pop\n      pop\n      pop\n      pop\n      pop\n      pop\n      pop\n      jump\t// out\n        /* \"@openzeppelin/contracts/utils/math/SafeMath.sol\":2755:2851  function add(uint256 a, uint256 b) internal pure returns (uint256) {... */\n    tag_37:\n        /* \"@openzeppelin/contracts/utils/math/SafeMath.sol\":2813:2820  uint256 */\n      0x00\n        /* \"@openzeppelin/contracts/utils/math/SafeMath.sol\":2843:2844  b */\n      dup2\n        /* \"@openzeppelin/contracts/utils/math/SafeMath.sol\":2839:2840  a */\n      dup4\n        /* \"@openzeppelin/contracts/utils/math/SafeMath.sol\":2839:2844  a + b */\n      tag_65\n      swap2\n      swap1\n      tag_66\n      jump\t// in\n    tag_65:\n        /* \"@openzeppelin/contracts/utils/math/SafeMath.sol\":2832:2844  return a + b */\n      swap1\n      pop\n        /* \"@openzeppelin/contracts/utils/math/SafeMath.sol\":2755:2851  function add(uint256 a, uint256 b) internal pure returns (uint256) {... */\n      swap3\n      swap2\n      pop\n      pop\n      jump\t// out\n        /* \"relayer/BasicMetaTransaction.sol\":2443:2647  function prefixed(bytes32 hash) internal pure returns (bytes32) {\r... */\n    tag_56:\n        /* \"relayer/BasicMetaTransaction.sol\":2498:2505  bytes32 */\n      0x00\n        /* \"relayer/BasicMetaTransaction.sol\":2619:2623  hash */\n      dup2\n        /* \"relayer/BasicMetaTransaction.sol\":2566:2624  abi.encodePacked(\"\\x19Ethereum Signed Message:\\n32\", hash) */\n      add(0x20, mload(0x40))\n      tag_68\n      swap2\n      swap1\n      tag_69\n      jump\t// in\n    tag_68:\n      mload(0x40)\n      0x20\n      dup2\n      dup4\n      sub\n      sub\n      dup2\n      mstore\n      swap1\n      0x40\n      mstore\n        /* \"relayer/BasicMetaTransaction.sol\":2538:2639  keccak256(\r... */\n      dup1\n      mload\n      swap1\n      0x20\n      add\n      keccak256\n        /* \"relayer/BasicMetaTransaction.sol\":2518:2639  return\r... */\n      swap1\n      pop\n        /* \"relayer/BasicMetaTransaction.sol\":2443:2647  function prefixed(bytes32 hash) internal pure returns (bytes32) {\r... */\n      swap2\n      swap1\n      pop\n      jump\t// out\n        /* \"#utility.yul\":7:417   */\n    tag_71:\n        /* \"#utility.yul\":84:89   */\n      0x00\n        /* \"#utility.yul\":109:174   */\n      tag_73\n        /* \"#utility.yul\":125:173   */\n      tag_74\n        /* \"#utility.yul\":166:172   */\n      dup5\n        /* \"#utility.yul\":125:173   */\n      tag_75\n      jump\t// in\n    tag_74:\n        /* \"#utility.yul\":109:174   */\n      tag_76\n      jump\t// in\n    tag_73:\n        /* \"#utility.yul\":100:174   */\n      swap1\n      pop\n        /* \"#utility.yul\":197:203   */\n      dup3\n        /* \"#utility.yul\":190:195   */\n      dup2\n        /* \"#utility.yul\":183:204   */\n      mstore\n        /* \"#utility.yul\":235:239   */\n      0x20\n        /* \"#utility.yul\":228:233   */\n      dup2\n        /* \"#utility.yul\":224:240   */\n      add\n        /* \"#utility.yul\":273:276   */\n      dup5\n        /* \"#utility.yul\":264:270   */\n      dup5\n        /* \"#utility.yul\":259:262   */\n      dup5\n        /* \"#utility.yul\":255:271   */\n      add\n        /* \"#utility.yul\":252:277   */\n      gt\n        /* \"#utility.yul\":249:361   */\n      iszero\n      tag_77\n      jumpi\n        /* \"#utility.yul\":280:359   */\n      tag_78\n      tag_79\n      jump\t// in\n    tag_78:\n        /* \"#utility.yul\":249:361   */\n    tag_77:\n        /* \"#utility.yul\":370:411   */\n      tag_80\n        /* \"#utility.yul\":404:410   */\n      dup5\n        /* \"#utility.yul\":399:402   */\n      dup3\n        /* \"#utility.yul\":394:397   */\n      dup6\n        /* \"#utility.yul\":370:411   */\n      tag_81\n      jump\t// in\n    tag_80:\n        /* \"#utility.yul\":90:417   */\n      pop\n        /* \"#utility.yul\":7:417   */\n      swap4\n      swap3\n      pop\n      pop\n      pop\n      jump\t// out\n        /* \"#utility.yul\":423:562   */\n    tag_82:\n        /* \"#utility.yul\":469:474   */\n      0x00\n        /* \"#utility.yul\":507:513   */\n      dup2\n        /* \"#utility.yul\":494:514   */\n      calldataload\n        /* \"#utility.yul\":485:514   */\n      swap1\n      pop\n        /* \"#utility.yul\":523:556   */\n      tag_84\n        /* \"#utility.yul\":550:555   */\n      dup2\n        /* \"#utility.yul\":523:556   */\n      tag_85\n      jump\t// in\n    tag_84:\n        /* \"#utility.yul\":423:562   */\n      swap3\n      swap2\n      pop\n      pop\n      jump\t// out\n        /* \"#utility.yul\":568:707   */\n    tag_86:\n        /* \"#utility.yul\":614:619   */\n      0x00\n        /* \"#utility.yul\":652:658   */\n      dup2\n        /* \"#utility.yul\":639:659   */\n      calldataload\n        /* \"#utility.yul\":630:659   */\n      swap1\n      pop\n        /* \"#utility.yul\":668:701   */\n      tag_88\n        /* \"#utility.yul\":695:700   */\n      dup2\n        /* \"#utility.yul\":668:701   */\n      tag_89\n      jump\t// in\n    tag_88:\n        /* \"#utility.yul\":568:707   */\n      swap3\n      swap2\n      pop\n      pop\n      jump\t// out\n        /* \"#utility.yul\":726:1064   */\n    tag_90:\n        /* \"#utility.yul\":781:786   */\n      0x00\n        /* \"#utility.yul\":830:833   */\n      dup3\n        /* \"#utility.yul\":823:827   */\n      0x1f\n        /* \"#utility.yul\":815:821   */\n      dup4\n        /* \"#utility.yul\":811:828   */\n      add\n        /* \"#utility.yul\":807:834   */\n      slt\n        /* \"#utility.yul\":797:919   */\n      tag_92\n      jumpi\n        /* \"#utility.yul\":838:917   */\n      tag_93\n      tag_94\n      jump\t// in\n    tag_93:\n        /* \"#utility.yul\":797:919   */\n    tag_92:\n        /* \"#utility.yul\":955:961   */\n      dup2\n        /* \"#utility.yul\":942:962   */\n      calldataload\n        /* \"#utility.yul\":980:1058   */\n      tag_95\n        /* \"#utility.yul\":1054:1057   */\n      dup5\n        /* \"#utility.yul\":1046:1052   */\n      dup3\n        /* \"#utility.yul\":1039:1043   */\n      0x20\n        /* \"#utility.yul\":1031:1037   */\n      dup7\n        /* \"#utility.yul\":1027:1044   */\n      add\n        /* \"#utility.yul\":980:1058   */\n      tag_71\n      jump\t// in\n    tag_95:\n        /* \"#utility.yul\":971:1058   */\n      swap2\n      pop\n        /* \"#utility.yul\":787:1064   */\n      pop\n        /* \"#utility.yul\":726:1064   */\n      swap3\n      swap2\n      pop\n      pop\n      jump\t// out\n        /* \"#utility.yul\":1070:1209   */\n    tag_96:\n        /* \"#utility.yul\":1116:1121   */\n      0x00\n        /* \"#utility.yul\":1154:1160   */\n      dup2\n        /* \"#utility.yul\":1141:1161   */\n      calldataload\n        /* \"#utility.yul\":1132:1161   */\n      swap1\n      pop\n        /* \"#utility.yul\":1170:1203   */\n      tag_98\n        /* \"#utility.yul\":1197:1202   */\n      dup2\n        /* \"#utility.yul\":1170:1203   */\n      tag_99\n      jump\t// in\n    tag_98:\n        /* \"#utility.yul\":1070:1209   */\n      swap3\n      swap2\n      pop\n      pop\n      jump\t// out\n        /* \"#utility.yul\":1215:1350   */\n    tag_100:\n        /* \"#utility.yul\":1259:1264   */\n      0x00\n        /* \"#utility.yul\":1297:1303   */\n      dup2\n        /* \"#utility.yul\":1284:1304   */\n      calldataload\n        /* \"#utility.yul\":1275:1304   */\n      swap1\n      pop\n        /* \"#utility.yul\":1313:1344   */\n      tag_102\n        /* \"#utility.yul\":1338:1343   */\n      dup2\n        /* \"#utility.yul\":1313:1344   */\n      tag_103\n      jump\t// in\n    tag_102:\n        /* \"#utility.yul\":1215:1350   */\n      swap3\n      swap2\n      pop\n      pop\n      jump\t// out\n        /* \"#utility.yul\":1356:1685   */\n    tag_15:\n        /* \"#utility.yul\":1415:1421   */\n      0x00\n        /* \"#utility.yul\":1464:1466   */\n      0x20\n        /* \"#utility.yul\":1452:1461   */\n      dup3\n        /* \"#utility.yul\":1443:1450   */\n      dup5\n        /* \"#utility.yul\":1439:1462   */\n      sub\n        /* \"#utility.yul\":1435:1467   */\n      slt\n        /* \"#utility.yul\":1432:1551   */\n      iszero\n      tag_105\n      jumpi\n        /* \"#utility.yul\":1470:1549   */\n      tag_106\n      tag_107\n      jump\t// in\n    tag_106:\n        /* \"#utility.yul\":1432:1551   */\n    tag_105:\n        /* \"#utility.yul\":1590:1591   */\n      0x00\n        /* \"#utility.yul\":1615:1668   */\n      tag_108\n        /* \"#utility.yul\":1660:1667   */\n      dup5\n        /* \"#utility.yul\":1651:1657   */\n      dup3\n        /* \"#utility.yul\":1640:1649   */\n      dup6\n        /* \"#utility.yul\":1636:1658   */\n      add\n        /* \"#utility.yul\":1615:1668   */\n      tag_82\n      jump\t// in\n    tag_108:\n        /* \"#utility.yul\":1605:1668   */\n      swap2\n      pop\n        /* \"#utility.yul\":1561:1678   */\n      pop\n        /* \"#utility.yul\":1356:1685   */\n      swap3\n      swap2\n      pop\n      pop\n      jump\t// out\n        /* \"#utility.yul\":1691:2776   */\n    tag_8:\n        /* \"#utility.yul\":1793:1799   */\n      0x00\n        /* \"#utility.yul\":1801:1807   */\n      dup1\n        /* \"#utility.yul\":1809:1815   */\n      0x00\n        /* \"#utility.yul\":1817:1823   */\n      dup1\n        /* \"#utility.yul\":1825:1831   */\n      0x00\n        /* \"#utility.yul\":1874:1877   */\n      0xa0\n        /* \"#utility.yul\":1862:1871   */\n      dup7\n        /* \"#utility.yul\":1853:1860   */\n      dup9\n        /* \"#utility.yul\":1849:1872   */\n      sub\n        /* \"#utility.yul\":1845:1878   */\n      slt\n        /* \"#utility.yul\":1842:1962   */\n      iszero\n      tag_110\n      jumpi\n        /* \"#utility.yul\":1881:1960   */\n      tag_111\n      tag_107\n      jump\t// in\n    tag_111:\n        /* \"#utility.yul\":1842:1962   */\n    tag_110:\n        /* \"#utility.yul\":2001:2002   */\n      0x00\n        /* \"#utility.yul\":2026:2079   */\n      tag_112\n        /* \"#utility.yul\":2071:2078   */\n      dup9\n        /* \"#utility.yul\":2062:2068   */\n      dup3\n        /* \"#utility.yul\":2051:2060   */\n      dup10\n        /* \"#utility.yul\":2047:2069   */\n      add\n        /* \"#utility.yul\":2026:2079   */\n      tag_82\n      jump\t// in\n    tag_112:\n        /* \"#utility.yul\":2016:2079   */\n      swap6\n      pop\n        /* \"#utility.yul\":1972:2089   */\n      pop\n        /* \"#utility.yul\":2156:2158   */\n      0x20\n        /* \"#utility.yul\":2145:2154   */\n      dup7\n        /* \"#utility.yul\":2141:2159   */\n      add\n        /* \"#utility.yul\":2128:2160   */\n      calldataload\n        /* \"#utility.yul\":2187:2205   */\n      0xffffffffffffffff\n        /* \"#utility.yul\":2179:2185   */\n      dup2\n        /* \"#utility.yul\":2176:2206   */\n      gt\n        /* \"#utility.yul\":2173:2290   */\n      iszero\n      tag_113\n      jumpi\n        /* \"#utility.yul\":2209:2288   */\n      tag_114\n      tag_115\n      jump\t// in\n    tag_114:\n        /* \"#utility.yul\":2173:2290   */\n    tag_113:\n        /* \"#utility.yul\":2314:2376   */\n      tag_116\n        /* \"#utility.yul\":2368:2375   */\n      dup9\n        /* \"#utility.yul\":2359:2365   */\n      dup3\n        /* \"#utility.yul\":2348:2357   */\n      dup10\n        /* \"#utility.yul\":2344:2366   */\n      add\n        /* \"#utility.yul\":2314:2376   */\n      tag_90\n      jump\t// in\n    tag_116:\n        /* \"#utility.yul\":2304:2376   */\n      swap5\n      pop\n        /* \"#utility.yul\":2099:2386   */\n      pop\n        /* \"#utility.yul\":2425:2427   */\n      0x40\n        /* \"#utility.yul\":2451:2504   */\n      tag_117\n        /* \"#utility.yul\":2496:2503   */\n      dup9\n        /* \"#utility.yul\":2487:2493   */\n      dup3\n        /* \"#utility.yul\":2476:2485   */\n      dup10\n        /* \"#utility.yul\":2472:2494   */\n      add\n        /* \"#utility.yul\":2451:2504   */\n      tag_86\n      jump\t// in\n    tag_117:\n        /* \"#utility.yul\":2441:2504   */\n      swap4\n      pop\n        /* \"#utility.yul\":2396:2514   */\n      pop\n        /* \"#utility.yul\":2553:2555   */\n      0x60\n        /* \"#utility.yul\":2579:2632   */\n      tag_118\n        /* \"#utility.yul\":2624:2631   */\n      dup9\n        /* \"#utility.yul\":2615:2621   */\n      dup3\n        /* \"#utility.yul\":2604:2613   */\n      dup10\n        /* \"#utility.yul\":2600:2622   */\n      add\n        /* \"#utility.yul\":2579:2632   */\n      tag_86\n      jump\t// in\n    tag_118:\n        /* \"#utility.yul\":2569:2632   */\n      swap3\n      pop\n        /* \"#utility.yul\":2524:2642   */\n      pop\n        /* \"#utility.yul\":2681:2684   */\n      0x80\n        /* \"#utility.yul\":2708:2759   */\n      tag_119\n        /* \"#utility.yul\":2751:2758   */\n      dup9\n        /* \"#utility.yul\":2742:2748   */\n      dup3\n        /* \"#utility.yul\":2731:2740   */\n      dup10\n        /* \"#utility.yul\":2727:2749   */\n      add\n        /* \"#utility.yul\":2708:2759   */\n      tag_100\n      jump\t// in\n    tag_119:\n        /* \"#utility.yul\":2698:2759   */\n      swap2\n      pop\n        /* \"#utility.yul\":2652:2769   */\n      pop\n        /* \"#utility.yul\":1691:2776   */\n      swap3\n      swap6\n      pop\n      swap3\n      swap6\n      swap1\n      swap4\n      pop\n      jump\t// out\n        /* \"#utility.yul\":2782:4159   */\n    tag_26:\n        /* \"#utility.yul\":2902:2908   */\n      0x00\n        /* \"#utility.yul\":2910:2916   */\n      dup1\n        /* \"#utility.yul\":2918:2924   */\n      0x00\n        /* \"#utility.yul\":2926:2932   */\n      dup1\n        /* \"#utility.yul\":2934:2940   */\n      0x00\n        /* \"#utility.yul\":2942:2948   */\n      dup1\n        /* \"#utility.yul\":2950:2956   */\n      0x00\n        /* \"#utility.yul\":2999:3002   */\n      0xe0\n        /* \"#utility.yul\":2987:2996   */\n      dup9\n        /* \"#utility.yul\":2978:2985   */\n      dup11\n        /* \"#utility.yul\":2974:2997   */\n      sub\n        /* \"#utility.yul\":2970:3003   */\n      slt\n        /* \"#utility.yul\":2967:3087   */\n      iszero\n      tag_121\n      jumpi\n        /* \"#utility.yul\":3006:3085   */\n      tag_122\n      tag_107\n      jump\t// in\n    tag_122:\n        /* \"#utility.yul\":2967:3087   */\n    tag_121:\n        /* \"#utility.yul\":3126:3127   */\n      0x00\n        /* \"#utility.yul\":3151:3204   */\n      tag_123\n        /* \"#utility.yul\":3196:3203   */\n      dup11\n        /* \"#utility.yul\":3187:3193   */\n      dup3\n        /* \"#utility.yul\":3176:3185   */\n      dup12\n        /* \"#utility.yul\":3172:3194   */\n      add\n        /* \"#utility.yul\":3151:3204   */\n      tag_82\n      jump\t// in\n    tag_123:\n        /* \"#utility.yul\":3141:3204   */\n      swap8\n      pop\n        /* \"#utility.yul\":3097:3214   */\n      pop\n        /* \"#utility.yul\":3253:3255   */\n      0x20\n        /* \"#utility.yul\":3279:3332   */\n      tag_124\n        /* \"#utility.yul\":3324:3331   */\n      dup11\n        /* \"#utility.yul\":3315:3321   */\n      dup3\n        /* \"#utility.yul\":3304:3313   */\n      dup12\n        /* \"#utility.yul\":3300:3322   */\n      add\n        /* \"#utility.yul\":3279:3332   */\n      tag_96\n      jump\t// in\n    tag_124:\n        /* \"#utility.yul\":3269:3332   */\n      swap7\n      pop\n        /* \"#utility.yul\":3224:3342   */\n      pop\n        /* \"#utility.yul\":3381:3383   */\n      0x40\n        /* \"#utility.yul\":3407:3460   */\n      tag_125\n        /* \"#utility.yul\":3452:3459   */\n      dup11\n        /* \"#utility.yul\":3443:3449   */\n      dup3\n        /* \"#utility.yul\":3432:3441   */\n      dup12\n        /* \"#utility.yul\":3428:3450   */\n      add\n        /* \"#utility.yul\":3407:3460   */\n      tag_96\n      jump\t// in\n    tag_125:\n        /* \"#utility.yul\":3397:3460   */\n      swap6\n      pop\n        /* \"#utility.yul\":3352:3470   */\n      pop\n        /* \"#utility.yul\":3537:3539   */\n      0x60\n        /* \"#utility.yul\":3526:3535   */\n      dup9\n        /* \"#utility.yul\":3522:3540   */\n      add\n        /* \"#utility.yul\":3509:3541   */\n      calldataload\n        /* \"#utility.yul\":3568:3586   */\n      0xffffffffffffffff\n        /* \"#utility.yul\":3560:3566   */\n      dup2\n        /* \"#utility.yul\":3557:3587   */\n      gt\n        /* \"#utility.yul\":3554:3671   */\n      iszero\n      tag_126\n      jumpi\n        /* \"#utility.yul\":3590:3669   */\n      tag_127\n      tag_115\n      jump\t// in\n    tag_127:\n        /* \"#utility.yul\":3554:3671   */\n    tag_126:\n        /* \"#utility.yul\":3695:3757   */\n      tag_128\n        /* \"#utility.yul\":3749:3756   */\n      dup11\n        /* \"#utility.yul\":3740:3746   */\n      dup3\n        /* \"#utility.yul\":3729:3738   */\n      dup12\n        /* \"#utility.yul\":3725:3747   */\n      add\n        /* \"#utility.yul\":3695:3757   */\n      tag_90\n      jump\t// in\n    tag_128:\n        /* \"#utility.yul\":3685:3757   */\n      swap5\n      pop\n        /* \"#utility.yul\":3480:3767   */\n      pop\n        /* \"#utility.yul\":3806:3809   */\n      0x80\n        /* \"#utility.yul\":3833:3886   */\n      tag_129\n        /* \"#utility.yul\":3878:3885   */\n      dup11\n        /* \"#utility.yul\":3869:3875   */\n      dup3\n        /* \"#utility.yul\":3858:3867   */\n      dup12\n        /* \"#utility.yul\":3854:3876   */\n      add\n        /* \"#utility.yul\":3833:3886   */\n      tag_86\n      jump\t// in\n    tag_129:\n        /* \"#utility.yul\":3823:3886   */\n      swap4\n      pop\n        /* \"#utility.yul\":3777:3896   */\n      pop\n        /* \"#utility.yul\":3935:3938   */\n      0xa0\n        /* \"#utility.yul\":3962:4015   */\n      tag_130\n        /* \"#utility.yul\":4007:4014   */\n      dup11\n        /* \"#utility.yul\":3998:4004   */\n      dup3\n        /* \"#utility.yul\":3987:3996   */\n      dup12\n        /* \"#utility.yul\":3983:4005   */\n      add\n        /* \"#utility.yul\":3962:4015   */\n      tag_86\n      jump\t// in\n    tag_130:\n        /* \"#utility.yul\":3952:4015   */\n      swap3\n      pop\n        /* \"#utility.yul\":3906:4025   */\n      pop\n        /* \"#utility.yul\":4064:4067   */\n      0xc0\n        /* \"#utility.yul\":4091:4142   */\n      tag_131\n        /* \"#utility.yul\":4134:4141   */\n      dup11\n        /* \"#utility.yul\":4125:4131   */\n      dup3\n        /* \"#utility.yul\":4114:4123   */\n      dup12\n        /* \"#utility.yul\":4110:4132   */\n      add\n        /* \"#utility.yul\":4091:4142   */\n      tag_100\n      jump\t// in\n    tag_131:\n        /* \"#utility.yul\":4081:4142   */\n      swap2\n      pop\n        /* \"#utility.yul\":4035:4152   */\n      pop\n        /* \"#utility.yul\":2782:4159   */\n      swap3\n      swap6\n      swap9\n      swap2\n      swap5\n      swap8\n      pop\n      swap3\n      swap6\n      pop\n      jump\t// out\n        /* \"#utility.yul\":4165:4307   */\n    tag_132:\n        /* \"#utility.yul\":4268:4300   */\n      tag_134\n        /* \"#utility.yul\":4294:4299   */\n      dup2\n        /* \"#utility.yul\":4268:4300   */\n      tag_135\n      jump\t// in\n    tag_134:\n        /* \"#utility.yul\":4263:4266   */\n      dup3\n        /* \"#utility.yul\":4256:4301   */\n      mstore\n        /* \"#utility.yul\":4165:4307   */\n      pop\n      pop\n      jump\t// out\n        /* \"#utility.yul\":4313:4431   */\n    tag_136:\n        /* \"#utility.yul\":4400:4424   */\n      tag_138\n        /* \"#utility.yul\":4418:4423   */\n      dup2\n        /* \"#utility.yul\":4400:4424   */\n      tag_139\n      jump\t// in\n    tag_138:\n        /* \"#utility.yul\":4395:4398   */\n      dup3\n        /* \"#utility.yul\":4388:4425   */\n      mstore\n        /* \"#utility.yul\":4313:4431   */\n      pop\n      pop\n      jump\t// out\n        /* \"#utility.yul\":4437:4594   */\n    tag_140:\n        /* \"#utility.yul\":4542:4587   */\n      tag_142\n        /* \"#utility.yul\":4562:4586   */\n      tag_143\n        /* \"#utility.yul\":4580:4585   */\n      dup3\n        /* \"#utility.yul\":4562:4586   */\n      tag_139\n      jump\t// in\n    tag_143:\n        /* \"#utility.yul\":4542:4587   */\n      tag_144\n      jump\t// in\n    tag_142:\n        /* \"#utility.yul\":4537:4540   */\n      dup3\n        /* \"#utility.yul\":4530:4588   */\n      mstore\n        /* \"#utility.yul\":4437:4594   */\n      pop\n      pop\n      jump\t// out\n        /* \"#utility.yul\":4600:4709   */\n    tag_145:\n        /* \"#utility.yul\":4681:4702   */\n      tag_147\n        /* \"#utility.yul\":4696:4701   */\n      dup2\n        /* \"#utility.yul\":4681:4702   */\n      tag_148\n      jump\t// in\n    tag_147:\n        /* \"#utility.yul\":4676:4679   */\n      dup3\n        /* \"#utility.yul\":4669:4703   */\n      mstore\n        /* \"#utility.yul\":4600:4709   */\n      pop\n      pop\n      jump\t// out\n        /* \"#utility.yul\":4715:4833   */\n    tag_149:\n        /* \"#utility.yul\":4802:4826   */\n      tag_151\n        /* \"#utility.yul\":4820:4825   */\n      dup2\n        /* \"#utility.yul\":4802:4826   */\n      tag_152\n      jump\t// in\n    tag_151:\n        /* \"#utility.yul\":4797:4800   */\n      dup3\n        /* \"#utility.yul\":4790:4827   */\n      mstore\n        /* \"#utility.yul\":4715:4833   */\n      pop\n      pop\n      jump\t// out\n        /* \"#utility.yul\":4839:4996   */\n    tag_153:\n        /* \"#utility.yul\":4944:4989   */\n      tag_155\n        /* \"#utility.yul\":4964:4988   */\n      tag_156\n        /* \"#utility.yul\":4982:4987   */\n      dup3\n        /* \"#utility.yul\":4964:4988   */\n      tag_152\n      jump\t// in\n    tag_156:\n        /* \"#utility.yul\":4944:4989   */\n      tag_157\n      jump\t// in\n    tag_155:\n        /* \"#utility.yul\":4939:4942   */\n      dup3\n        /* \"#utility.yul\":4932:4990   */\n      mstore\n        /* \"#utility.yul\":4839:4996   */\n      pop\n      pop\n      jump\t// out\n        /* \"#utility.yul\":5002:5362   */\n    tag_158:\n        /* \"#utility.yul\":5088:5091   */\n      0x00\n        /* \"#utility.yul\":5116:5154   */\n      tag_160\n        /* \"#utility.yul\":5148:5153   */\n      dup3\n        /* \"#utility.yul\":5116:5154   */\n      tag_161\n      jump\t// in\n    tag_160:\n        /* \"#utility.yul\":5170:5240   */\n      tag_162\n        /* \"#utility.yul\":5233:5239   */\n      dup2\n        /* \"#utility.yul\":5228:5231   */\n      dup6\n        /* \"#utility.yul\":5170:5240   */\n      tag_163\n      jump\t// in\n    tag_162:\n        /* \"#utility.yul\":5163:5240   */\n      swap4\n      pop\n        /* \"#utility.yul\":5249:5301   */\n      tag_164\n        /* \"#utility.yul\":5294:5300   */\n      dup2\n        /* \"#utility.yul\":5289:5292   */\n      dup6\n        /* \"#utility.yul\":5282:5286   */\n      0x20\n        /* \"#utility.yul\":5275:5280   */\n      dup7\n        /* \"#utility.yul\":5271:5287   */\n      add\n        /* \"#utility.yul\":5249:5301   */\n      tag_165\n      jump\t// in\n    tag_164:\n        /* \"#utility.yul\":5326:5355   */\n      tag_166\n        /* \"#utility.yul\":5348:5354   */\n      dup2\n        /* \"#utility.yul\":5326:5355   */\n      tag_167\n      jump\t// in\n    tag_166:\n        /* \"#utility.yul\":5321:5324   */\n      dup5\n        /* \"#utility.yul\":5317:5356   */\n      add\n        /* \"#utility.yul\":5310:5356   */\n      swap2\n      pop\n        /* \"#utility.yul\":5092:5362   */\n      pop\n        /* \"#utility.yul\":5002:5362   */\n      swap3\n      swap2\n      pop\n      pop\n      jump\t// out\n        /* \"#utility.yul\":5368:5741   */\n    tag_168:\n        /* \"#utility.yul\":5472:5475   */\n      0x00\n        /* \"#utility.yul\":5500:5538   */\n      tag_170\n        /* \"#utility.yul\":5532:5537   */\n      dup3\n        /* \"#utility.yul\":5500:5538   */\n      tag_161\n      jump\t// in\n    tag_170:\n        /* \"#utility.yul\":5554:5642   */\n      tag_171\n        /* \"#utility.yul\":5635:5641   */\n      dup2\n        /* \"#utility.yul\":5630:5633   */\n      dup6\n        /* \"#utility.yul\":5554:5642   */\n      tag_172\n      jump\t// in\n    tag_171:\n        /* \"#utility.yul\":5547:5642   */\n      swap4\n      pop\n        /* \"#utility.yul\":5651:5703   */\n      tag_173\n        /* \"#utility.yul\":5696:5702   */\n      dup2\n        /* \"#utility.yul\":5691:5694   */\n      dup6\n        /* \"#utility.yul\":5684:5688   */\n      0x20\n        /* \"#utility.yul\":5677:5682   */\n      dup7\n        /* \"#utility.yul\":5673:5689   */\n      add\n        /* \"#utility.yul\":5651:5703   */\n      tag_165\n      jump\t// in\n    tag_173:\n        /* \"#utility.yul\":5728:5734   */\n      dup1\n        /* \"#utility.yul\":5723:5726   */\n      dup5\n        /* \"#utility.yul\":5719:5735   */\n      add\n        /* \"#utility.yul\":5712:5735   */\n      swap2\n      pop\n        /* \"#utility.yul\":5476:5741   */\n      pop\n        /* \"#utility.yul\":5368:5741   */\n      swap3\n      swap2\n      pop\n      pop\n      jump\t// out\n        /* \"#utility.yul\":5747:5973   */\n    tag_174:\n        /* \"#utility.yul\":5880:5966   */\n      tag_176\n        /* \"#utility.yul\":5900:5965   */\n      tag_177\n        /* \"#utility.yul\":5959:5964   */\n      dup3\n        /* \"#utility.yul\":5900:5965   */\n      tag_178\n      jump\t// in\n    tag_177:\n        /* \"#utility.yul\":5880:5966   */\n      tag_144\n      jump\t// in\n    tag_176:\n        /* \"#utility.yul\":5875:5878   */\n      dup3\n        /* \"#utility.yul\":5868:5967   */\n      mstore\n        /* \"#utility.yul\":5747:5973   */\n      pop\n      pop\n      jump\t// out\n        /* \"#utility.yul\":5979:6381   */\n    tag_179:\n        /* \"#utility.yul\":6139:6142   */\n      0x00\n        /* \"#utility.yul\":6160:6245   */\n      tag_181\n        /* \"#utility.yul\":6242:6244   */\n      0x1c\n        /* \"#utility.yul\":6237:6240   */\n      dup4\n        /* \"#utility.yul\":6160:6245   */\n      tag_182\n      jump\t// in\n    tag_181:\n        /* \"#utility.yul\":6153:6245   */\n      swap2\n      pop\n        /* \"#utility.yul\":6254:6347   */\n      tag_183\n        /* \"#utility.yul\":6343:6346   */\n      dup3\n        /* \"#utility.yul\":6254:6347   */\n      tag_184\n      jump\t// in\n    tag_183:\n        /* \"#utility.yul\":6372:6374   */\n      0x1c\n        /* \"#utility.yul\":6367:6370   */\n      dup3\n        /* \"#utility.yul\":6363:6375   */\n      add\n        /* \"#utility.yul\":6356:6375   */\n      swap1\n      pop\n        /* \"#utility.yul\":5979:6381   */\n      swap2\n      swap1\n      pop\n      jump\t// out\n        /* \"#utility.yul\":6387:6753   */\n    tag_185:\n        /* \"#utility.yul\":6529:6532   */\n      0x00\n        /* \"#utility.yul\":6550:6617   */\n      tag_187\n        /* \"#utility.yul\":6614:6616   */\n      0x1c\n        /* \"#utility.yul\":6609:6612   */\n      dup4\n        /* \"#utility.yul\":6550:6617   */\n      tag_188\n      jump\t// in\n    tag_187:\n        /* \"#utility.yul\":6543:6617   */\n      swap2\n      pop\n        /* \"#utility.yul\":6626:6719   */\n      tag_189\n        /* \"#utility.yul\":6715:6718   */\n      dup3\n        /* \"#utility.yul\":6626:6719   */\n      tag_190\n      jump\t// in\n    tag_189:\n        /* \"#utility.yul\":6744:6746   */\n      0x20\n        /* \"#utility.yul\":6739:6742   */\n      dup3\n        /* \"#utility.yul\":6735:6747   */\n      add\n        /* \"#utility.yul\":6728:6747   */\n      swap1\n      pop\n        /* \"#utility.yul\":6387:6753   */\n      swap2\n      swap1\n      pop\n      jump\t// out\n        /* \"#utility.yul\":6759:7125   */\n    tag_191:\n        /* \"#utility.yul\":6901:6904   */\n      0x00\n        /* \"#utility.yul\":6922:6989   */\n      tag_193\n        /* \"#utility.yul\":6986:6988   */\n      0x11\n        /* \"#utility.yul\":6981:6984   */\n      dup4\n        /* \"#utility.yul\":6922:6989   */\n      tag_188\n      jump\t// in\n    tag_193:\n        /* \"#utility.yul\":6915:6989   */\n      swap2\n      pop\n        /* \"#utility.yul\":6998:7091   */\n      tag_194\n        /* \"#utility.yul\":7087:7090   */\n      dup3\n        /* \"#utility.yul\":6998:7091   */\n      tag_195\n      jump\t// in\n    tag_194:\n        /* \"#utility.yul\":7116:7118   */\n      0x20\n        /* \"#utility.yul\":7111:7114   */\n      dup3\n        /* \"#utility.yul\":7107:7119   */\n      add\n        /* \"#utility.yul\":7100:7119   */\n      swap1\n      pop\n        /* \"#utility.yul\":6759:7125   */\n      swap2\n      swap1\n      pop\n      jump\t// out\n        /* \"#utility.yul\":7131:7497   */\n    tag_196:\n        /* \"#utility.yul\":7273:7276   */\n      0x00\n        /* \"#utility.yul\":7294:7361   */\n      tag_198\n        /* \"#utility.yul\":7358:7360   */\n      0x21\n        /* \"#utility.yul\":7353:7356   */\n      dup4\n        /* \"#utility.yul\":7294:7361   */\n      tag_188\n      jump\t// in\n    tag_198:\n        /* \"#utility.yul\":7287:7361   */\n      swap2\n      pop\n        /* \"#utility.yul\":7370:7463   */\n      tag_199\n        /* \"#utility.yul\":7459:7462   */\n      dup3\n        /* \"#utility.yul\":7370:7463   */\n      tag_200\n      jump\t// in\n    tag_199:\n        /* \"#utility.yul\":7488:7490   */\n      0x40\n        /* \"#utility.yul\":7483:7486   */\n      dup3\n        /* \"#utility.yul\":7479:7491   */\n      add\n        /* \"#utility.yul\":7472:7491   */\n      swap1\n      pop\n        /* \"#utility.yul\":7131:7497   */\n      swap2\n      swap1\n      pop\n      jump\t// out\n        /* \"#utility.yul\":7503:7621   */\n    tag_201:\n        /* \"#utility.yul\":7590:7614   */\n      tag_203\n        /* \"#utility.yul\":7608:7613   */\n      dup2\n        /* \"#utility.yul\":7590:7614   */\n      tag_204\n      jump\t// in\n    tag_203:\n        /* \"#utility.yul\":7585:7588   */\n      dup3\n        /* \"#utility.yul\":7578:7615   */\n      mstore\n        /* \"#utility.yul\":7503:7621   */\n      pop\n      pop\n      jump\t// out\n        /* \"#utility.yul\":7627:7784   */\n    tag_205:\n        /* \"#utility.yul\":7732:7777   */\n      tag_207\n        /* \"#utility.yul\":7752:7776   */\n      tag_208\n        /* \"#utility.yul\":7770:7775   */\n      dup3\n        /* \"#utility.yul\":7752:7776   */\n      tag_204\n      jump\t// in\n    tag_208:\n        /* \"#utility.yul\":7732:7777   */\n      tag_209\n      jump\t// in\n    tag_207:\n        /* \"#utility.yul\":7727:7730   */\n      dup3\n        /* \"#utility.yul\":7720:7778   */\n      mstore\n        /* \"#utility.yul\":7627:7784   */\n      pop\n      pop\n      jump\t// out\n        /* \"#utility.yul\":7790:7902   */\n    tag_210:\n        /* \"#utility.yul\":7873:7895   */\n      tag_212\n        /* \"#utility.yul\":7889:7894   */\n      dup2\n        /* \"#utility.yul\":7873:7895   */\n      tag_213\n      jump\t// in\n    tag_212:\n        /* \"#utility.yul\":7868:7871   */\n      dup3\n        /* \"#utility.yul\":7861:7896   */\n      mstore\n        /* \"#utility.yul\":7790:7902   */\n      pop\n      pop\n      jump\t// out\n        /* \"#utility.yul\":7908:8179   */\n    tag_41:\n        /* \"#utility.yul\":8038:8041   */\n      0x00\n        /* \"#utility.yul\":8060:8153   */\n      tag_215\n        /* \"#utility.yul\":8149:8152   */\n      dup3\n        /* \"#utility.yul\":8140:8146   */\n      dup5\n        /* \"#utility.yul\":8060:8153   */\n      tag_168\n      jump\t// in\n    tag_215:\n        /* \"#utility.yul\":8053:8153   */\n      swap2\n      pop\n        /* \"#utility.yul\":8170:8173   */\n      dup2\n        /* \"#utility.yul\":8163:8173   */\n      swap1\n      pop\n        /* \"#utility.yul\":7908:8179   */\n      swap3\n      swap2\n      pop\n      pop\n      jump\t// out\n        /* \"#utility.yul\":8185:8597   */\n    tag_39:\n        /* \"#utility.yul\":8343:8346   */\n      0x00\n        /* \"#utility.yul\":8365:8458   */\n      tag_217\n        /* \"#utility.yul\":8454:8457   */\n      dup3\n        /* \"#utility.yul\":8445:8451   */\n      dup6\n        /* \"#utility.yul\":8365:8458   */\n      tag_168\n      jump\t// in\n    tag_217:\n        /* \"#utility.yul\":8358:8458   */\n      swap2\n      pop\n        /* \"#utility.yul\":8468:8543   */\n      tag_218\n        /* \"#utility.yul\":8539:8542   */\n      dup3\n        /* \"#utility.yul\":8530:8536   */\n      dup5\n        /* \"#utility.yul\":8468:8543   */\n      tag_140\n      jump\t// in\n    tag_218:\n        /* \"#utility.yul\":8568:8570   */\n      0x14\n        /* \"#utility.yul\":8563:8566   */\n      dup3\n        /* \"#utility.yul\":8559:8571   */\n      add\n        /* \"#utility.yul\":8552:8571   */\n      swap2\n      pop\n        /* \"#utility.yul\":8588:8591   */\n      dup2\n        /* \"#utility.yul\":8581:8591   */\n      swap1\n      pop\n        /* \"#utility.yul\":8185:8597   */\n      swap4\n      swap3\n      pop\n      pop\n      pop\n      jump\t// out\n        /* \"#utility.yul\":8603:9125   */\n    tag_69:\n        /* \"#utility.yul\":8816:8819   */\n      0x00\n        /* \"#utility.yul\":8838:8986   */\n      tag_220\n        /* \"#utility.yul\":8982:8985   */\n      dup3\n        /* \"#utility.yul\":8838:8986   */\n      tag_179\n      jump\t// in\n    tag_220:\n        /* \"#utility.yul\":8831:8986   */\n      swap2\n      pop\n        /* \"#utility.yul\":8996:9071   */\n      tag_221\n        /* \"#utility.yul\":9067:9070   */\n      dup3\n        /* \"#utility.yul\":9058:9064   */\n      dup5\n        /* \"#utility.yul\":8996:9071   */\n      tag_153\n      jump\t// in\n    tag_221:\n        /* \"#utility.yul\":9096:9098   */\n      0x20\n        /* \"#utility.yul\":9091:9094   */\n      dup3\n        /* \"#utility.yul\":9087:9099   */\n      add\n        /* \"#utility.yul\":9080:9099   */\n      swap2\n      pop\n        /* \"#utility.yul\":9116:9119   */\n      dup2\n        /* \"#utility.yul\":9109:9119   */\n      swap1\n      pop\n        /* \"#utility.yul\":8603:9125   */\n      swap3\n      swap2\n      pop\n      pop\n      jump\t// out\n        /* \"#utility.yul\":9131:9881   */\n    tag_55:\n        /* \"#utility.yul\":9373:9376   */\n      0x00\n        /* \"#utility.yul\":9388:9463   */\n      tag_223\n        /* \"#utility.yul\":9459:9462   */\n      dup3\n        /* \"#utility.yul\":9450:9456   */\n      dup8\n        /* \"#utility.yul\":9388:9463   */\n      tag_205\n      jump\t// in\n    tag_223:\n        /* \"#utility.yul\":9488:9490   */\n      0x20\n        /* \"#utility.yul\":9483:9486   */\n      dup3\n        /* \"#utility.yul\":9479:9491   */\n      add\n        /* \"#utility.yul\":9472:9491   */\n      swap2\n      pop\n        /* \"#utility.yul\":9501:9604   */\n      tag_224\n        /* \"#utility.yul\":9600:9603   */\n      dup3\n        /* \"#utility.yul\":9591:9597   */\n      dup7\n        /* \"#utility.yul\":9501:9604   */\n      tag_174\n      jump\t// in\n    tag_224:\n        /* \"#utility.yul\":9629:9631   */\n      0x14\n        /* \"#utility.yul\":9624:9627   */\n      dup3\n        /* \"#utility.yul\":9620:9632   */\n      add\n        /* \"#utility.yul\":9613:9632   */\n      swap2\n      pop\n        /* \"#utility.yul\":9642:9717   */\n      tag_225\n        /* \"#utility.yul\":9713:9716   */\n      dup3\n        /* \"#utility.yul\":9704:9710   */\n      dup6\n        /* \"#utility.yul\":9642:9717   */\n      tag_205\n      jump\t// in\n    tag_225:\n        /* \"#utility.yul\":9742:9744   */\n      0x20\n        /* \"#utility.yul\":9737:9740   */\n      dup3\n        /* \"#utility.yul\":9733:9745   */\n      add\n        /* \"#utility.yul\":9726:9745   */\n      swap2\n      pop\n        /* \"#utility.yul\":9762:9855   */\n      tag_226\n        /* \"#utility.yul\":9851:9854   */\n      dup3\n        /* \"#utility.yul\":9842:9848   */\n      dup5\n        /* \"#utility.yul\":9762:9855   */\n      tag_168\n      jump\t// in\n    tag_226:\n        /* \"#utility.yul\":9755:9855   */\n      swap2\n      pop\n        /* \"#utility.yul\":9872:9875   */\n      dup2\n        /* \"#utility.yul\":9865:9875   */\n      swap1\n      pop\n        /* \"#utility.yul\":9131:9881   */\n      swap6\n      swap5\n      pop\n      pop\n      pop\n      pop\n      pop\n      jump\t// out\n        /* \"#utility.yul\":9887:10448   */\n    tag_49:\n        /* \"#utility.yul\":10070:10074   */\n      0x00\n        /* \"#utility.yul\":10108:10110   */\n      0x60\n        /* \"#utility.yul\":10097:10106   */\n      dup3\n        /* \"#utility.yul\":10093:10111   */\n      add\n        /* \"#utility.yul\":10085:10111   */\n      swap1\n      pop\n        /* \"#utility.yul\":10121:10192   */\n      tag_228\n        /* \"#utility.yul\":10189:10190   */\n      0x00\n        /* \"#utility.yul\":10178:10187   */\n      dup4\n        /* \"#utility.yul\":10174:10191   */\n      add\n        /* \"#utility.yul\":10165:10171   */\n      dup7\n        /* \"#utility.yul\":10121:10192   */\n      tag_136\n      jump\t// in\n    tag_228:\n        /* \"#utility.yul\":10202:10290   */\n      tag_229\n        /* \"#utility.yul\":10286:10288   */\n      0x20\n        /* \"#utility.yul\":10275:10284   */\n      dup4\n        /* \"#utility.yul\":10271:10289   */\n      add\n        /* \"#utility.yul\":10262:10268   */\n      dup6\n        /* \"#utility.yul\":10202:10290   */\n      tag_132\n      jump\t// in\n    tag_229:\n        /* \"#utility.yul\":10337:10346   */\n      dup2\n        /* \"#utility.yul\":10331:10335   */\n      dup2\n        /* \"#utility.yul\":10327:10347   */\n      sub\n        /* \"#utility.yul\":10322:10324   */\n      0x40\n        /* \"#utility.yul\":10311:10320   */\n      dup4\n        /* \"#utility.yul\":10307:10325   */\n      add\n        /* \"#utility.yul\":10300:10348   */\n      mstore\n        /* \"#utility.yul\":10365:10441   */\n      tag_230\n        /* \"#utility.yul\":10436:10440   */\n      dup2\n        /* \"#utility.yul\":10427:10433   */\n      dup5\n        /* \"#utility.yul\":10365:10441   */\n      tag_158\n      jump\t// in\n    tag_230:\n        /* \"#utility.yul\":10357:10441   */\n      swap1\n      pop\n        /* \"#utility.yul\":9887:10448   */\n      swap5\n      swap4\n      pop\n      pop\n      pop\n      pop\n      jump\t// out\n        /* \"#utility.yul\":10454:10664   */\n    tag_29:\n        /* \"#utility.yul\":10541:10545   */\n      0x00\n        /* \"#utility.yul\":10579:10581   */\n      0x20\n        /* \"#utility.yul\":10568:10577   */\n      dup3\n        /* \"#utility.yul\":10564:10582   */\n      add\n        /* \"#utility.yul\":10556:10582   */\n      swap1\n      pop\n        /* \"#utility.yul\":10592:10657   */\n      tag_232\n        /* \"#utility.yul\":10654:10655   */\n      0x00\n        /* \"#utility.yul\":10643:10652   */\n      dup4\n        /* \"#utility.yul\":10639:10656   */\n      add\n        /* \"#utility.yul\":10630:10636   */\n      dup5\n        /* \"#utility.yul\":10592:10657   */\n      tag_145\n      jump\t// in\n    tag_232:\n        /* \"#utility.yul\":10454:10664   */\n      swap3\n      swap2\n      pop\n      pop\n      jump\t// out\n        /* \"#utility.yul\":10670:11215   */\n    tag_58:\n        /* \"#utility.yul\":10843:10847   */\n      0x00\n        /* \"#utility.yul\":10881:10884   */\n      0x80\n        /* \"#utility.yul\":10870:10879   */\n      dup3\n        /* \"#utility.yul\":10866:10885   */\n      add\n        /* \"#utility.yul\":10858:10885   */\n      swap1\n      pop\n        /* \"#utility.yul\":10895:10966   */\n      tag_234\n        /* \"#utility.yul\":10963:10964   */\n      0x00\n        /* \"#utility.yul\":10952:10961   */\n      dup4\n        /* \"#utility.yul\":10948:10965   */\n      add\n        /* \"#utility.yul\":10939:10945   */\n      dup8\n        /* \"#utility.yul\":10895:10966   */\n      tag_149\n      jump\t// in\n    tag_234:\n        /* \"#utility.yul\":10976:11044   */\n      tag_235\n        /* \"#utility.yul\":11040:11042   */\n      0x20\n        /* \"#utility.yul\":11029:11038   */\n      dup4\n        /* \"#utility.yul\":11025:11043   */\n      add\n        /* \"#utility.yul\":11016:11022   */\n      dup7\n        /* \"#utility.yul\":10976:11044   */\n      tag_210\n      jump\t// in\n    tag_235:\n        /* \"#utility.yul\":11054:11126   */\n      tag_236\n        /* \"#utility.yul\":11122:11124   */\n      0x40\n        /* \"#utility.yul\":11111:11120   */\n      dup4\n        /* \"#utility.yul\":11107:11125   */\n      add\n        /* \"#utility.yul\":11098:11104   */\n      dup6\n        /* \"#utility.yul\":11054:11126   */\n      tag_149\n      jump\t// in\n    tag_236:\n        /* \"#utility.yul\":11136:11208   */\n      tag_237\n        /* \"#utility.yul\":11204:11206   */\n      0x60\n        /* \"#utility.yul\":11193:11202   */\n      dup4\n        /* \"#utility.yul\":11189:11207   */\n      add\n        /* \"#utility.yul\":11180:11186   */\n      dup5\n        /* \"#utility.yul\":11136:11208   */\n      tag_149\n      jump\t// in\n    tag_237:\n        /* \"#utility.yul\":10670:11215   */\n      swap6\n      swap5\n      pop\n      pop\n      pop\n      pop\n      pop\n      jump\t// out\n        /* \"#utility.yul\":11221:11530   */\n    tag_11:\n        /* \"#utility.yul\":11332:11336   */\n      0x00\n        /* \"#utility.yul\":11370:11372   */\n      0x20\n        /* \"#utility.yul\":11359:11368   */\n      dup3\n        /* \"#utility.yul\":11355:11373   */\n      add\n        /* \"#utility.yul\":11347:11373   */\n      swap1\n      pop\n        /* \"#utility.yul\":11419:11428   */\n      dup2\n        /* \"#utility.yul\":11413:11417   */\n      dup2\n        /* \"#utility.yul\":11409:11429   */\n      sub\n        /* \"#utility.yul\":11405:11406   */\n      0x00\n        /* \"#utility.yul\":11394:11403   */\n      dup4\n        /* \"#utility.yul\":11390:11407   */\n      add\n        /* \"#utility.yul\":11383:11430   */\n      mstore\n        /* \"#utility.yul\":11447:11523   */\n      tag_239\n        /* \"#utility.yul\":11518:11522   */\n      dup2\n        /* \"#utility.yul\":11509:11515   */\n      dup5\n        /* \"#utility.yul\":11447:11523   */\n      tag_158\n      jump\t// in\n    tag_239:\n        /* \"#utility.yul\":11439:11523   */\n      swap1\n      pop\n        /* \"#utility.yul\":11221:11530   */\n      swap3\n      swap2\n      pop\n      pop\n      jump\t// out\n        /* \"#utility.yul\":11536:11955   */\n    tag_47:\n        /* \"#utility.yul\":11702:11706   */\n      0x00\n        /* \"#utility.yul\":11740:11742   */\n      0x20\n        /* \"#utility.yul\":11729:11738   */\n      dup3\n        /* \"#utility.yul\":11725:11743   */\n      add\n        /* \"#utility.yul\":11717:11743   */\n      swap1\n      pop\n        /* \"#utility.yul\":11789:11798   */\n      dup2\n        /* \"#utility.yul\":11783:11787   */\n      dup2\n        /* \"#utility.yul\":11779:11799   */\n      sub\n        /* \"#utility.yul\":11775:11776   */\n      0x00\n        /* \"#utility.yul\":11764:11773   */\n      dup4\n        /* \"#utility.yul\":11760:11777   */\n      add\n        /* \"#utility.yul\":11753:11800   */\n      mstore\n        /* \"#utility.yul\":11817:11948   */\n      tag_241\n        /* \"#utility.yul\":11943:11947   */\n      dup2\n        /* \"#utility.yul\":11817:11948   */\n      tag_185\n      jump\t// in\n    tag_241:\n        /* \"#utility.yul\":11809:11948   */\n      swap1\n      pop\n        /* \"#utility.yul\":11536:11955   */\n      swap2\n      swap1\n      pop\n      jump\t// out\n        /* \"#utility.yul\":11961:12380   */\n    tag_63:\n        /* \"#utility.yul\":12127:12131   */\n      0x00\n        /* \"#utility.yul\":12165:12167   */\n      0x20\n        /* \"#utility.yul\":12154:12163   */\n      dup3\n        /* \"#utility.yul\":12150:12168   */\n      add\n        /* \"#utility.yul\":12142:12168   */\n      swap1\n      pop\n        /* \"#utility.yul\":12214:12223   */\n      dup2\n        /* \"#utility.yul\":12208:12212   */\n      dup2\n        /* \"#utility.yul\":12204:12224   */\n      sub\n        /* \"#utility.yul\":12200:12201   */\n      0x00\n        /* \"#utility.yul\":12189:12198   */\n      dup4\n        /* \"#utility.yul\":12185:12202   */\n      add\n        /* \"#utility.yul\":12178:12225   */\n      mstore\n        /* \"#utility.yul\":12242:12373   */\n      tag_243\n        /* \"#utility.yul\":12368:12372   */\n      dup2\n        /* \"#utility.yul\":12242:12373   */\n      tag_191\n      jump\t// in\n    tag_243:\n        /* \"#utility.yul\":12234:12373   */\n      swap1\n      pop\n        /* \"#utility.yul\":11961:12380   */\n      swap2\n      swap1\n      pop\n      jump\t// out\n        /* \"#utility.yul\":12386:12805   */\n    tag_35:\n        /* \"#utility.yul\":12552:12556   */\n      0x00\n        /* \"#utility.yul\":12590:12592   */\n      0x20\n        /* \"#utility.yul\":12579:12588   */\n      dup3\n        /* \"#utility.yul\":12575:12593   */\n      add\n        /* \"#utility.yul\":12567:12593   */\n      swap1\n      pop\n        /* \"#utility.yul\":12639:12648   */\n      dup2\n        /* \"#utility.yul\":12633:12637   */\n      dup2\n        /* \"#utility.yul\":12629:12649   */\n      sub\n        /* \"#utility.yul\":12625:12626   */\n      0x00\n        /* \"#utility.yul\":12614:12623   */\n      dup4\n        /* \"#utility.yul\":12610:12627   */\n      add\n        /* \"#utility.yul\":12603:12650   */\n      mstore\n        /* \"#utility.yul\":12667:12798   */\n      tag_245\n        /* \"#utility.yul\":12793:12797   */\n      dup2\n        /* \"#utility.yul\":12667:12798   */\n      tag_196\n      jump\t// in\n    tag_245:\n        /* \"#utility.yul\":12659:12798   */\n      swap1\n      pop\n        /* \"#utility.yul\":12386:12805   */\n      swap2\n      swap1\n      pop\n      jump\t// out\n        /* \"#utility.yul\":12811:13033   */\n    tag_18:\n        /* \"#utility.yul\":12904:12908   */\n      0x00\n        /* \"#utility.yul\":12942:12944   */\n      0x20\n        /* \"#utility.yul\":12931:12940   */\n      dup3\n        /* \"#utility.yul\":12927:12945   */\n      add\n        /* \"#utility.yul\":12919:12945   */\n      swap1\n      pop\n        /* \"#utility.yul\":12955:13026   */\n      tag_247\n        /* \"#utility.yul\":13023:13024   */\n      0x00\n        /* \"#utility.yul\":13012:13021   */\n      dup4\n        /* \"#utility.yul\":13008:13025   */\n      add\n        /* \"#utility.yul\":12999:13005   */\n      dup5\n        /* \"#utility.yul\":12955:13026   */\n      tag_201\n      jump\t// in\n    tag_247:\n        /* \"#utility.yul\":12811:13033   */\n      swap3\n      swap2\n      pop\n      pop\n      jump\t// out\n        /* \"#utility.yul\":13039:13168   */\n    tag_76:\n        /* \"#utility.yul\":13073:13079   */\n      0x00\n        /* \"#utility.yul\":13100:13120   */\n      tag_249\n      tag_250\n      jump\t// in\n    tag_249:\n        /* \"#utility.yul\":13090:13120   */\n      swap1\n      pop\n        /* \"#utility.yul\":13129:13162   */\n      tag_251\n        /* \"#utility.yul\":13157:13161   */\n      dup3\n        /* \"#utility.yul\":13149:13155   */\n      dup3\n        /* \"#utility.yul\":13129:13162   */\n      tag_252\n      jump\t// in\n    tag_251:\n        /* \"#utility.yul\":13039:13168   */\n      swap2\n      swap1\n      pop\n      jump\t// out\n        /* \"#utility.yul\":13174:13249   */\n    tag_250:\n        /* \"#utility.yul\":13207:13213   */\n      0x00\n        /* \"#utility.yul\":13240:13242   */\n      0x40\n        /* \"#utility.yul\":13234:13243   */\n      mload\n        /* \"#utility.yul\":13224:13243   */\n      swap1\n      pop\n        /* \"#utility.yul\":13174:13249   */\n      swap1\n      jump\t// out\n        /* \"#utility.yul\":13255:13562   */\n    tag_75:\n        /* \"#utility.yul\":13316:13320   */\n      0x00\n        /* \"#utility.yul\":13406:13424   */\n      0xffffffffffffffff\n        /* \"#utility.yul\":13398:13404   */\n      dup3\n        /* \"#utility.yul\":13395:13425   */\n      gt\n        /* \"#utility.yul\":13392:13448   */\n      iszero\n      tag_255\n      jumpi\n        /* \"#utility.yul\":13428:13446   */\n      tag_256\n      tag_257\n      jump\t// in\n    tag_256:\n        /* \"#utility.yul\":13392:13448   */\n    tag_255:\n        /* \"#utility.yul\":13466:13495   */\n      tag_258\n        /* \"#utility.yul\":13488:13494   */\n      dup3\n        /* \"#utility.yul\":13466:13495   */\n      tag_167\n      jump\t// in\n    tag_258:\n        /* \"#utility.yul\":13458:13495   */\n      swap1\n      pop\n        /* \"#utility.yul\":13550:13554   */\n      0x20\n        /* \"#utility.yul\":13544:13548   */\n      dup2\n        /* \"#utility.yul\":13540:13555   */\n      add\n        /* \"#utility.yul\":13532:13555   */\n      swap1\n      pop\n        /* \"#utility.yul\":13255:13562   */\n      swap2\n      swap1\n      pop\n      jump\t// out\n        /* \"#utility.yul\":13568:13666   */\n    tag_161:\n        /* \"#utility.yul\":13619:13625   */\n      0x00\n        /* \"#utility.yul\":13653:13658   */\n      dup2\n        /* \"#utility.yul\":13647:13659   */\n      mload\n        /* \"#utility.yul\":13637:13659   */\n      swap1\n      pop\n        /* \"#utility.yul\":13568:13666   */\n      swap2\n      swap1\n      pop\n      jump\t// out\n        /* \"#utility.yul\":13672:13840   */\n    tag_163:\n        /* \"#utility.yul\":13755:13766   */\n      0x00\n        /* \"#utility.yul\":13789:13795   */\n      dup3\n        /* \"#utility.yul\":13784:13787   */\n      dup3\n        /* \"#utility.yul\":13777:13796   */\n      mstore\n        /* \"#utility.yul\":13829:13833   */\n      0x20\n        /* \"#utility.yul\":13824:13827   */\n      dup3\n        /* \"#utility.yul\":13820:13834   */\n      add\n        /* \"#utility.yul\":13805:13834   */\n      swap1\n      pop\n        /* \"#utility.yul\":13672:13840   */\n      swap3\n      swap2\n      pop\n      pop\n      jump\t// out\n        /* \"#utility.yul\":13846:13993   */\n    tag_172:\n        /* \"#utility.yul\":13947:13958   */\n      0x00\n        /* \"#utility.yul\":13984:13987   */\n      dup2\n        /* \"#utility.yul\":13969:13987   */\n      swap1\n      pop\n        /* \"#utility.yul\":13846:13993   */\n      swap3\n      swap2\n      pop\n      pop\n      jump\t// out\n        /* \"#utility.yul\":13999:14168   */\n    tag_188:\n        /* \"#utility.yul\":14083:14094   */\n      0x00\n        /* \"#utility.yul\":14117:14123   */\n      dup3\n        /* \"#utility.yul\":14112:14115   */\n      dup3\n        /* \"#utility.yul\":14105:14124   */\n      mstore\n        /* \"#utility.yul\":14157:14161   */\n      0x20\n        /* \"#utility.yul\":14152:14155   */\n      dup3\n        /* \"#utility.yul\":14148:14162   */\n      add\n        /* \"#utility.yul\":14133:14162   */\n      swap1\n      pop\n        /* \"#utility.yul\":13999:14168   */\n      swap3\n      swap2\n      pop\n      pop\n      jump\t// out\n        /* \"#utility.yul\":14174:14322   */\n    tag_182:\n        /* \"#utility.yul\":14276:14287   */\n      0x00\n        /* \"#utility.yul\":14313:14316   */\n      dup2\n        /* \"#utility.yul\":14298:14316   */\n      swap1\n      pop\n        /* \"#utility.yul\":14174:14322   */\n      swap3\n      swap2\n      pop\n      pop\n      jump\t// out\n        /* \"#utility.yul\":14328:14633   */\n    tag_66:\n        /* \"#utility.yul\":14368:14371   */\n      0x00\n        /* \"#utility.yul\":14387:14407   */\n      tag_265\n        /* \"#utility.yul\":14405:14406   */\n      dup3\n        /* \"#utility.yul\":14387:14407   */\n      tag_204\n      jump\t// in\n    tag_265:\n        /* \"#utility.yul\":14382:14407   */\n      swap2\n      pop\n        /* \"#utility.yul\":14421:14441   */\n      tag_266\n        /* \"#utility.yul\":14439:14440   */\n      dup4\n        /* \"#utility.yul\":14421:14441   */\n      tag_204\n      jump\t// in\n    tag_266:\n        /* \"#utility.yul\":14416:14441   */\n      swap3\n      pop\n        /* \"#utility.yul\":14575:14576   */\n      dup3\n        /* \"#utility.yul\":14507:14573   */\n      0xffffffffffffffffffffffffffffffffffffffffffffffffffffffffffffffff\n        /* \"#utility.yul\":14503:14577   */\n      sub\n        /* \"#utility.yul\":14500:14501   */\n      dup3\n        /* \"#utility.yul\":14497:14578   */\n      gt\n        /* \"#utility.yul\":14494:14601   */\n      iszero\n      tag_267\n      jumpi\n        /* \"#utility.yul\":14581:14599   */\n      tag_268\n      tag_269\n      jump\t// in\n    tag_268:\n        /* \"#utility.yul\":14494:14601   */\n    tag_267:\n        /* \"#utility.yul\":14625:14626   */\n      dup3\n        /* \"#utility.yul\":14622:14623   */\n      dup3\n        /* \"#utility.yul\":14618:14627   */\n      add\n        /* \"#utility.yul\":14611:14627   */\n      swap1\n      pop\n        /* \"#utility.yul\":14328:14633   */\n      swap3\n      swap2\n      pop\n      pop\n      jump\t// out\n        /* \"#utility.yul\":14639:14735   */\n    tag_139:\n        /* \"#utility.yul\":14676:14683   */\n      0x00\n        /* \"#utility.yul\":14705:14729   */\n      tag_271\n        /* \"#utility.yul\":14723:14728   */\n      dup3\n        /* \"#utility.yul\":14705:14729   */\n      tag_272\n      jump\t// in\n    tag_271:\n        /* \"#utility.yul\":14694:14729   */\n      swap1\n      pop\n        /* \"#utility.yul\":14639:14735   */\n      swap2\n      swap1\n      pop\n      jump\t// out\n        /* \"#utility.yul\":14741:14845   */\n    tag_135:\n        /* \"#utility.yul\":14786:14793   */\n      0x00\n        /* \"#utility.yul\":14815:14839   */\n      tag_274\n        /* \"#utility.yul\":14833:14838   */\n      dup3\n        /* \"#utility.yul\":14815:14839   */\n      tag_272\n      jump\t// in\n    tag_274:\n        /* \"#utility.yul\":14804:14839   */\n      swap1\n      pop\n        /* \"#utility.yul\":14741:14845   */\n      swap2\n      swap1\n      pop\n      jump\t// out\n        /* \"#utility.yul\":14851:14941   */\n    tag_148:\n        /* \"#utility.yul\":14885:14892   */\n      0x00\n        /* \"#utility.yul\":14928:14933   */\n      dup2\n        /* \"#utility.yul\":14921:14934   */\n      iszero\n        /* \"#utility.yul\":14914:14935   */\n      iszero\n        /* \"#utility.yul\":14903:14935   */\n      swap1\n      pop\n        /* \"#utility.yul\":14851:14941   */\n      swap2\n      swap1\n      pop\n      jump\t// out\n        /* \"#utility.yul\":14947:15024   */\n    tag_152:\n        /* \"#utility.yul\":14984:14991   */\n      0x00\n        /* \"#utility.yul\":15013:15018   */\n      dup2\n        /* \"#utility.yul\":15002:15018   */\n      swap1\n      pop\n        /* \"#utility.yul\":14947:15024   */\n      swap2\n      swap1\n      pop\n      jump\t// out\n        /* \"#utility.yul\":15030:15156   */\n    tag_272:\n        /* \"#utility.yul\":15067:15074   */\n      0x00\n        /* \"#utility.yul\":15107:15149   */\n      0xffffffffffffffffffffffffffffffffffffffff\n        /* \"#utility.yul\":15100:15105   */\n      dup3\n        /* \"#utility.yul\":15096:15150   */\n      and\n        /* \"#utility.yul\":15085:15150   */\n      swap1\n      pop\n        /* \"#utility.yul\":15030:15156   */\n      swap2\n      swap1\n      pop\n      jump\t// out\n        /* \"#utility.yul\":15162:15239   */\n    tag_204:\n        /* \"#utility.yul\":15199:15206   */\n      0x00\n        /* \"#utility.yul\":15228:15233   */\n      dup2\n        /* \"#utility.yul\":15217:15233   */\n      swap1\n      pop\n        /* \"#utility.yul\":15162:15239   */\n      swap2\n      swap1\n      pop\n      jump\t// out\n        /* \"#utility.yul\":15245:15331   */\n    tag_213:\n        /* \"#utility.yul\":15280:15287   */\n      0x00\n        /* \"#utility.yul\":15320:15324   */\n      0xff\n        /* \"#utility.yul\":15313:15318   */\n      dup3\n        /* \"#utility.yul\":15309:15325   */\n      and\n        /* \"#utility.yul\":15298:15325   */\n      swap1\n      pop\n        /* \"#utility.yul\":15245:15331   */\n      swap2\n      swap1\n      pop\n      jump\t// out\n        /* \"#utility.yul\":15337:15491   */\n    tag_178:\n        /* \"#utility.yul\":15415:15424   */\n      0x00\n        /* \"#utility.yul\":15448:15485   */\n      tag_281\n        /* \"#utility.yul\":15479:15484   */\n      dup3\n        /* \"#utility.yul\":15448:15485   */\n      tag_282\n      jump\t// in\n    tag_281:\n        /* \"#utility.yul\":15435:15485   */\n      swap1\n      pop\n        /* \"#utility.yul\":15337:15491   */\n      swap2\n      swap1\n      pop\n      jump\t// out\n        /* \"#utility.yul\":15497:15623   */\n    tag_282:\n        /* \"#utility.yul\":15547:15556   */\n      0x00\n        /* \"#utility.yul\":15580:15617   */\n      tag_284\n        /* \"#utility.yul\":15611:15616   */\n      dup3\n        /* \"#utility.yul\":15580:15617   */\n      tag_285\n      jump\t// in\n    tag_284:\n        /* \"#utility.yul\":15567:15617   */\n      swap1\n      pop\n        /* \"#utility.yul\":15497:15623   */\n      swap2\n      swap1\n      pop\n      jump\t// out\n        /* \"#utility.yul\":15629:15742   */\n    tag_285:\n        /* \"#utility.yul\":15679:15688   */\n      0x00\n        /* \"#utility.yul\":15712:15736   */\n      tag_287\n        /* \"#utility.yul\":15730:15735   */\n      dup3\n        /* \"#utility.yul\":15712:15736   */\n      tag_272\n      jump\t// in\n    tag_287:\n        /* \"#utility.yul\":15699:15736   */\n      swap1\n      pop\n        /* \"#utility.yul\":15629:15742   */\n      swap2\n      swap1\n      pop\n      jump\t// out\n        /* \"#utility.yul\":15748:15902   */\n    tag_81:\n        /* \"#utility.yul\":15832:15838   */\n      dup3\n        /* \"#utility.yul\":15827:15830   */\n      dup2\n        /* \"#utility.yul\":15822:15825   */\n      dup4\n        /* \"#utility.yul\":15809:15839   */\n      calldatacopy\n        /* \"#utility.yul\":15894:15895   */\n      0x00\n        /* \"#utility.yul\":15885:15891   */\n      dup4\n        /* \"#utility.yul\":15880:15883   */\n      dup4\n        /* \"#utility.yul\":15876:15892   */\n      add\n        /* \"#utility.yul\":15869:15896   */\n      mstore\n        /* \"#utility.yul\":15748:15902   */\n      pop\n      pop\n      pop\n      jump\t// out\n        /* \"#utility.yul\":15908:16215   */\n    tag_165:\n        /* \"#utility.yul\":15976:15977   */\n      0x00\n        /* \"#utility.yul\":15986:16099   */\n    tag_290:\n        /* \"#utility.yul\":16000:16006   */\n      dup4\n        /* \"#utility.yul\":15997:15998   */\n      dup2\n        /* \"#utility.yul\":15994:16007   */\n      lt\n        /* \"#utility.yul\":15986:16099   */\n      iszero\n      tag_292\n      jumpi\n        /* \"#utility.yul\":16085:16086   */\n      dup1\n        /* \"#utility.yul\":16080:16083   */\n      dup3\n        /* \"#utility.yul\":16076:16087   */\n      add\n        /* \"#utility.yul\":16070:16088   */\n      mload\n        /* \"#utility.yul\":16066:16067   */\n      dup2\n        /* \"#utility.yul\":16061:16064   */\n      dup5\n        /* \"#utility.yul\":16057:16068   */\n      add\n        /* \"#utility.yul\":16050:16089   */\n      mstore\n        /* \"#utility.yul\":16022:16024   */\n      0x20\n        /* \"#utility.yul\":16019:16020   */\n      dup2\n        /* \"#utility.yul\":16015:16025   */\n      add\n        /* \"#utility.yul\":16010:16025   */\n      swap1\n      pop\n        /* \"#utility.yul\":15986:16099   */\n      jump(tag_290)\n    tag_292:\n        /* \"#utility.yul\":16117:16123   */\n      dup4\n        /* \"#utility.yul\":16114:16115   */\n      dup2\n        /* \"#utility.yul\":16111:16124   */\n      gt\n        /* \"#utility.yul\":16108:16209   */\n      iszero\n      tag_293\n      jumpi\n        /* \"#utility.yul\":16197:16198   */\n      0x00\n        /* \"#utility.yul\":16188:16194   */\n      dup5\n        /* \"#utility.yul\":16183:16186   */\n      dup5\n        /* \"#utility.yul\":16179:16195   */\n      add\n        /* \"#utility.yul\":16172:16199   */\n      mstore\n        /* \"#utility.yul\":16108:16209   */\n    tag_293:\n        /* \"#utility.yul\":15957:16215   */\n      pop\n        /* \"#utility.yul\":15908:16215   */\n      pop\n      pop\n      pop\n      jump\t// out\n        /* \"#utility.yul\":16221:16502   */\n    tag_252:\n        /* \"#utility.yul\":16304:16331   */\n      tag_295\n        /* \"#utility.yul\":16326:16330   */\n      dup3\n        /* \"#utility.yul\":16304:16331   */\n      tag_167\n      jump\t// in\n    tag_295:\n        /* \"#utility.yul\":16296:16302   */\n      dup2\n        /* \"#utility.yul\":16292:16332   */\n      add\n        /* \"#utility.yul\":16434:16440   */\n      dup2\n        /* \"#utility.yul\":16422:16432   */\n      dup2\n        /* \"#utility.yul\":16419:16441   */\n      lt\n        /* \"#utility.yul\":16398:16416   */\n      0xffffffffffffffff\n        /* \"#utility.yul\":16386:16396   */\n      dup3\n        /* \"#utility.yul\":16383:16417   */\n      gt\n        /* \"#utility.yul\":16380:16442   */\n      or\n        /* \"#utility.yul\":16377:16465   */\n      iszero\n      tag_296\n      jumpi\n        /* \"#utility.yul\":16445:16463   */\n      tag_297\n      tag_257\n      jump\t// in\n    tag_297:\n        /* \"#utility.yul\":16377:16465   */\n    tag_296:\n        /* \"#utility.yul\":16485:16495   */\n      dup1\n        /* \"#utility.yul\":16481:16483   */\n      0x40\n        /* \"#utility.yul\":16474:16496   */\n      mstore\n        /* \"#utility.yul\":16264:16502   */\n      pop\n        /* \"#utility.yul\":16221:16502   */\n      pop\n      pop\n      jump\t// out\n        /* \"#utility.yul\":16508:16608   */\n    tag_144:\n        /* \"#utility.yul\":16547:16554   */\n      0x00\n        /* \"#utility.yul\":16576:16602   */\n      tag_299\n        /* \"#utility.yul\":16596:16601   */\n      dup3\n        /* \"#utility.yul\":16576:16602   */\n      tag_300\n      jump\t// in\n    tag_299:\n        /* \"#utility.yul\":16565:16602   */\n      swap1\n      pop\n        /* \"#utility.yul\":16508:16608   */\n      swap2\n      swap1\n      pop\n      jump\t// out\n        /* \"#utility.yul\":16614:16693   */\n    tag_157:\n        /* \"#utility.yul\":16653:16660   */\n      0x00\n        /* \"#utility.yul\":16682:16687   */\n      dup2\n        /* \"#utility.yul\":16671:16687   */\n      swap1\n      pop\n        /* \"#utility.yul\":16614:16693   */\n      swap2\n      swap1\n      pop\n      jump\t// out\n        /* \"#utility.yul\":16699:16793   */\n    tag_300:\n        /* \"#utility.yul\":16738:16745   */\n      0x00\n        /* \"#utility.yul\":16767:16787   */\n      tag_303\n        /* \"#utility.yul\":16781:16786   */\n      dup3\n        /* \"#utility.yul\":16767:16787   */\n      tag_304\n      jump\t// in\n    tag_303:\n        /* \"#utility.yul\":16756:16787   */\n      swap1\n      pop\n        /* \"#utility.yul\":16699:16793   */\n      swap2\n      swap1\n      pop\n      jump\t// out\n        /* \"#utility.yul\":16799:16878   */\n    tag_209:\n        /* \"#utility.yul\":16838:16845   */\n      0x00\n        /* \"#utility.yul\":16867:16872   */\n      dup2\n        /* \"#utility.yul\":16856:16872   */\n      swap1\n      pop\n        /* \"#utility.yul\":16799:16878   */\n      swap2\n      swap1\n      pop\n      jump\t// out\n        /* \"#utility.yul\":16884:17064   */\n    tag_269:\n        /* \"#utility.yul\":16932:17009   */\n      0x4e487b7100000000000000000000000000000000000000000000000000000000\n        /* \"#utility.yul\":16929:16930   */\n      0x00\n        /* \"#utility.yul\":16922:17010   */\n      mstore\n        /* \"#utility.yul\":17029:17033   */\n      0x11\n        /* \"#utility.yul\":17026:17027   */\n      0x04\n        /* \"#utility.yul\":17019:17034   */\n      mstore\n        /* \"#utility.yul\":17053:17057   */\n      0x24\n        /* \"#utility.yul\":17050:17051   */\n      0x00\n        /* \"#utility.yul\":17043:17058   */\n      revert\n        /* \"#utility.yul\":17070:17250   */\n    tag_257:\n        /* \"#utility.yul\":17118:17195   */\n      0x4e487b7100000000000000000000000000000000000000000000000000000000\n        /* \"#utility.yul\":17115:17116   */\n      0x00\n        /* \"#utility.yul\":17108:17196   */\n      mstore\n        /* \"#utility.yul\":17215:17219   */\n      0x41\n        /* \"#utility.yul\":17212:17213   */\n      0x04\n        /* \"#utility.yul\":17205:17220   */\n      mstore\n        /* \"#utility.yul\":17239:17243   */\n      0x24\n        /* \"#utility.yul\":17236:17237   */\n      0x00\n        /* \"#utility.yul\":17229:17244   */\n      revert\n        /* \"#utility.yul\":17256:17373   */\n    tag_94:\n        /* \"#utility.yul\":17365:17366   */\n      0x00\n        /* \"#utility.yul\":17362:17363   */\n      dup1\n        /* \"#utility.yul\":17355:17367   */\n      revert\n        /* \"#utility.yul\":17379:17496   */\n    tag_79:\n        /* \"#utility.yul\":17488:17489   */\n      0x00\n        /* \"#utility.yul\":17485:17486   */\n      dup1\n        /* \"#utility.yul\":17478:17490   */\n      revert\n        /* \"#utility.yul\":17502:17619   */\n    tag_115:\n        /* \"#utility.yul\":17611:17612   */\n      0x00\n        /* \"#utility.yul\":17608:17609   */\n      dup1\n        /* \"#utility.yul\":17601:17613   */\n      revert\n        /* \"#utility.yul\":17625:17742   */\n    tag_107:\n        /* \"#utility.yul\":17734:17735   */\n      0x00\n        /* \"#utility.yul\":17731:17732   */\n      dup1\n        /* \"#utility.yul\":17724:17736   */\n      revert\n        /* \"#utility.yul\":17748:17850   */\n    tag_167:\n        /* \"#utility.yul\":17789:17795   */\n      0x00\n        /* \"#utility.yul\":17840:17842   */\n      0x1f\n        /* \"#utility.yul\":17836:17843   */\n      not\n        /* \"#utility.yul\":17831:17833   */\n      0x1f\n        /* \"#utility.yul\":17824:17829   */\n      dup4\n        /* \"#utility.yul\":17820:17834   */\n      add\n        /* \"#utility.yul\":17816:17844   */\n      and\n        /* \"#utility.yul\":17806:17844   */\n      swap1\n      pop\n        /* \"#utility.yul\":17748:17850   */\n      swap2\n      swap1\n      pop\n      jump\t// out\n        /* \"#utility.yul\":17856:17950   */\n    tag_304:\n        /* \"#utility.yul\":17889:17897   */\n      0x00\n        /* \"#utility.yul\":17937:17942   */\n      dup2\n        /* \"#utility.yul\":17933:17935   */\n      0x60\n        /* \"#utility.yul\":17929:17943   */\n      shl\n        /* \"#utility.yul\":17908:17943   */\n      swap1\n      pop\n        /* \"#utility.yul\":17856:17950   */\n      swap2\n      swap1\n      pop\n      jump\t// out\n        /* \"#utility.yul\":17956:18170   */\n    tag_184:\n        /* \"#utility.yul\":18096:18162   */\n      0x19457468657265756d205369676e6564204d6573736167653a0a333200000000\n        /* \"#utility.yul\":18092:18093   */\n      0x00\n        /* \"#utility.yul\":18084:18090   */\n      dup3\n        /* \"#utility.yul\":18080:18094   */\n      add\n        /* \"#utility.yul\":18073:18163   */\n      mstore\n        /* \"#utility.yul\":17956:18170   */\n      pop\n      jump\t// out\n        /* \"#utility.yul\":18176:18354   */\n    tag_190:\n        /* \"#utility.yul\":18316:18346   */\n      0x46756e6374696f6e2063616c6c206e6f74207375636365737366756c00000000\n        /* \"#utility.yul\":18312:18313   */\n      0x00\n        /* \"#utility.yul\":18304:18310   */\n      dup3\n        /* \"#utility.yul\":18300:18314   */\n      add\n        /* \"#utility.yul\":18293:18347   */\n      mstore\n        /* \"#utility.yul\":18176:18354   */\n      pop\n      jump\t// out\n        /* \"#utility.yul\":18360:18527   */\n    tag_195:\n        /* \"#utility.yul\":18500:18519   */\n      0x496e76616c6964207369676e6174757265000000000000000000000000000000\n        /* \"#utility.yul\":18496:18497   */\n      0x00\n        /* \"#utility.yul\":18488:18494   */\n      dup3\n        /* \"#utility.yul\":18484:18498   */\n      add\n        /* \"#utility.yul\":18477:18520   */\n      mstore\n        /* \"#utility.yul\":18360:18527   */\n      pop\n      jump\t// out\n        /* \"#utility.yul\":18533:18753   */\n    tag_200:\n        /* \"#utility.yul\":18673:18707   */\n      0x5369676e657220616e64207369676e617475726520646f206e6f74206d617463\n        /* \"#utility.yul\":18669:18670   */\n      0x00\n        /* \"#utility.yul\":18661:18667   */\n      dup3\n        /* \"#utility.yul\":18657:18671   */\n      add\n        /* \"#utility.yul\":18650:18708   */\n      mstore\n        /* \"#utility.yul\":18742:18745   */\n      0x6800000000000000000000000000000000000000000000000000000000000000\n        /* \"#utility.yul\":18737:18739   */\n      0x20\n        /* \"#utility.yul\":18729:18735   */\n      dup3\n        /* \"#utility.yul\":18725:18740   */\n      add\n        /* \"#utility.yul\":18718:18746   */\n      mstore\n        /* \"#utility.yul\":18533:18753   */\n      pop\n      jump\t// out\n        /* \"#utility.yul\":18759:18881   */\n    tag_85:\n        /* \"#utility.yul\":18832:18856   */\n      tag_319\n        /* \"#utility.yul\":18850:18855   */\n      dup2\n        /* \"#utility.yul\":18832:18856   */\n      tag_139\n      jump\t// in\n    tag_319:\n        /* \"#utility.yul\":18825:18830   */\n      dup2\n        /* \"#utility.yul\":18822:18857   */\n      eq\n        /* \"#utility.yul\":18812:18875   */\n      tag_320\n      jumpi\n        /* \"#utility.yul\":18871:18872   */\n      0x00\n        /* \"#utility.yul\":18868:18869   */\n      dup1\n        /* \"#utility.yul\":18861:18873   */\n      revert\n        /* \"#utility.yul\":18812:18875   */\n    tag_320:\n        /* \"#utility.yul\":18759:18881   */\n      pop\n      jump\t// out\n        /* \"#utility.yul\":18887:19009   */\n    tag_89:\n        /* \"#utility.yul\":18960:18984   */\n      tag_322\n        /* \"#utility.yul\":18978:18983   */\n      dup2\n        /* \"#utility.yul\":18960:18984   */\n      tag_152\n      jump\t// in\n    tag_322:\n        /* \"#utility.yul\":18953:18958   */\n      dup2\n        /* \"#utility.yul\":18950:18985   */\n      eq\n        /* \"#utility.yul\":18940:19003   */\n      tag_323\n      jumpi\n        /* \"#utility.yul\":18999:19000   */\n      0x00\n        /* \"#utility.yul\":18996:18997   */\n      dup1\n        /* \"#utility.yul\":18989:19001   */\n      revert\n        /* \"#utility.yul\":18940:19003   */\n    tag_323:\n        /* \"#utility.yul\":18887:19009   */\n      pop\n      jump\t// out\n        /* \"#utility.yul\":19015:19137   */\n    tag_99:\n        /* \"#utility.yul\":19088:19112   */\n      tag_325\n        /* \"#utility.yul\":19106:19111   */\n      dup2\n        /* \"#utility.yul\":19088:19112   */\n      tag_204\n      jump\t// in\n    tag_325:\n        /* \"#utility.yul\":19081:19086   */\n      dup2\n        /* \"#utility.yul\":19078:19113   */\n      eq\n        /* \"#utility.yul\":19068:19131   */\n      tag_326\n      jumpi\n        /* \"#utility.yul\":19127:19128   */\n      0x00\n        /* \"#utility.yul\":19124:19125   */\n      dup1\n        /* \"#utility.yul\":19117:19129   */\n      revert\n        /* \"#utility.yul\":19068:19131   */\n    tag_326:\n        /* \"#utility.yul\":19015:19137   */\n      pop\n      jump\t// out\n        /* \"#utility.yul\":19143:19261   */\n    tag_103:\n        /* \"#utility.yul\":19214:19236   */\n      tag_328\n        /* \"#utility.yul\":19230:19235   */\n      dup2\n        /* \"#utility.yul\":19214:19236   */\n      tag_213\n      jump\t// in\n    tag_328:\n        /* \"#utility.yul\":19207:19212   */\n      dup2\n        /* \"#utility.yul\":19204:19237   */\n      eq\n        /* \"#utility.yul\":19194:19255   */\n      tag_329\n      jumpi\n        /* \"#utility.yul\":19251:19252   */\n      0x00\n        /* \"#utility.yul\":19248:19249   */\n      dup1\n        /* \"#utility.yul\":19241:19253   */\n      revert\n        /* \"#utility.yul\":19194:19255   */\n    tag_329:\n        /* \"#utility.yul\":19143:19261   */\n      pop\n      jump\t// out\n\n    auxdata: 0xa2646970667358221220af86fe6a6d9964b86eec8a28f38f1a9c9201ede03ac0389e5b8423c8a1d675e164736f6c63430008070033\n}\n",
				"bytecode": {
					"linkReferences": {},
					"object": "608060405234801561001057600080fd5b50610f3a806100206000396000f3fe60806040526004361061003f5760003560e01c80630c53c51c146100445780632d0335ab14610074578063564b81ef146100b15780636281133d146100dc575b600080fd5b61005e60048036038101906100599190610622565b610119565b60405161006b9190610a70565b60405180910390f35b34801561008057600080fd5b5061009b600480360381019061009691906105f5565b61035b565b6040516100a89190610af2565b60405180910390f35b3480156100bd57600080fd5b506100c66103a3565b6040516100d39190610af2565b60405180910390f35b3480156100e857600080fd5b5061010360048036038101906100fe91906106b9565b6103b0565b6040516101109190610a10565b60405180910390f35b606061016f866000808973ffffffffffffffffffffffffffffffffffffffff1673ffffffffffffffffffffffffffffffffffffffff168152602001908152602001600020546101666103a3565b888888886103b0565b6101ae576040517f08c379a00000000000000000000000000000000000000000000000000000000081526004016101a590610ad2565b60405180910390fd5b61020060016000808973ffffffffffffffffffffffffffffffffffffffff1673ffffffffffffffffffffffffffffffffffffffff168152602001908152602001600020546104eb90919063ffffffff16565b6000808873ffffffffffffffffffffffffffffffffffffffff1673ffffffffffffffffffffffffffffffffffffffff168152602001908152602001600020819055506000803073ffffffffffffffffffffffffffffffffffffffff16878960405160200161026f92919061093a565b60405160208183030381529060405260405161028b9190610923565b6000604051808303816000865af19150503d80600081146102c8576040519150601f19603f3d011682016040523d82523d6000602084013e6102cd565b606091505b509150915081610312576040517f08c379a000000000000000000000000000000000000000000000000000000000815260040161030990610a92565b60405180910390fd5b7f5845892132946850460bff5a0083f71031bc5bf9aadcd40f1de79423eac9b10b883389604051610345939291906109d2565b60405180910390a1809250505095945050505050565b60008060008373ffffffffffffffffffffffffffffffffffffffff1673ffffffffffffffffffffffffffffffffffffffff168152602001908152602001600020549050919050565b6000804690508091505090565b6000806103e8883089896040516020016103cd9493929190610988565b60405160208183030381529060405280519060200120610501565b905060006001828588886040516000815260200160405260405161040f9493929190610a2b565b6020604051602081039080840390855afa158015610431573d6000803e3d6000fd5b505050602060405103519050600073ffffffffffffffffffffffffffffffffffffffff168173ffffffffffffffffffffffffffffffffffffffff1614156104ad576040517f08c379a00000000000000000000000000000000000000000000000000000000081526004016104a490610ab2565b60405180910390fd5b8073ffffffffffffffffffffffffffffffffffffffff168a73ffffffffffffffffffffffffffffffffffffffff161492505050979650505050505050565b600081836104f99190610ba6565b905092915050565b6000816040516020016105149190610962565b604051602081830303815290604052805190602001209050919050565b600061054461053f84610b32565b610b0d565b9050828152602081018484840111156105605761055f610db1565b5b61056b848285610ca3565b509392505050565b60008135905061058281610ea8565b92915050565b60008135905061059781610ebf565b92915050565b600082601f8301126105b2576105b1610dac565b5b81356105c2848260208601610531565b91505092915050565b6000813590506105da81610ed6565b92915050565b6000813590506105ef81610eed565b92915050565b60006020828403121561060b5761060a610dbb565b5b600061061984828501610573565b91505092915050565b600080600080600060a0868803121561063e5761063d610dbb565b5b600061064c88828901610573565b955050602086013567ffffffffffffffff81111561066d5761066c610db6565b5b6106798882890161059d565b945050604061068a88828901610588565b935050606061069b88828901610588565b92505060806106ac888289016105e0565b9150509295509295909350565b600080600080600080600060e0888a0312156106d8576106d7610dbb565b5b60006106e68a828b01610573565b97505060206106f78a828b016105cb565b96505060406107088a828b016105cb565b955050606088013567ffffffffffffffff81111561072957610728610db6565b5b6107358a828b0161059d565b94505060806107468a828b01610588565b93505060a06107578a828b01610588565b92505060c06107688a828b016105e0565b91505092959891949750929550565b61078081610c0e565b82525050565b61078f81610bfc565b82525050565b6107a66107a182610bfc565b610d16565b82525050565b6107b581610c20565b82525050565b6107c481610c2c565b82525050565b6107db6107d682610c2c565b610d28565b82525050565b60006107ec82610b63565b6107f68185610b6e565b9350610806818560208601610cb2565b61080f81610dc0565b840191505092915050565b600061082582610b63565b61082f8185610b7f565b935061083f818560208601610cb2565b80840191505092915050565b61085c61085782610c6d565b610d16565b82525050565b600061086f601c83610b9b565b915061087a82610dde565b601c82019050919050565b6000610892601c83610b8a565b915061089d82610e07565b602082019050919050565b60006108b5601183610b8a565b91506108c082610e30565b602082019050919050565b60006108d8602183610b8a565b91506108e382610e59565b604082019050919050565b6108f781610c56565b82525050565b61090e61090982610c56565b610d44565b82525050565b61091d81610c60565b82525050565b600061092f828461081a565b915081905092915050565b6000610946828561081a565b91506109528284610795565b6014820191508190509392505050565b600061096d82610862565b915061097982846107ca565b60208201915081905092915050565b600061099482876108fd565b6020820191506109a4828661084b565b6014820191506109b482856108fd565b6020820191506109c4828461081a565b915081905095945050505050565b60006060820190506109e76000830186610786565b6109f46020830185610777565b8181036040830152610a0681846107e1565b9050949350505050565b6000602082019050610a2560008301846107ac565b92915050565b6000608082019050610a4060008301876107bb565b610a4d6020830186610914565b610a5a60408301856107bb565b610a6760608301846107bb565b95945050505050565b60006020820190508181036000830152610a8a81846107e1565b905092915050565b60006020820190508181036000830152610aab81610885565b9050919050565b60006020820190508181036000830152610acb816108a8565b9050919050565b60006020820190508181036000830152610aeb816108cb565b9050919050565b6000602082019050610b0760008301846108ee565b92915050565b6000610b17610b28565b9050610b238282610ce5565b919050565b6000604051905090565b600067ffffffffffffffff821115610b4d57610b4c610d7d565b5b610b5682610dc0565b9050602081019050919050565b600081519050919050565b600082825260208201905092915050565b600081905092915050565b600082825260208201905092915050565b600081905092915050565b6000610bb182610c56565b9150610bbc83610c56565b9250827fffffffffffffffffffffffffffffffffffffffffffffffffffffffffffffffff03821115610bf157610bf0610d4e565b5b828201905092915050565b6000610c0782610c36565b9050919050565b6000610c1982610c36565b9050919050565b60008115159050919050565b6000819050919050565b600073ffffffffffffffffffffffffffffffffffffffff82169050919050565b6000819050919050565b600060ff82169050919050565b6000610c7882610c7f565b9050919050565b6000610c8a82610c91565b9050919050565b6000610c9c82610c36565b9050919050565b82818337600083830152505050565b60005b83811015610cd0578082015181840152602081019050610cb5565b83811115610cdf576000848401525b50505050565b610cee82610dc0565b810181811067ffffffffffffffff82111715610d0d57610d0c610d7d565b5b80604052505050565b6000610d2182610d32565b9050919050565b6000819050919050565b6000610d3d82610dd1565b9050919050565b6000819050919050565b7f4e487b7100000000000000000000000000000000000000000000000000000000600052601160045260246000fd5b7f4e487b7100000000000000000000000000000000000000000000000000000000600052604160045260246000fd5b600080fd5b600080fd5b600080fd5b600080fd5b6000601f19601f8301169050919050565b60008160601b9050919050565b7f19457468657265756d205369676e6564204d6573736167653a0a333200000000600082015250565b7f46756e6374696f6e2063616c6c206e6f74207375636365737366756c00000000600082015250565b7f496e76616c6964207369676e6174757265000000000000000000000000000000600082015250565b7f5369676e657220616e64207369676e617475726520646f206e6f74206d61746360008201527f6800000000000000000000000000000000000000000000000000000000000000602082015250565b610eb181610bfc565b8114610ebc57600080fd5b50565b610ec881610c2c565b8114610ed357600080fd5b50565b610edf81610c56565b8114610eea57600080fd5b50565b610ef681610c60565b8114610f0157600080fd5b5056fea2646970667358221220af86fe6a6d9964b86eec8a28f38f1a9c9201ede03ac0389e5b8423c8a1d675e164736f6c63430008070033",
					"opcodes": "PUSH1 0x80 PUSH1 0x40 MSTORE CALLVALUE DUP1 ISZERO PUSH2 0x10 JUMPI PUSH1 0x0 DUP1 REVERT JUMPDEST POP PUSH2 0xF3A DUP1 PUSH2 0x20 PUSH1 0x0 CODECOPY PUSH1 0x0 RETURN INVALID PUSH1 0x80 PUSH1 0x40 MSTORE PUSH1 0x4 CALLDATASIZE LT PUSH2 0x3F JUMPI PUSH1 0x0 CALLDATALOAD PUSH1 0xE0 SHR DUP1 PUSH4 0xC53C51C EQ PUSH2 0x44 JUMPI DUP1 PUSH4 0x2D0335AB EQ PUSH2 0x74 JUMPI DUP1 PUSH4 0x564B81EF EQ PUSH2 0xB1 JUMPI DUP1 PUSH4 0x6281133D EQ PUSH2 0xDC JUMPI JUMPDEST PUSH1 0x0 DUP1 REVERT JUMPDEST PUSH2 0x5E PUSH1 0x4 DUP1 CALLDATASIZE SUB DUP2 ADD SWAP1 PUSH2 0x59 SWAP2 SWAP1 PUSH2 0x622 JUMP JUMPDEST PUSH2 0x119 JUMP JUMPDEST PUSH1 0x40 MLOAD PUSH2 0x6B SWAP2 SWAP1 PUSH2 0xA70 JUMP JUMPDEST PUSH1 0x40 MLOAD DUP1 SWAP2 SUB SWAP1 RETURN JUMPDEST CALLVALUE DUP1 ISZERO PUSH2 0x80 JUMPI PUSH1 0x0 DUP1 REVERT JUMPDEST POP PUSH2 0x9B PUSH1 0x4 DUP1 CALLDATASIZE SUB DUP2 ADD SWAP1 PUSH2 0x96 SWAP2 SWAP1 PUSH2 0x5F5 JUMP JUMPDEST PUSH2 0x35B JUMP JUMPDEST PUSH1 0x40 MLOAD PUSH2 0xA8 SWAP2 SWAP1 PUSH2 0xAF2 JUMP JUMPDEST PUSH1 0x40 MLOAD DUP1 SWAP2 SUB SWAP1 RETURN JUMPDEST CALLVALUE DUP1 ISZERO PUSH2 0xBD JUMPI PUSH1 0x0 DUP1 REVERT JUMPDEST POP PUSH2 0xC6 PUSH2 0x3A3 JUMP JUMPDEST PUSH1 0x40 MLOAD PUSH2 0xD3 SWAP2 SWAP1 PUSH2 0xAF2 JUMP JUMPDEST PUSH1 0x40 MLOAD DUP1 SWAP2 SUB SWAP1 RETURN JUMPDEST CALLVALUE DUP1 ISZERO PUSH2 0xE8 JUMPI PUSH1 0x0 DUP1 REVERT JUMPDEST POP PUSH2 0x103 PUSH1 0x4 DUP1 CALLDATASIZE SUB DUP2 ADD SWAP1 PUSH2 0xFE SWAP2 SWAP1 PUSH2 0x6B9 JUMP JUMPDEST PUSH2 0x3B0 JUMP JUMPDEST PUSH1 0x40 MLOAD PUSH2 0x110 SWAP2 SWAP1 PUSH2 0xA10 JUMP JUMPDEST PUSH1 0x40 MLOAD DUP1 SWAP2 SUB SWAP1 RETURN JUMPDEST PUSH1 0x60 PUSH2 0x16F DUP7 PUSH1 0x0 DUP1 DUP10 PUSH20 0xFFFFFFFFFFFFFFFFFFFFFFFFFFFFFFFFFFFFFFFF AND PUSH20 0xFFFFFFFFFFFFFFFFFFFFFFFFFFFFFFFFFFFFFFFF AND DUP2 MSTORE PUSH1 0x20 ADD SWAP1 DUP2 MSTORE PUSH1 0x20 ADD PUSH1 0x0 KECCAK256 SLOAD PUSH2 0x166 PUSH2 0x3A3 JUMP JUMPDEST DUP9 DUP9 DUP9 DUP9 PUSH2 0x3B0 JUMP JUMPDEST PUSH2 0x1AE JUMPI PUSH1 0x40 MLOAD PUSH32 0x8C379A000000000000000000000000000000000000000000000000000000000 DUP2 MSTORE PUSH1 0x4 ADD PUSH2 0x1A5 SWAP1 PUSH2 0xAD2 JUMP JUMPDEST PUSH1 0x40 MLOAD DUP1 SWAP2 SUB SWAP1 REVERT JUMPDEST PUSH2 0x200 PUSH1 0x1 PUSH1 0x0 DUP1 DUP10 PUSH20 0xFFFFFFFFFFFFFFFFFFFFFFFFFFFFFFFFFFFFFFFF AND PUSH20 0xFFFFFFFFFFFFFFFFFFFFFFFFFFFFFFFFFFFFFFFF AND DUP2 MSTORE PUSH1 0x20 ADD SWAP1 DUP2 MSTORE PUSH1 0x20 ADD PUSH1 0x0 KECCAK256 SLOAD PUSH2 0x4EB SWAP1 SWAP2 SWAP1 PUSH4 0xFFFFFFFF AND JUMP JUMPDEST PUSH1 0x0 DUP1 DUP9 PUSH20 0xFFFFFFFFFFFFFFFFFFFFFFFFFFFFFFFFFFFFFFFF AND PUSH20 0xFFFFFFFFFFFFFFFFFFFFFFFFFFFFFFFFFFFFFFFF AND DUP2 MSTORE PUSH1 0x20 ADD SWAP1 DUP2 MSTORE PUSH1 0x20 ADD PUSH1 0x0 KECCAK256 DUP2 SWAP1 SSTORE POP PUSH1 0x0 DUP1 ADDRESS PUSH20 0xFFFFFFFFFFFFFFFFFFFFFFFFFFFFFFFFFFFFFFFF AND DUP8 DUP10 PUSH1 0x40 MLOAD PUSH1 0x20 ADD PUSH2 0x26F SWAP3 SWAP2 SWAP1 PUSH2 0x93A JUMP JUMPDEST PUSH1 0x40 MLOAD PUSH1 0x20 DUP2 DUP4 SUB SUB DUP2 MSTORE SWAP1 PUSH1 0x40 MSTORE PUSH1 0x40 MLOAD PUSH2 0x28B SWAP2 SWAP1 PUSH2 0x923 JUMP JUMPDEST PUSH1 0x0 PUSH1 0x40 MLOAD DUP1 DUP4 SUB DUP2 PUSH1 0x0 DUP7 GAS CALL SWAP2 POP POP RETURNDATASIZE DUP1 PUSH1 0x0 DUP2 EQ PUSH2 0x2C8 JUMPI PUSH1 0x40 MLOAD SWAP2 POP PUSH1 0x1F NOT PUSH1 0x3F RETURNDATASIZE ADD AND DUP3 ADD PUSH1 0x40 MSTORE RETURNDATASIZE DUP3 MSTORE RETURNDATASIZE PUSH1 0x0 PUSH1 0x20 DUP5 ADD RETURNDATACOPY PUSH2 0x2CD JUMP JUMPDEST PUSH1 0x60 SWAP2 POP JUMPDEST POP SWAP2 POP SWAP2 POP DUP2 PUSH2 0x312 JUMPI PUSH1 0x40 MLOAD PUSH32 0x8C379A000000000000000000000000000000000000000000000000000000000 DUP2 MSTORE PUSH1 0x4 ADD PUSH2 0x309 SWAP1 PUSH2 0xA92 JUMP JUMPDEST PUSH1 0x40 MLOAD DUP1 SWAP2 SUB SWAP1 REVERT JUMPDEST PUSH32 0x5845892132946850460BFF5A0083F71031BC5BF9AADCD40F1DE79423EAC9B10B DUP9 CALLER DUP10 PUSH1 0x40 MLOAD PUSH2 0x345 SWAP4 SWAP3 SWAP2 SWAP1 PUSH2 0x9D2 JUMP JUMPDEST PUSH1 0x40 MLOAD DUP1 SWAP2 SUB SWAP1 LOG1 DUP1 SWAP3 POP POP POP SWAP6 SWAP5 POP POP POP POP POP JUMP JUMPDEST PUSH1 0x0 DUP1 PUSH1 0x0 DUP4 PUSH20 0xFFFFFFFFFFFFFFFFFFFFFFFFFFFFFFFFFFFFFFFF AND PUSH20 0xFFFFFFFFFFFFFFFFFFFFFFFFFFFFFFFFFFFFFFFF AND DUP2 MSTORE PUSH1 0x20 ADD SWAP1 DUP2 MSTORE PUSH1 0x20 ADD PUSH1 0x0 KECCAK256 SLOAD SWAP1 POP SWAP2 SWAP1 POP JUMP JUMPDEST PUSH1 0x0 DUP1 CHAINID SWAP1 POP DUP1 SWAP2 POP POP SWAP1 JUMP JUMPDEST PUSH1 0x0 DUP1 PUSH2 0x3E8 DUP9 ADDRESS DUP10 DUP10 PUSH1 0x40 MLOAD PUSH1 0x20 ADD PUSH2 0x3CD SWAP5 SWAP4 SWAP3 SWAP2 SWAP1 PUSH2 0x988 JUMP JUMPDEST PUSH1 0x40 MLOAD PUSH1 0x20 DUP2 DUP4 SUB SUB DUP2 MSTORE SWAP1 PUSH1 0x40 MSTORE DUP1 MLOAD SWAP1 PUSH1 0x20 ADD KECCAK256 PUSH2 0x501 JUMP JUMPDEST SWAP1 POP PUSH1 0x0 PUSH1 0x1 DUP3 DUP6 DUP9 DUP9 PUSH1 0x40 MLOAD PUSH1 0x0 DUP2 MSTORE PUSH1 0x20 ADD PUSH1 0x40 MSTORE PUSH1 0x40 MLOAD PUSH2 0x40F SWAP5 SWAP4 SWAP3 SWAP2 SWAP1 PUSH2 0xA2B JUMP JUMPDEST PUSH1 0x20 PUSH1 0x40 MLOAD PUSH1 0x20 DUP2 SUB SWAP1 DUP1 DUP5 SUB SWAP1 DUP6 GAS STATICCALL ISZERO DUP1 ISZERO PUSH2 0x431 JUMPI RETURNDATASIZE PUSH1 0x0 DUP1 RETURNDATACOPY RETURNDATASIZE PUSH1 0x0 REVERT JUMPDEST POP POP POP PUSH1 0x20 PUSH1 0x40 MLOAD SUB MLOAD SWAP1 POP PUSH1 0x0 PUSH20 0xFFFFFFFFFFFFFFFFFFFFFFFFFFFFFFFFFFFFFFFF AND DUP2 PUSH20 0xFFFFFFFFFFFFFFFFFFFFFFFFFFFFFFFFFFFFFFFF AND EQ ISZERO PUSH2 0x4AD JUMPI PUSH1 0x40 MLOAD PUSH32 0x8C379A000000000000000000000000000000000000000000000000000000000 DUP2 MSTORE PUSH1 0x4 ADD PUSH2 0x4A4 SWAP1 PUSH2 0xAB2 JUMP JUMPDEST PUSH1 0x40 MLOAD DUP1 SWAP2 SUB SWAP1 REVERT JUMPDEST DUP1 PUSH20 0xFFFFFFFFFFFFFFFFFFFFFFFFFFFFFFFFFFFFFFFF AND DUP11 PUSH20 0xFFFFFFFFFFFFFFFFFFFFFFFFFFFFFFFFFFFFFFFF AND EQ SWAP3 POP POP POP SWAP8 SWAP7 POP POP POP POP POP POP POP JUMP JUMPDEST PUSH1 0x0 DUP2 DUP4 PUSH2 0x4F9 SWAP2 SWAP1 PUSH2 0xBA6 JUMP JUMPDEST SWAP1 POP SWAP3 SWAP2 POP POP JUMP JUMPDEST PUSH1 0x0 DUP2 PUSH1 0x40 MLOAD PUSH1 0x20 ADD PUSH2 0x514 SWAP2 SWAP1 PUSH2 0x962 JUMP JUMPDEST PUSH1 0x40 MLOAD PUSH1 0x20 DUP2 DUP4 SUB SUB DUP2 MSTORE SWAP1 PUSH1 0x40 MSTORE DUP1 MLOAD SWAP1 PUSH1 0x20 ADD KECCAK256 SWAP1 POP SWAP2 SWAP1 POP JUMP JUMPDEST PUSH1 0x0 PUSH2 0x544 PUSH2 0x53F DUP5 PUSH2 0xB32 JUMP JUMPDEST PUSH2 0xB0D JUMP JUMPDEST SWAP1 POP DUP3 DUP2 MSTORE PUSH1 0x20 DUP2 ADD DUP5 DUP5 DUP5 ADD GT ISZERO PUSH2 0x560 JUMPI PUSH2 0x55F PUSH2 0xDB1 JUMP JUMPDEST JUMPDEST PUSH2 0x56B DUP5 DUP3 DUP6 PUSH2 0xCA3 JUMP JUMPDEST POP SWAP4 SWAP3 POP POP POP JUMP JUMPDEST PUSH1 0x0 DUP2 CALLDATALOAD SWAP1 POP PUSH2 0x582 DUP2 PUSH2 0xEA8 JUMP JUMPDEST SWAP3 SWAP2 POP POP JUMP JUMPDEST PUSH1 0x0 DUP2 CALLDATALOAD SWAP1 POP PUSH2 0x597 DUP2 PUSH2 0xEBF JUMP JUMPDEST SWAP3 SWAP2 POP POP JUMP JUMPDEST PUSH1 0x0 DUP3 PUSH1 0x1F DUP4 ADD SLT PUSH2 0x5B2 JUMPI PUSH2 0x5B1 PUSH2 0xDAC JUMP JUMPDEST JUMPDEST DUP2 CALLDATALOAD PUSH2 0x5C2 DUP5 DUP3 PUSH1 0x20 DUP7 ADD PUSH2 0x531 JUMP JUMPDEST SWAP2 POP POP SWAP3 SWAP2 POP POP JUMP JUMPDEST PUSH1 0x0 DUP2 CALLDATALOAD SWAP1 POP PUSH2 0x5DA DUP2 PUSH2 0xED6 JUMP JUMPDEST SWAP3 SWAP2 POP POP JUMP JUMPDEST PUSH1 0x0 DUP2 CALLDATALOAD SWAP1 POP PUSH2 0x5EF DUP2 PUSH2 0xEED JUMP JUMPDEST SWAP3 SWAP2 POP POP JUMP JUMPDEST PUSH1 0x0 PUSH1 0x20 DUP3 DUP5 SUB SLT ISZERO PUSH2 0x60B JUMPI PUSH2 0x60A PUSH2 0xDBB JUMP JUMPDEST JUMPDEST PUSH1 0x0 PUSH2 0x619 DUP5 DUP3 DUP6 ADD PUSH2 0x573 JUMP JUMPDEST SWAP2 POP POP SWAP3 SWAP2 POP POP JUMP JUMPDEST PUSH1 0x0 DUP1 PUSH1 0x0 DUP1 PUSH1 0x0 PUSH1 0xA0 DUP7 DUP9 SUB SLT ISZERO PUSH2 0x63E JUMPI PUSH2 0x63D PUSH2 0xDBB JUMP JUMPDEST JUMPDEST PUSH1 0x0 PUSH2 0x64C DUP9 DUP3 DUP10 ADD PUSH2 0x573 JUMP JUMPDEST SWAP6 POP POP PUSH1 0x20 DUP7 ADD CALLDATALOAD PUSH8 0xFFFFFFFFFFFFFFFF DUP2 GT ISZERO PUSH2 0x66D JUMPI PUSH2 0x66C PUSH2 0xDB6 JUMP JUMPDEST JUMPDEST PUSH2 0x679 DUP9 DUP3 DUP10 ADD PUSH2 0x59D JUMP JUMPDEST SWAP5 POP POP PUSH1 0x40 PUSH2 0x68A DUP9 DUP3 DUP10 ADD PUSH2 0x588 JUMP JUMPDEST SWAP4 POP POP PUSH1 0x60 PUSH2 0x69B DUP9 DUP3 DUP10 ADD PUSH2 0x588 JUMP JUMPDEST SWAP3 POP POP PUSH1 0x80 PUSH2 0x6AC DUP9 DUP3 DUP10 ADD PUSH2 0x5E0 JUMP JUMPDEST SWAP2 POP POP SWAP3 SWAP6 POP SWAP3 SWAP6 SWAP1 SWAP4 POP JUMP JUMPDEST PUSH1 0x0 DUP1 PUSH1 0x0 DUP1 PUSH1 0x0 DUP1 PUSH1 0x0 PUSH1 0xE0 DUP9 DUP11 SUB SLT ISZERO PUSH2 0x6D8 JUMPI PUSH2 0x6D7 PUSH2 0xDBB JUMP JUMPDEST JUMPDEST PUSH1 0x0 PUSH2 0x6E6 DUP11 DUP3 DUP12 ADD PUSH2 0x573 JUMP JUMPDEST SWAP8 POP POP PUSH1 0x20 PUSH2 0x6F7 DUP11 DUP3 DUP12 ADD PUSH2 0x5CB JUMP JUMPDEST SWAP7 POP POP PUSH1 0x40 PUSH2 0x708 DUP11 DUP3 DUP12 ADD PUSH2 0x5CB JUMP JUMPDEST SWAP6 POP POP PUSH1 0x60 DUP9 ADD CALLDATALOAD PUSH8 0xFFFFFFFFFFFFFFFF DUP2 GT ISZERO PUSH2 0x729 JUMPI PUSH2 0x728 PUSH2 0xDB6 JUMP JUMPDEST JUMPDEST PUSH2 0x735 DUP11 DUP3 DUP12 ADD PUSH2 0x59D JUMP JUMPDEST SWAP5 POP POP PUSH1 0x80 PUSH2 0x746 DUP11 DUP3 DUP12 ADD PUSH2 0x588 JUMP JUMPDEST SWAP4 POP POP PUSH1 0xA0 PUSH2 0x757 DUP11 DUP3 DUP12 ADD PUSH2 0x588 JUMP JUMPDEST SWAP3 POP POP PUSH1 0xC0 PUSH2 0x768 DUP11 DUP3 DUP12 ADD PUSH2 0x5E0 JUMP JUMPDEST SWAP2 POP POP SWAP3 SWAP6 SWAP9 SWAP2 SWAP5 SWAP8 POP SWAP3 SWAP6 POP JUMP JUMPDEST PUSH2 0x780 DUP2 PUSH2 0xC0E JUMP JUMPDEST DUP3 MSTORE POP POP JUMP JUMPDEST PUSH2 0x78F DUP2 PUSH2 0xBFC JUMP JUMPDEST DUP3 MSTORE POP POP JUMP JUMPDEST PUSH2 0x7A6 PUSH2 0x7A1 DUP3 PUSH2 0xBFC JUMP JUMPDEST PUSH2 0xD16 JUMP JUMPDEST DUP3 MSTORE POP POP JUMP JUMPDEST PUSH2 0x7B5 DUP2 PUSH2 0xC20 JUMP JUMPDEST DUP3 MSTORE POP POP JUMP JUMPDEST PUSH2 0x7C4 DUP2 PUSH2 0xC2C JUMP JUMPDEST DUP3 MSTORE POP POP JUMP JUMPDEST PUSH2 0x7DB PUSH2 0x7D6 DUP3 PUSH2 0xC2C JUMP JUMPDEST PUSH2 0xD28 JUMP JUMPDEST DUP3 MSTORE POP POP JUMP JUMPDEST PUSH1 0x0 PUSH2 0x7EC DUP3 PUSH2 0xB63 JUMP JUMPDEST PUSH2 0x7F6 DUP2 DUP6 PUSH2 0xB6E JUMP JUMPDEST SWAP4 POP PUSH2 0x806 DUP2 DUP6 PUSH1 0x20 DUP7 ADD PUSH2 0xCB2 JUMP JUMPDEST PUSH2 0x80F DUP2 PUSH2 0xDC0 JUMP JUMPDEST DUP5 ADD SWAP2 POP POP SWAP3 SWAP2 POP POP JUMP JUMPDEST PUSH1 0x0 PUSH2 0x825 DUP3 PUSH2 0xB63 JUMP JUMPDEST PUSH2 0x82F DUP2 DUP6 PUSH2 0xB7F JUMP JUMPDEST SWAP4 POP PUSH2 0x83F DUP2 DUP6 PUSH1 0x20 DUP7 ADD PUSH2 0xCB2 JUMP JUMPDEST DUP1 DUP5 ADD SWAP2 POP POP SWAP3 SWAP2 POP POP JUMP JUMPDEST PUSH2 0x85C PUSH2 0x857 DUP3 PUSH2 0xC6D JUMP JUMPDEST PUSH2 0xD16 JUMP JUMPDEST DUP3 MSTORE POP POP JUMP JUMPDEST PUSH1 0x0 PUSH2 0x86F PUSH1 0x1C DUP4 PUSH2 0xB9B JUMP JUMPDEST SWAP2 POP PUSH2 0x87A DUP3 PUSH2 0xDDE JUMP JUMPDEST PUSH1 0x1C DUP3 ADD SWAP1 POP SWAP2 SWAP1 POP JUMP JUMPDEST PUSH1 0x0 PUSH2 0x892 PUSH1 0x1C DUP4 PUSH2 0xB8A JUMP JUMPDEST SWAP2 POP PUSH2 0x89D DUP3 PUSH2 0xE07 JUMP JUMPDEST PUSH1 0x20 DUP3 ADD SWAP1 POP SWAP2 SWAP1 POP JUMP JUMPDEST PUSH1 0x0 PUSH2 0x8B5 PUSH1 0x11 DUP4 PUSH2 0xB8A JUMP JUMPDEST SWAP2 POP PUSH2 0x8C0 DUP3 PUSH2 0xE30 JUMP JUMPDEST PUSH1 0x20 DUP3 ADD SWAP1 POP SWAP2 SWAP1 POP JUMP JUMPDEST PUSH1 0x0 PUSH2 0x8D8 PUSH1 0x21 DUP4 PUSH2 0xB8A JUMP JUMPDEST SWAP2 POP PUSH2 0x8E3 DUP3 PUSH2 0xE59 JUMP JUMPDEST PUSH1 0x40 DUP3 ADD SWAP1 POP SWAP2 SWAP1 POP JUMP JUMPDEST PUSH2 0x8F7 DUP2 PUSH2 0xC56 JUMP JUMPDEST DUP3 MSTORE POP POP JUMP JUMPDEST PUSH2 0x90E PUSH2 0x909 DUP3 PUSH2 0xC56 JUMP JUMPDEST PUSH2 0xD44 JUMP JUMPDEST DUP3 MSTORE POP POP JUMP JUMPDEST PUSH2 0x91D DUP2 PUSH2 0xC60 JUMP JUMPDEST DUP3 MSTORE POP POP JUMP JUMPDEST PUSH1 0x0 PUSH2 0x92F DUP3 DUP5 PUSH2 0x81A JUMP JUMPDEST SWAP2 POP DUP2 SWAP1 POP SWAP3 SWAP2 POP POP JUMP JUMPDEST PUSH1 0x0 PUSH2 0x946 DUP3 DUP6 PUSH2 0x81A JUMP JUMPDEST SWAP2 POP PUSH2 0x952 DUP3 DUP5 PUSH2 0x795 JUMP JUMPDEST PUSH1 0x14 DUP3 ADD SWAP2 POP DUP2 SWAP1 POP SWAP4 SWAP3 POP POP POP JUMP JUMPDEST PUSH1 0x0 PUSH2 0x96D DUP3 PUSH2 0x862 JUMP JUMPDEST SWAP2 POP PUSH2 0x979 DUP3 DUP5 PUSH2 0x7CA JUMP JUMPDEST PUSH1 0x20 DUP3 ADD SWAP2 POP DUP2 SWAP1 POP SWAP3 SWAP2 POP POP JUMP JUMPDEST PUSH1 0x0 PUSH2 0x994 DUP3 DUP8 PUSH2 0x8FD JUMP JUMPDEST PUSH1 0x20 DUP3 ADD SWAP2 POP PUSH2 0x9A4 DUP3 DUP7 PUSH2 0x84B JUMP JUMPDEST PUSH1 0x14 DUP3 ADD SWAP2 POP PUSH2 0x9B4 DUP3 DUP6 PUSH2 0x8FD JUMP JUMPDEST PUSH1 0x20 DUP3 ADD SWAP2 POP PUSH2 0x9C4 DUP3 DUP5 PUSH2 0x81A JUMP JUMPDEST SWAP2 POP DUP2 SWAP1 POP SWAP6 SWAP5 POP POP POP POP POP JUMP JUMPDEST PUSH1 0x0 PUSH1 0x60 DUP3 ADD SWAP1 POP PUSH2 0x9E7 PUSH1 0x0 DUP4 ADD DUP7 PUSH2 0x786 JUMP JUMPDEST PUSH2 0x9F4 PUSH1 0x20 DUP4 ADD DUP6 PUSH2 0x777 JUMP JUMPDEST DUP2 DUP2 SUB PUSH1 0x40 DUP4 ADD MSTORE PUSH2 0xA06 DUP2 DUP5 PUSH2 0x7E1 JUMP JUMPDEST SWAP1 POP SWAP5 SWAP4 POP POP POP POP JUMP JUMPDEST PUSH1 0x0 PUSH1 0x20 DUP3 ADD SWAP1 POP PUSH2 0xA25 PUSH1 0x0 DUP4 ADD DUP5 PUSH2 0x7AC JUMP JUMPDEST SWAP3 SWAP2 POP POP JUMP JUMPDEST PUSH1 0x0 PUSH1 0x80 DUP3 ADD SWAP1 POP PUSH2 0xA40 PUSH1 0x0 DUP4 ADD DUP8 PUSH2 0x7BB JUMP JUMPDEST PUSH2 0xA4D PUSH1 0x20 DUP4 ADD DUP7 PUSH2 0x914 JUMP JUMPDEST PUSH2 0xA5A PUSH1 0x40 DUP4 ADD DUP6 PUSH2 0x7BB JUMP JUMPDEST PUSH2 0xA67 PUSH1 0x60 DUP4 ADD DUP5 PUSH2 0x7BB JUMP JUMPDEST SWAP6 SWAP5 POP POP POP POP POP JUMP JUMPDEST PUSH1 0x0 PUSH1 0x20 DUP3 ADD SWAP1 POP DUP2 DUP2 SUB PUSH1 0x0 DUP4 ADD MSTORE PUSH2 0xA8A DUP2 DUP5 PUSH2 0x7E1 JUMP JUMPDEST SWAP1 POP SWAP3 SWAP2 POP POP JUMP JUMPDEST PUSH1 0x0 PUSH1 0x20 DUP3 ADD SWAP1 POP DUP2 DUP2 SUB PUSH1 0x0 DUP4 ADD MSTORE PUSH2 0xAAB DUP2 PUSH2 0x885 JUMP JUMPDEST SWAP1 POP SWAP2 SWAP1 POP JUMP JUMPDEST PUSH1 0x0 PUSH1 0x20 DUP3 ADD SWAP1 POP DUP2 DUP2 SUB PUSH1 0x0 DUP4 ADD MSTORE PUSH2 0xACB DUP2 PUSH2 0x8A8 JUMP JUMPDEST SWAP1 POP SWAP2 SWAP1 POP JUMP JUMPDEST PUSH1 0x0 PUSH1 0x20 DUP3 ADD SWAP1 POP DUP2 DUP2 SUB PUSH1 0x0 DUP4 ADD MSTORE PUSH2 0xAEB DUP2 PUSH2 0x8CB JUMP JUMPDEST SWAP1 POP SWAP2 SWAP1 POP JUMP JUMPDEST PUSH1 0x0 PUSH1 0x20 DUP3 ADD SWAP1 POP PUSH2 0xB07 PUSH1 0x0 DUP4 ADD DUP5 PUSH2 0x8EE JUMP JUMPDEST SWAP3 SWAP2 POP POP JUMP JUMPDEST PUSH1 0x0 PUSH2 0xB17 PUSH2 0xB28 JUMP JUMPDEST SWAP1 POP PUSH2 0xB23 DUP3 DUP3 PUSH2 0xCE5 JUMP JUMPDEST SWAP2 SWAP1 POP JUMP JUMPDEST PUSH1 0x0 PUSH1 0x40 MLOAD SWAP1 POP SWAP1 JUMP JUMPDEST PUSH1 0x0 PUSH8 0xFFFFFFFFFFFFFFFF DUP3 GT ISZERO PUSH2 0xB4D JUMPI PUSH2 0xB4C PUSH2 0xD7D JUMP JUMPDEST JUMPDEST PUSH2 0xB56 DUP3 PUSH2 0xDC0 JUMP JUMPDEST SWAP1 POP PUSH1 0x20 DUP2 ADD SWAP1 POP SWAP2 SWAP1 POP JUMP JUMPDEST PUSH1 0x0 DUP2 MLOAD SWAP1 POP SWAP2 SWAP1 POP JUMP JUMPDEST PUSH1 0x0 DUP3 DUP3 MSTORE PUSH1 0x20 DUP3 ADD SWAP1 POP SWAP3 SWAP2 POP POP JUMP JUMPDEST PUSH1 0x0 DUP2 SWAP1 POP SWAP3 SWAP2 POP POP JUMP JUMPDEST PUSH1 0x0 DUP3 DUP3 MSTORE PUSH1 0x20 DUP3 ADD SWAP1 POP SWAP3 SWAP2 POP POP JUMP JUMPDEST PUSH1 0x0 DUP2 SWAP1 POP SWAP3 SWAP2 POP POP JUMP JUMPDEST PUSH1 0x0 PUSH2 0xBB1 DUP3 PUSH2 0xC56 JUMP JUMPDEST SWAP2 POP PUSH2 0xBBC DUP4 PUSH2 0xC56 JUMP JUMPDEST SWAP3 POP DUP3 PUSH32 0xFFFFFFFFFFFFFFFFFFFFFFFFFFFFFFFFFFFFFFFFFFFFFFFFFFFFFFFFFFFFFFFF SUB DUP3 GT ISZERO PUSH2 0xBF1 JUMPI PUSH2 0xBF0 PUSH2 0xD4E JUMP JUMPDEST JUMPDEST DUP3 DUP3 ADD SWAP1 POP SWAP3 SWAP2 POP POP JUMP JUMPDEST PUSH1 0x0 PUSH2 0xC07 DUP3 PUSH2 0xC36 JUMP JUMPDEST SWAP1 POP SWAP2 SWAP1 POP JUMP JUMPDEST PUSH1 0x0 PUSH2 0xC19 DUP3 PUSH2 0xC36 JUMP JUMPDEST SWAP1 POP SWAP2 SWAP1 POP JUMP JUMPDEST PUSH1 0x0 DUP2 ISZERO ISZERO SWAP1 POP SWAP2 SWAP1 POP JUMP JUMPDEST PUSH1 0x0 DUP2 SWAP1 POP SWAP2 SWAP1 POP JUMP JUMPDEST PUSH1 0x0 PUSH20 0xFFFFFFFFFFFFFFFFFFFFFFFFFFFFFFFFFFFFFFFF DUP3 AND SWAP1 POP SWAP2 SWAP1 POP JUMP JUMPDEST PUSH1 0x0 DUP2 SWAP1 POP SWAP2 SWAP1 POP JUMP JUMPDEST PUSH1 0x0 PUSH1 0xFF DUP3 AND SWAP1 POP SWAP2 SWAP1 POP JUMP JUMPDEST PUSH1 0x0 PUSH2 0xC78 DUP3 PUSH2 0xC7F JUMP JUMPDEST SWAP1 POP SWAP2 SWAP1 POP JUMP JUMPDEST PUSH1 0x0 PUSH2 0xC8A DUP3 PUSH2 0xC91 JUMP JUMPDEST SWAP1 POP SWAP2 SWAP1 POP JUMP JUMPDEST PUSH1 0x0 PUSH2 0xC9C DUP3 PUSH2 0xC36 JUMP JUMPDEST SWAP1 POP SWAP2 SWAP1 POP JUMP JUMPDEST DUP3 DUP2 DUP4 CALLDATACOPY PUSH1 0x0 DUP4 DUP4 ADD MSTORE POP POP POP JUMP JUMPDEST PUSH1 0x0 JUMPDEST DUP4 DUP2 LT ISZERO PUSH2 0xCD0 JUMPI DUP1 DUP3 ADD MLOAD DUP2 DUP5 ADD MSTORE PUSH1 0x20 DUP2 ADD SWAP1 POP PUSH2 0xCB5 JUMP JUMPDEST DUP4 DUP2 GT ISZERO PUSH2 0xCDF JUMPI PUSH1 0x0 DUP5 DUP5 ADD MSTORE JUMPDEST POP POP POP POP JUMP JUMPDEST PUSH2 0xCEE DUP3 PUSH2 0xDC0 JUMP JUMPDEST DUP2 ADD DUP2 DUP2 LT PUSH8 0xFFFFFFFFFFFFFFFF DUP3 GT OR ISZERO PUSH2 0xD0D JUMPI PUSH2 0xD0C PUSH2 0xD7D JUMP JUMPDEST JUMPDEST DUP1 PUSH1 0x40 MSTORE POP POP POP JUMP JUMPDEST PUSH1 0x0 PUSH2 0xD21 DUP3 PUSH2 0xD32 JUMP JUMPDEST SWAP1 POP SWAP2 SWAP1 POP JUMP JUMPDEST PUSH1 0x0 DUP2 SWAP1 POP SWAP2 SWAP1 POP JUMP JUMPDEST PUSH1 0x0 PUSH2 0xD3D DUP3 PUSH2 0xDD1 JUMP JUMPDEST SWAP1 POP SWAP2 SWAP1 POP JUMP JUMPDEST PUSH1 0x0 DUP2 SWAP1 POP SWAP2 SWAP1 POP JUMP JUMPDEST PUSH32 0x4E487B7100000000000000000000000000000000000000000000000000000000 PUSH1 0x0 MSTORE PUSH1 0x11 PUSH1 0x4 MSTORE PUSH1 0x24 PUSH1 0x0 REVERT JUMPDEST PUSH32 0x4E487B7100000000000000000000000000000000000000000000000000000000 PUSH1 0x0 MSTORE PUSH1 0x41 PUSH1 0x4 MSTORE PUSH1 0x24 PUSH1 0x0 REVERT JUMPDEST PUSH1 0x0 DUP1 REVERT JUMPDEST PUSH1 0x0 DUP1 REVERT JUMPDEST PUSH1 0x0 DUP1 REVERT JUMPDEST PUSH1 0x0 DUP1 REVERT JUMPDEST PUSH1 0x0 PUSH1 0x1F NOT PUSH1 0x1F DUP4 ADD AND SWAP1 POP SWAP2 SWAP1 POP JUMP JUMPDEST PUSH1 0x0 DUP2 PUSH1 0x60 SHL SWAP1 POP SWAP2 SWAP1 POP JUMP JUMPDEST PUSH32 0x19457468657265756D205369676E6564204D6573736167653A0A333200000000 PUSH1 0x0 DUP3 ADD MSTORE POP JUMP JUMPDEST PUSH32 0x46756E6374696F6E2063616C6C206E6F74207375636365737366756C00000000 PUSH1 0x0 DUP3 ADD MSTORE POP JUMP JUMPDEST PUSH32 0x496E76616C6964207369676E6174757265000000000000000000000000000000 PUSH1 0x0 DUP3 ADD MSTORE POP JUMP JUMPDEST PUSH32 0x5369676E657220616E64207369676E617475726520646F206E6F74206D617463 PUSH1 0x0 DUP3 ADD MSTORE PUSH32 0x6800000000000000000000000000000000000000000000000000000000000000 PUSH1 0x20 DUP3 ADD MSTORE POP JUMP JUMPDEST PUSH2 0xEB1 DUP2 PUSH2 0xBFC JUMP JUMPDEST DUP2 EQ PUSH2 0xEBC JUMPI PUSH1 0x0 DUP1 REVERT JUMPDEST POP JUMP JUMPDEST PUSH2 0xEC8 DUP2 PUSH2 0xC2C JUMP JUMPDEST DUP2 EQ PUSH2 0xED3 JUMPI PUSH1 0x0 DUP1 REVERT JUMPDEST POP JUMP JUMPDEST PUSH2 0xEDF DUP2 PUSH2 0xC56 JUMP JUMPDEST DUP2 EQ PUSH2 0xEEA JUMPI PUSH1 0x0 DUP1 REVERT JUMPDEST POP JUMP JUMPDEST PUSH2 0xEF6 DUP2 PUSH2 0xC60 JUMP JUMPDEST DUP2 EQ PUSH2 0xF01 JUMPI PUSH1 0x0 DUP1 REVERT JUMPDEST POP JUMP INVALID LOG2 PUSH5 0x6970667358 0x22 SLT KECCAK256 0xAF DUP7 INVALID PUSH11 0x6D9964B86EEC8A28F38F1A SWAP13 SWAP3 ADD 0xED 0xE0 GASPRICE 0xC0 CODESIZE SWAP15 JUMPDEST DUP5 0x23 0xC8 LOG1 0xD6 PUSH22 0xE164736F6C6343000807003300000000000000000000 "
				},
				"gasEstimates": {
					"creation": {
						"codeDepositCost": "779600",
						"executionCost": "812",
						"totalCost": "780412"
					},
					"external": {
						"executeMetaTransaction(address,bytes,bytes32,bytes32,uint8)": "infinite",
						"getChainID()": "371",
						"getNonce(address)": "2841",
						"verify(address,uint256,uint256,bytes,bytes32,bytes32,uint8)": "infinite"
					},
					"internal": {
						"_msgSender()": "infinite",
						"prefixed(bytes32)": "infinite"
					}
				},
				"methodIdentifiers": {
					"executeMetaTransaction(address,bytes,bytes32,bytes32,uint8)": "0c53c51c",
					"getChainID()": "564b81ef",
					"getNonce(address)": "2d0335ab",
					"verify(address,uint256,uint256,bytes,bytes32,bytes32,uint8)": "6281133d"
				}
			},
			"storageLayout": {
				"storage": [
					{
						"astId": 329,
						"contract": "relayer/BasicMetaTransaction.sol:BasicMetaTransaction",
						"label": "nonces",
						"offset": 0,
						"slot": "0",
						"type": "t_mapping(t_address,t_uint256)"
					}
				],
				"types": {
					"t_address": {
						"encoding": "inplace",
						"label": "address",
						"numberOfBytes": "20"
					},
					"t_mapping(t_address,t_uint256)": {
						"encoding": "mapping",
						"key": "t_address",
						"label": "mapping(address => uint256)",
						"numberOfBytes": "32",
						"value": "t_uint256"
					},
					"t_uint256": {
						"encoding": "inplace",
						"label": "uint256",
						"numberOfBytes": "32"
					}
				}
			},
			"userdoc": {
				"kind": "user",
				"methods": {
					"executeMetaTransaction(address,bytes,bytes32,bytes32,uint8)": {
						"notice": "Main function to be called when user wants to execute meta transaction. The actual function to be called should be passed as param with name functionSignature Here the basic signature recovery is being used. Signature is expected to be generated using personal_sign method."
					}
				},
				"version": 1
			}
		}
	}
}