{
	"contracts/MinterRole.sol": {
		"MinterRole": {
			"abi": [
				{
					"inputs": [],
					"stateMutability": "nonpayable",
					"type": "constructor"
				},
				{
					"anonymous": false,
					"inputs": [
						{
							"indexed": true,
							"internalType": "address",
							"name": "account",
							"type": "address"
						}
					],
					"name": "MinterAdded",
					"type": "event"
				},
				{
					"anonymous": false,
					"inputs": [
						{
							"indexed": true,
							"internalType": "address",
							"name": "account",
							"type": "address"
						}
					],
					"name": "MinterRemoved",
					"type": "event"
				},
				{
					"inputs": [
						{
							"internalType": "address",
							"name": "account",
							"type": "address"
						}
					],
					"name": "addMinter",
					"outputs": [],
					"stateMutability": "nonpayable",
					"type": "function"
				},
				{
					"inputs": [
						{
							"internalType": "address",
							"name": "account",
							"type": "address"
						}
					],
					"name": "isMinter",
					"outputs": [
						{
							"internalType": "bool",
							"name": "",
							"type": "bool"
						}
					],
					"stateMutability": "view",
					"type": "function"
				},
				{
					"inputs": [],
					"name": "renounceMinter",
					"outputs": [],
					"stateMutability": "nonpayable",
					"type": "function"
				}
			],
			"devdoc": {
				"kind": "dev",
				"methods": {},
				"version": 1
			},
			"evm": {
				"assembly": "    /* \"contracts/MinterRole.sol\":98:1034  contract MinterRole {\r... */\n  mstore(0x40, 0x80)\n    /* \"contracts/MinterRole.sol\":297:352  constructor() {\r... */\n  callvalue\n  dup1\n  iszero\n  tag_1\n  jumpi\n  0x00\n  dup1\n  revert\ntag_1:\n  pop\n    /* \"contracts/MinterRole.sol\":322:344  _addMinter(msg.sender) */\n  tag_4\n    /* \"contracts/MinterRole.sol\":333:343  msg.sender */\n  caller\n    /* \"contracts/MinterRole.sol\":322:332  _addMinter */\n  shl(0x20, tag_5)\n    /* \"contracts/MinterRole.sol\":322:344  _addMinter(msg.sender) */\n  0x20\n  shr\n  jump\t// in\ntag_4:\n    /* \"contracts/MinterRole.sol\":98:1034  contract MinterRole {\r... */\n  jump(tag_6)\n    /* \"contracts/MinterRole.sol\":773:894  function _addMinter(address account) internal {\r... */\ntag_5:\n    /* \"contracts/MinterRole.sol\":830:850  minters.add(account) */\n  tag_8\n    /* \"contracts/MinterRole.sol\":842:849  account */\n  dup2\n    /* \"contracts/MinterRole.sol\":830:837  minters */\n  0x00\n    /* \"contracts/MinterRole.sol\":830:841  minters.add */\n  or(tag_0_17, shl(0x20, tag_9))\n  swap1\n    /* \"contracts/MinterRole.sol\":830:850  minters.add(account) */\n  swap2\n  swap1\n  0x20\n  shr\n  jump\t// in\ntag_8:\n    /* \"contracts/MinterRole.sol\":878:885  account */\n  dup1\n    /* \"contracts/MinterRole.sol\":866:886  MinterAdded(account) */\n  0xffffffffffffffffffffffffffffffffffffffff\n  and\n  0x6ae172837ea30b801fbfcdd4108aa1d5bf8ff775444fd70256b44e6bf3dfc3f6\n  mload(0x40)\n  mload(0x40)\n  dup1\n  swap2\n  sub\n  swap1\n  log2\n    /* \"contracts/MinterRole.sol\":773:894  function _addMinter(address account) internal {\r... */\n  pop\n  jump\t// out\n    /* \"contracts/Roles.sol\":303:438  function add(Role storage role, address account) internal {\r... */\ntag_9:\n    /* \"contracts/Roles.sol\":395:396  0 */\n  0x00\n    /* \"contracts/Roles.sol\":376:397  account != address(0) */\n  0xffffffffffffffffffffffffffffffffffffffff\n  and\n    /* \"contracts/Roles.sol\":376:383  account */\n  dup2\n    /* \"contracts/Roles.sol\":376:397  account != address(0) */\n  0xffffffffffffffffffffffffffffffffffffffff\n  and\n  eq\n  iszero\n    /* \"contracts/Roles.sol\":368:398  require(account != address(0)) */\n  tag_11\n  jumpi\n  0x00\n  dup1\n  revert\ntag_11:\n    /* \"contracts/Roles.sol\":428:432  true */\n  0x01\n    /* \"contracts/Roles.sol\":405:409  role */\n  dup3\n    /* \"contracts/Roles.sol\":405:416  role.bearer */\n  0x00\n  add\n    /* \"contracts/Roles.sol\":405:425  role.bearer[account] */\n  0x00\n    /* \"contracts/Roles.sol\":417:424  account */\n  dup4\n    /* \"contracts/Roles.sol\":405:425  role.bearer[account] */\n  0xffffffffffffffffffffffffffffffffffffffff\n  and\n  0xffffffffffffffffffffffffffffffffffffffff\n  and\n  dup2\n  mstore\n  0x20\n  add\n  swap1\n  dup2\n  mstore\n  0x20\n  add\n  0x00\n  keccak256\n  0x00\n    /* \"contracts/Roles.sol\":405:432  role.bearer[account] = true */\n  0x0100\n  exp\n  dup2\n  sload\n  dup2\n  0xff\n  mul\n  not\n  and\n  swap1\n  dup4\n  iszero\n  iszero\n  mul\n  or\n  swap1\n  sstore\n  pop\n    /* \"contracts/Roles.sol\":303:438  function add(Role storage role, address account) internal {\r... */\n  pop\n  pop\n  jump\t// out\n    /* \"contracts/MinterRole.sol\":98:1034  contract MinterRole {\r... */\ntag_6:\n  dataSize(sub_0)\n  dup1\n  dataOffset(sub_0)\n  0x00\n  codecopy\n  0x00\n  return\nstop\n\nsub_0: assembly {\n        /* \"contracts/MinterRole.sol\":98:1034  contract MinterRole {\r... */\n      mstore(0x40, 0x80)\n      callvalue\n      dup1\n      iszero\n      tag_1\n      jumpi\n      0x00\n      dup1\n      revert\n    tag_1:\n      pop\n      jumpi(tag_2, lt(calldatasize, 0x04))\n      shr(0xe0, calldataload(0x00))\n      dup1\n      0x983b2d56\n      eq\n      tag_3\n      jumpi\n      dup1\n      0x98650275\n      eq\n      tag_4\n      jumpi\n      dup1\n      0xaa271e1a\n      eq\n      tag_5\n      jumpi\n    tag_2:\n      0x00\n      dup1\n      revert\n        /* \"contracts/MinterRole.sol\":576:680  function addMinter(address account) public onlyMinter(msg.sender) {\r... */\n    tag_3:\n      tag_6\n      0x04\n      dup1\n      calldatasize\n      sub\n      dup2\n      add\n      swap1\n      tag_7\n      swap2\n      swap1\n      tag_8\n      jump\t// in\n    tag_7:\n      tag_9\n      jump\t// in\n    tag_6:\n      stop\n        /* \"contracts/MinterRole.sol\":688:765  function renounceMinter() public {\r... */\n    tag_4:\n      tag_10\n      tag_11\n      jump\t// in\n    tag_10:\n      stop\n        /* \"contracts/MinterRole.sol\":460:568  function isMinter(address account) public view returns (bool) {\r... */\n    tag_5:\n      tag_12\n      0x04\n      dup1\n      calldatasize\n      sub\n      dup2\n      add\n      swap1\n      tag_13\n      swap2\n      swap1\n      tag_8\n      jump\t// in\n    tag_13:\n      tag_14\n      jump\t// in\n    tag_12:\n      mload(0x40)\n      tag_15\n      swap2\n      swap1\n      tag_16\n      jump\t// in\n    tag_15:\n      mload(0x40)\n      dup1\n      swap2\n      sub\n      swap1\n      return\n        /* \"contracts/MinterRole.sol\":576:680  function addMinter(address account) public onlyMinter(msg.sender) {\r... */\n    tag_9:\n        /* \"contracts/MinterRole.sol\":630:640  msg.sender */\n      caller\n        /* \"contracts/MinterRole.sol\":415:431  isMinter(sender) */\n      tag_19\n        /* \"contracts/MinterRole.sol\":424:430  sender */\n      dup2\n        /* \"contracts/MinterRole.sol\":415:423  isMinter */\n      tag_14\n        /* \"contracts/MinterRole.sol\":415:431  isMinter(sender) */\n      jump\t// in\n    tag_19:\n        /* \"contracts/MinterRole.sol\":407:432  require(isMinter(sender)) */\n      tag_20\n      jumpi\n      0x00\n      dup1\n      revert\n    tag_20:\n        /* \"contracts/MinterRole.sol\":653:672  _addMinter(account) */\n      tag_22\n        /* \"contracts/MinterRole.sol\":664:671  account */\n      dup3\n        /* \"contracts/MinterRole.sol\":653:663  _addMinter */\n      tag_23\n        /* \"contracts/MinterRole.sol\":653:672  _addMinter(account) */\n      jump\t// in\n    tag_22:\n        /* \"contracts/MinterRole.sol\":576:680  function addMinter(address account) public onlyMinter(msg.sender) {\r... */\n      pop\n      pop\n      jump\t// out\n        /* \"contracts/MinterRole.sol\":688:765  function renounceMinter() public {\r... */\n    tag_11:\n        /* \"contracts/MinterRole.sol\":732:757  _removeMinter(msg.sender) */\n      tag_25\n        /* \"contracts/MinterRole.sol\":746:756  msg.sender */\n      caller\n        /* \"contracts/MinterRole.sol\":732:745  _removeMinter */\n      tag_26\n        /* \"contracts/MinterRole.sol\":732:757  _removeMinter(msg.sender) */\n      jump\t// in\n    tag_25:\n        /* \"contracts/MinterRole.sol\":688:765  function renounceMinter() public {\r... */\n      jump\t// out\n        /* \"contracts/MinterRole.sol\":460:568  function isMinter(address account) public view returns (bool) {\r... */\n    tag_14:\n        /* \"contracts/MinterRole.sol\":516:520  bool */\n      0x00\n        /* \"contracts/MinterRole.sol\":540:560  minters.has(account) */\n      tag_28\n        /* \"contracts/MinterRole.sol\":552:559  account */\n      dup3\n        /* \"contracts/MinterRole.sol\":540:547  minters */\n      0x00\n        /* \"contracts/MinterRole.sol\":540:551  minters.has */\n      tag_29\n      swap1\n        /* \"contracts/MinterRole.sol\":540:560  minters.has(account) */\n      swap2\n      swap1\n      0xffffffff\n      and\n      jump\t// in\n    tag_28:\n        /* \"contracts/MinterRole.sol\":533:560  return minters.has(account) */\n      swap1\n      pop\n        /* \"contracts/MinterRole.sol\":460:568  function isMinter(address account) public view returns (bool) {\r... */\n      swap2\n      swap1\n      pop\n      jump\t// out\n        /* \"contracts/Roles.sol\":303:438  function add(Role storage role, address account) internal {\r... */\n    tag_17:\n        /* \"contracts/Roles.sol\":395:396  0 */\n      0x00\n        /* \"contracts/Roles.sol\":376:397  account != address(0) */\n      0xffffffffffffffffffffffffffffffffffffffff\n      and\n        /* \"contracts/Roles.sol\":376:383  account */\n      dup2\n        /* \"contracts/Roles.sol\":376:397  account != address(0) */\n      0xffffffffffffffffffffffffffffffffffffffff\n      and\n      eq\n      iszero\n        /* \"contracts/Roles.sol\":368:398  require(account != address(0)) */\n      tag_31\n      jumpi\n      0x00\n      dup1\n      revert\n    tag_31:\n        /* \"contracts/Roles.sol\":428:432  true */\n      0x01\n        /* \"contracts/Roles.sol\":405:409  role */\n      dup3\n        /* \"contracts/Roles.sol\":405:416  role.bearer */\n      0x00\n      add\n        /* \"contracts/Roles.sol\":405:425  role.bearer[account] */\n      0x00\n        /* \"contracts/Roles.sol\":417:424  account */\n      dup4\n        /* \"contracts/Roles.sol\":405:425  role.bearer[account] */\n      0xffffffffffffffffffffffffffffffffffffffff\n      and\n      0xffffffffffffffffffffffffffffffffffffffff\n      and\n      dup2\n      mstore\n      0x20\n      add\n      swap1\n      dup2\n      mstore\n      0x20\n      add\n      0x00\n      keccak256\n      0x00\n        /* \"contracts/Roles.sol\":405:432  role.bearer[account] = true */\n      0x0100\n      exp\n      dup2\n      sload\n      dup2\n      0xff\n      mul\n      not\n      and\n      swap1\n      dup4\n      iszero\n      iszero\n      mul\n      or\n      swap1\n      sstore\n      pop\n        /* \"contracts/Roles.sol\":303:438  function add(Role storage role, address account) internal {\r... */\n      pop\n      pop\n      jump\t// out\n        /* \"contracts/MinterRole.sol\":773:894  function _addMinter(address account) internal {\r... */\n    tag_23:\n        /* \"contracts/MinterRole.sol\":830:850  minters.add(account) */\n      tag_33\n        /* \"contracts/MinterRole.sol\":842:849  account */\n      dup2\n        /* \"contracts/MinterRole.sol\":830:837  minters */\n      0x00\n        /* \"contracts/MinterRole.sol\":830:841  minters.add */\n      tag_17\n      swap1\n        /* \"contracts/MinterRole.sol\":830:850  minters.add(account) */\n      swap2\n      swap1\n      0xffffffff\n      and\n      jump\t// in\n    tag_33:\n        /* \"contracts/MinterRole.sol\":878:885  account */\n      dup1\n        /* \"contracts/MinterRole.sol\":866:886  MinterAdded(account) */\n      0xffffffffffffffffffffffffffffffffffffffff\n      and\n      0x6ae172837ea30b801fbfcdd4108aa1d5bf8ff775444fd70256b44e6bf3dfc3f6\n      mload(0x40)\n      mload(0x40)\n      dup1\n      swap2\n      sub\n      swap1\n      log2\n        /* \"contracts/MinterRole.sol\":773:894  function _addMinter(address account) internal {\r... */\n      pop\n      jump\t// out\n        /* \"contracts/MinterRole.sol\":902:1031  function _removeMinter(address account) internal {\r... */\n    tag_26:\n        /* \"contracts/MinterRole.sol\":962:985  minters.remove(account) */\n      tag_35\n        /* \"contracts/MinterRole.sol\":977:984  account */\n      dup2\n        /* \"contracts/MinterRole.sol\":962:969  minters */\n      0x00\n        /* \"contracts/MinterRole.sol\":962:976  minters.remove */\n      tag_36\n      swap1\n        /* \"contracts/MinterRole.sol\":962:985  minters.remove(account) */\n      swap2\n      swap1\n      0xffffffff\n      and\n      jump\t// in\n    tag_35:\n        /* \"contracts/MinterRole.sol\":1015:1022  account */\n      dup1\n        /* \"contracts/MinterRole.sol\":1001:1023  MinterRemoved(account) */\n      0xffffffffffffffffffffffffffffffffffffffff\n      and\n      0xe94479a9f7e1952cc78f2d6baab678adc1b772d936c6583def489e524cb66692\n      mload(0x40)\n      mload(0x40)\n      dup1\n      swap2\n      sub\n      swap1\n      log2\n        /* \"contracts/MinterRole.sol\":902:1031  function _removeMinter(address account) internal {\r... */\n      pop\n      jump\t// out\n        /* \"contracts/Roles.sol\":732:905  function has(Role storage role, address account)\r... */\n    tag_29:\n        /* \"contracts/Roles.sol\":819:823  bool */\n      0x00\n        /* \"contracts/Roles.sol\":862:863  0 */\n      dup1\n        /* \"contracts/Roles.sol\":843:864  account != address(0) */\n      0xffffffffffffffffffffffffffffffffffffffff\n      and\n        /* \"contracts/Roles.sol\":843:850  account */\n      dup3\n        /* \"contracts/Roles.sol\":843:864  account != address(0) */\n      0xffffffffffffffffffffffffffffffffffffffff\n      and\n      eq\n      iszero\n        /* \"contracts/Roles.sol\":835:865  require(account != address(0)) */\n      tag_38\n      jumpi\n      0x00\n      dup1\n      revert\n    tag_38:\n        /* \"contracts/Roles.sol\":879:883  role */\n      dup3\n        /* \"contracts/Roles.sol\":879:890  role.bearer */\n      0x00\n      add\n        /* \"contracts/Roles.sol\":879:899  role.bearer[account] */\n      0x00\n        /* \"contracts/Roles.sol\":891:898  account */\n      dup4\n        /* \"contracts/Roles.sol\":879:899  role.bearer[account] */\n      0xffffffffffffffffffffffffffffffffffffffff\n      and\n      0xffffffffffffffffffffffffffffffffffffffff\n      and\n      dup2\n      mstore\n      0x20\n      add\n      swap1\n      dup2\n      mstore\n      0x20\n      add\n      0x00\n      keccak256\n      0x00\n      swap1\n      sload\n      swap1\n      0x0100\n      exp\n      swap1\n      div\n      0xff\n      and\n        /* \"contracts/Roles.sol\":872:899  return role.bearer[account] */\n      swap1\n      pop\n        /* \"contracts/Roles.sol\":732:905  function has(Role storage role, address account)\r... */\n      swap3\n      swap2\n      pop\n      pop\n      jump\t// out\n        /* \"contracts/Roles.sol\":509:648  function remove(Role storage role, address account) internal {\r... */\n    tag_36:\n        /* \"contracts/Roles.sol\":604:605  0 */\n      0x00\n        /* \"contracts/Roles.sol\":585:606  account != address(0) */\n      0xffffffffffffffffffffffffffffffffffffffff\n      and\n        /* \"contracts/Roles.sol\":585:592  account */\n      dup2\n        /* \"contracts/Roles.sol\":585:606  account != address(0) */\n      0xffffffffffffffffffffffffffffffffffffffff\n      and\n      eq\n      iszero\n        /* \"contracts/Roles.sol\":577:607  require(account != address(0)) */\n      tag_40\n      jumpi\n      0x00\n      dup1\n      revert\n    tag_40:\n        /* \"contracts/Roles.sol\":637:642  false */\n      0x00\n        /* \"contracts/Roles.sol\":614:618  role */\n      dup3\n        /* \"contracts/Roles.sol\":614:625  role.bearer */\n      0x00\n      add\n        /* \"contracts/Roles.sol\":614:634  role.bearer[account] */\n      0x00\n        /* \"contracts/Roles.sol\":626:633  account */\n      dup4\n        /* \"contracts/Roles.sol\":614:634  role.bearer[account] */\n      0xffffffffffffffffffffffffffffffffffffffff\n      and\n      0xffffffffffffffffffffffffffffffffffffffff\n      and\n      dup2\n      mstore\n      0x20\n      add\n      swap1\n      dup2\n      mstore\n      0x20\n      add\n      0x00\n      keccak256\n      0x00\n        /* \"contracts/Roles.sol\":614:642  role.bearer[account] = false */\n      0x0100\n      exp\n      dup2\n      sload\n      dup2\n      0xff\n      mul\n      not\n      and\n      swap1\n      dup4\n      iszero\n      iszero\n      mul\n      or\n      swap1\n      sstore\n      pop\n        /* \"contracts/Roles.sol\":509:648  function remove(Role storage role, address account) internal {\r... */\n      pop\n      pop\n      jump\t// out\n        /* \"#utility.yul\":7:146   */\n    tag_42:\n        /* \"#utility.yul\":53:58   */\n      0x00\n        /* \"#utility.yul\":91:97   */\n      dup2\n        /* \"#utility.yul\":78:98   */\n      calldataload\n        /* \"#utility.yul\":69:98   */\n      swap1\n      pop\n        /* \"#utility.yul\":107:140   */\n      tag_44\n        /* \"#utility.yul\":134:139   */\n      dup2\n        /* \"#utility.yul\":107:140   */\n      tag_45\n      jump\t// in\n    tag_44:\n        /* \"#utility.yul\":7:146   */\n      swap3\n      swap2\n      pop\n      pop\n      jump\t// out\n        /* \"#utility.yul\":152:481   */\n    tag_8:\n        /* \"#utility.yul\":211:217   */\n      0x00\n        /* \"#utility.yul\":260:262   */\n      0x20\n        /* \"#utility.yul\":248:257   */\n      dup3\n        /* \"#utility.yul\":239:246   */\n      dup5\n        /* \"#utility.yul\":235:258   */\n      sub\n        /* \"#utility.yul\":231:263   */\n      slt\n        /* \"#utility.yul\":228:347   */\n      iszero\n      tag_47\n      jumpi\n        /* \"#utility.yul\":266:345   */\n      tag_48\n      tag_49\n      jump\t// in\n    tag_48:\n        /* \"#utility.yul\":228:347   */\n    tag_47:\n        /* \"#utility.yul\":386:387   */\n      0x00\n        /* \"#utility.yul\":411:464   */\n      tag_50\n        /* \"#utility.yul\":456:463   */\n      dup5\n        /* \"#utility.yul\":447:453   */\n      dup3\n        /* \"#utility.yul\":436:445   */\n      dup6\n        /* \"#utility.yul\":432:454   */\n      add\n        /* \"#utility.yul\":411:464   */\n      tag_42\n      jump\t// in\n    tag_50:\n        /* \"#utility.yul\":401:464   */\n      swap2\n      pop\n        /* \"#utility.yul\":357:474   */\n      pop\n        /* \"#utility.yul\":152:481   */\n      swap3\n      swap2\n      pop\n      pop\n      jump\t// out\n        /* \"#utility.yul\":487:596   */\n    tag_51:\n        /* \"#utility.yul\":568:589   */\n      tag_53\n        /* \"#utility.yul\":583:588   */\n      dup2\n        /* \"#utility.yul\":568:589   */\n      tag_54\n      jump\t// in\n    tag_53:\n        /* \"#utility.yul\":563:566   */\n      dup3\n        /* \"#utility.yul\":556:590   */\n      mstore\n        /* \"#utility.yul\":487:596   */\n      pop\n      pop\n      jump\t// out\n        /* \"#utility.yul\":602:812   */\n    tag_16:\n        /* \"#utility.yul\":689:693   */\n      0x00\n        /* \"#utility.yul\":727:729   */\n      0x20\n        /* \"#utility.yul\":716:725   */\n      dup3\n        /* \"#utility.yul\":712:730   */\n      add\n        /* \"#utility.yul\":704:730   */\n      swap1\n      pop\n        /* \"#utility.yul\":740:805   */\n      tag_56\n        /* \"#utility.yul\":802:803   */\n      0x00\n        /* \"#utility.yul\":791:800   */\n      dup4\n        /* \"#utility.yul\":787:804   */\n      add\n        /* \"#utility.yul\":778:784   */\n      dup5\n        /* \"#utility.yul\":740:805   */\n      tag_51\n      jump\t// in\n    tag_56:\n        /* \"#utility.yul\":602:812   */\n      swap3\n      swap2\n      pop\n      pop\n      jump\t// out\n        /* \"#utility.yul\":899:995   */\n    tag_59:\n        /* \"#utility.yul\":936:943   */\n      0x00\n        /* \"#utility.yul\":965:989   */\n      tag_61\n        /* \"#utility.yul\":983:988   */\n      dup3\n        /* \"#utility.yul\":965:989   */\n      tag_62\n      jump\t// in\n    tag_61:\n        /* \"#utility.yul\":954:989   */\n      swap1\n      pop\n        /* \"#utility.yul\":899:995   */\n      swap2\n      swap1\n      pop\n      jump\t// out\n        /* \"#utility.yul\":1001:1091   */\n    tag_54:\n        /* \"#utility.yul\":1035:1042   */\n      0x00\n        /* \"#utility.yul\":1078:1083   */\n      dup2\n        /* \"#utility.yul\":1071:1084   */\n      iszero\n        /* \"#utility.yul\":1064:1085   */\n      iszero\n        /* \"#utility.yul\":1053:1085   */\n      swap1\n      pop\n        /* \"#utility.yul\":1001:1091   */\n      swap2\n      swap1\n      pop\n      jump\t// out\n        /* \"#utility.yul\":1097:1223   */\n    tag_62:\n        /* \"#utility.yul\":1134:1141   */\n      0x00\n        /* \"#utility.yul\":1174:1216   */\n      0xffffffffffffffffffffffffffffffffffffffff\n        /* \"#utility.yul\":1167:1172   */\n      dup3\n        /* \"#utility.yul\":1163:1217   */\n      and\n        /* \"#utility.yul\":1152:1217   */\n      swap1\n      pop\n        /* \"#utility.yul\":1097:1223   */\n      swap2\n      swap1\n      pop\n      jump\t// out\n        /* \"#utility.yul\":1352:1469   */\n    tag_49:\n        /* \"#utility.yul\":1461:1462   */\n      0x00\n        /* \"#utility.yul\":1458:1459   */\n      dup1\n        /* \"#utility.yul\":1451:1463   */\n      revert\n        /* \"#utility.yul\":1475:1597   */\n    tag_45:\n        /* \"#utility.yul\":1548:1572   */\n      tag_69\n        /* \"#utility.yul\":1566:1571   */\n      dup2\n        /* \"#utility.yul\":1548:1572   */\n      tag_59\n      jump\t// in\n    tag_69:\n        /* \"#utility.yul\":1541:1546   */\n      dup2\n        /* \"#utility.yul\":1538:1573   */\n      eq\n        /* \"#utility.yul\":1528:1591   */\n      tag_70\n      jumpi\n        /* \"#utility.yul\":1587:1588   */\n      0x00\n        /* \"#utility.yul\":1584:1585   */\n      dup1\n        /* \"#utility.yul\":1577:1589   */\n      revert\n        /* \"#utility.yul\":1528:1591   */\n    tag_70:\n        /* \"#utility.yul\":1475:1597   */\n      pop\n      jump\t// out\n\n    auxdata: 0xa264697066735822122073a3e33e0c94cce479c5e8606f2d6a602f9c8f0ddeb59aca3c15915d72136b0a64736f6c63430008070033\n}\n",
				"bytecode": {
					"linkReferences": {},
					"object": "608060405234801561001057600080fd5b506100203361002560201b60201c565b61011b565b61003d81600061008360201b6100e41790919060201c565b8073ffffffffffffffffffffffffffffffffffffffff167f6ae172837ea30b801fbfcdd4108aa1d5bf8ff775444fd70256b44e6bf3dfc3f660405160405180910390a250565b600073ffffffffffffffffffffffffffffffffffffffff168173ffffffffffffffffffffffffffffffffffffffff1614156100bd57600080fd5b60018260000160008373ffffffffffffffffffffffffffffffffffffffff1673ffffffffffffffffffffffffffffffffffffffff16815260200190815260200160002060006101000a81548160ff0219169083151502179055505050565b6104568061012a6000396000f3fe608060405234801561001057600080fd5b50600436106100415760003560e01c8063983b2d56146100465780639865027514610062578063aa271e1a1461006c575b600080fd5b610060600480360381019061005b919061036f565b61009c565b005b61006a6100bc565b005b6100866004803603810190610081919061036f565b6100c7565b60405161009391906103ab565b60405180910390f35b336100a6816100c7565b6100af57600080fd5b6100b88261017c565b5050565b6100c5336101d6565b565b60006100dd82600061023090919063ffffffff16565b9050919050565b600073ffffffffffffffffffffffffffffffffffffffff168173ffffffffffffffffffffffffffffffffffffffff16141561011e57600080fd5b60018260000160008373ffffffffffffffffffffffffffffffffffffffff1673ffffffffffffffffffffffffffffffffffffffff16815260200190815260200160002060006101000a81548160ff0219169083151502179055505050565b6101908160006100e490919063ffffffff16565b8073ffffffffffffffffffffffffffffffffffffffff167f6ae172837ea30b801fbfcdd4108aa1d5bf8ff775444fd70256b44e6bf3dfc3f660405160405180910390a250565b6101ea8160006102c290919063ffffffff16565b8073ffffffffffffffffffffffffffffffffffffffff167fe94479a9f7e1952cc78f2d6baab678adc1b772d936c6583def489e524cb6669260405160405180910390a250565b60008073ffffffffffffffffffffffffffffffffffffffff168273ffffffffffffffffffffffffffffffffffffffff16141561026b57600080fd5b8260000160008373ffffffffffffffffffffffffffffffffffffffff1673ffffffffffffffffffffffffffffffffffffffff16815260200190815260200160002060009054906101000a900460ff16905092915050565b600073ffffffffffffffffffffffffffffffffffffffff168173ffffffffffffffffffffffffffffffffffffffff1614156102fc57600080fd5b60008260000160008373ffffffffffffffffffffffffffffffffffffffff1673ffffffffffffffffffffffffffffffffffffffff16815260200190815260200160002060006101000a81548160ff0219169083151502179055505050565b60008135905061036981610409565b92915050565b60006020828403121561038557610384610404565b5b60006103938482850161035a565b91505092915050565b6103a5816103d8565b82525050565b60006020820190506103c0600083018461039c565b92915050565b60006103d1826103e4565b9050919050565b60008115159050919050565b600073ffffffffffffffffffffffffffffffffffffffff82169050919050565b600080fd5b610412816103c6565b811461041d57600080fd5b5056fea264697066735822122073a3e33e0c94cce479c5e8606f2d6a602f9c8f0ddeb59aca3c15915d72136b0a64736f6c63430008070033",
					"opcodes": "PUSH1 0x80 PUSH1 0x40 MSTORE CALLVALUE DUP1 ISZERO PUSH2 0x10 JUMPI PUSH1 0x0 DUP1 REVERT JUMPDEST POP PUSH2 0x20 CALLER PUSH2 0x25 PUSH1 0x20 SHL PUSH1 0x20 SHR JUMP JUMPDEST PUSH2 0x11B JUMP JUMPDEST PUSH2 0x3D DUP2 PUSH1 0x0 PUSH2 0x83 PUSH1 0x20 SHL PUSH2 0xE4 OR SWAP1 SWAP2 SWAP1 PUSH1 0x20 SHR JUMP JUMPDEST DUP1 PUSH20 0xFFFFFFFFFFFFFFFFFFFFFFFFFFFFFFFFFFFFFFFF AND PUSH32 0x6AE172837EA30B801FBFCDD4108AA1D5BF8FF775444FD70256B44E6BF3DFC3F6 PUSH1 0x40 MLOAD PUSH1 0x40 MLOAD DUP1 SWAP2 SUB SWAP1 LOG2 POP JUMP JUMPDEST PUSH1 0x0 PUSH20 0xFFFFFFFFFFFFFFFFFFFFFFFFFFFFFFFFFFFFFFFF AND DUP2 PUSH20 0xFFFFFFFFFFFFFFFFFFFFFFFFFFFFFFFFFFFFFFFF AND EQ ISZERO PUSH2 0xBD JUMPI PUSH1 0x0 DUP1 REVERT JUMPDEST PUSH1 0x1 DUP3 PUSH1 0x0 ADD PUSH1 0x0 DUP4 PUSH20 0xFFFFFFFFFFFFFFFFFFFFFFFFFFFFFFFFFFFFFFFF AND PUSH20 0xFFFFFFFFFFFFFFFFFFFFFFFFFFFFFFFFFFFFFFFF AND DUP2 MSTORE PUSH1 0x20 ADD SWAP1 DUP2 MSTORE PUSH1 0x20 ADD PUSH1 0x0 KECCAK256 PUSH1 0x0 PUSH2 0x100 EXP DUP2 SLOAD DUP2 PUSH1 0xFF MUL NOT AND SWAP1 DUP4 ISZERO ISZERO MUL OR SWAP1 SSTORE POP POP POP JUMP JUMPDEST PUSH2 0x456 DUP1 PUSH2 0x12A PUSH1 0x0 CODECOPY PUSH1 0x0 RETURN INVALID PUSH1 0x80 PUSH1 0x40 MSTORE CALLVALUE DUP1 ISZERO PUSH2 0x10 JUMPI PUSH1 0x0 DUP1 REVERT JUMPDEST POP PUSH1 0x4 CALLDATASIZE LT PUSH2 0x41 JUMPI PUSH1 0x0 CALLDATALOAD PUSH1 0xE0 SHR DUP1 PUSH4 0x983B2D56 EQ PUSH2 0x46 JUMPI DUP1 PUSH4 0x98650275 EQ PUSH2 0x62 JUMPI DUP1 PUSH4 0xAA271E1A EQ PUSH2 0x6C JUMPI JUMPDEST PUSH1 0x0 DUP1 REVERT JUMPDEST PUSH2 0x60 PUSH1 0x4 DUP1 CALLDATASIZE SUB DUP2 ADD SWAP1 PUSH2 0x5B SWAP2 SWAP1 PUSH2 0x36F JUMP JUMPDEST PUSH2 0x9C JUMP JUMPDEST STOP JUMPDEST PUSH2 0x6A PUSH2 0xBC JUMP JUMPDEST STOP JUMPDEST PUSH2 0x86 PUSH1 0x4 DUP1 CALLDATASIZE SUB DUP2 ADD SWAP1 PUSH2 0x81 SWAP2 SWAP1 PUSH2 0x36F JUMP JUMPDEST PUSH2 0xC7 JUMP JUMPDEST PUSH1 0x40 MLOAD PUSH2 0x93 SWAP2 SWAP1 PUSH2 0x3AB JUMP JUMPDEST PUSH1 0x40 MLOAD DUP1 SWAP2 SUB SWAP1 RETURN JUMPDEST CALLER PUSH2 0xA6 DUP2 PUSH2 0xC7 JUMP JUMPDEST PUSH2 0xAF JUMPI PUSH1 0x0 DUP1 REVERT JUMPDEST PUSH2 0xB8 DUP3 PUSH2 0x17C JUMP JUMPDEST POP POP JUMP JUMPDEST PUSH2 0xC5 CALLER PUSH2 0x1D6 JUMP JUMPDEST JUMP JUMPDEST PUSH1 0x0 PUSH2 0xDD DUP3 PUSH1 0x0 PUSH2 0x230 SWAP1 SWAP2 SWAP1 PUSH4 0xFFFFFFFF AND JUMP JUMPDEST SWAP1 POP SWAP2 SWAP1 POP JUMP JUMPDEST PUSH1 0x0 PUSH20 0xFFFFFFFFFFFFFFFFFFFFFFFFFFFFFFFFFFFFFFFF AND DUP2 PUSH20 0xFFFFFFFFFFFFFFFFFFFFFFFFFFFFFFFFFFFFFFFF AND EQ ISZERO PUSH2 0x11E JUMPI PUSH1 0x0 DUP1 REVERT JUMPDEST PUSH1 0x1 DUP3 PUSH1 0x0 ADD PUSH1 0x0 DUP4 PUSH20 0xFFFFFFFFFFFFFFFFFFFFFFFFFFFFFFFFFFFFFFFF AND PUSH20 0xFFFFFFFFFFFFFFFFFFFFFFFFFFFFFFFFFFFFFFFF AND DUP2 MSTORE PUSH1 0x20 ADD SWAP1 DUP2 MSTORE PUSH1 0x20 ADD PUSH1 0x0 KECCAK256 PUSH1 0x0 PUSH2 0x100 EXP DUP2 SLOAD DUP2 PUSH1 0xFF MUL NOT AND SWAP1 DUP4 ISZERO ISZERO MUL OR SWAP1 SSTORE POP POP POP JUMP JUMPDEST PUSH2 0x190 DUP2 PUSH1 0x0 PUSH2 0xE4 SWAP1 SWAP2 SWAP1 PUSH4 0xFFFFFFFF AND JUMP JUMPDEST DUP1 PUSH20 0xFFFFFFFFFFFFFFFFFFFFFFFFFFFFFFFFFFFFFFFF AND PUSH32 0x6AE172837EA30B801FBFCDD4108AA1D5BF8FF775444FD70256B44E6BF3DFC3F6 PUSH1 0x40 MLOAD PUSH1 0x40 MLOAD DUP1 SWAP2 SUB SWAP1 LOG2 POP JUMP JUMPDEST PUSH2 0x1EA DUP2 PUSH1 0x0 PUSH2 0x2C2 SWAP1 SWAP2 SWAP1 PUSH4 0xFFFFFFFF AND JUMP JUMPDEST DUP1 PUSH20 0xFFFFFFFFFFFFFFFFFFFFFFFFFFFFFFFFFFFFFFFF AND PUSH32 0xE94479A9F7E1952CC78F2D6BAAB678ADC1B772D936C6583DEF489E524CB66692 PUSH1 0x40 MLOAD PUSH1 0x40 MLOAD DUP1 SWAP2 SUB SWAP1 LOG2 POP JUMP JUMPDEST PUSH1 0x0 DUP1 PUSH20 0xFFFFFFFFFFFFFFFFFFFFFFFFFFFFFFFFFFFFFFFF AND DUP3 PUSH20 0xFFFFFFFFFFFFFFFFFFFFFFFFFFFFFFFFFFFFFFFF AND EQ ISZERO PUSH2 0x26B JUMPI PUSH1 0x0 DUP1 REVERT JUMPDEST DUP3 PUSH1 0x0 ADD PUSH1 0x0 DUP4 PUSH20 0xFFFFFFFFFFFFFFFFFFFFFFFFFFFFFFFFFFFFFFFF AND PUSH20 0xFFFFFFFFFFFFFFFFFFFFFFFFFFFFFFFFFFFFFFFF AND DUP2 MSTORE PUSH1 0x20 ADD SWAP1 DUP2 MSTORE PUSH1 0x20 ADD PUSH1 0x0 KECCAK256 PUSH1 0x0 SWAP1 SLOAD SWAP1 PUSH2 0x100 EXP SWAP1 DIV PUSH1 0xFF AND SWAP1 POP SWAP3 SWAP2 POP POP JUMP JUMPDEST PUSH1 0x0 PUSH20 0xFFFFFFFFFFFFFFFFFFFFFFFFFFFFFFFFFFFFFFFF AND DUP2 PUSH20 0xFFFFFFFFFFFFFFFFFFFFFFFFFFFFFFFFFFFFFFFF AND EQ ISZERO PUSH2 0x2FC JUMPI PUSH1 0x0 DUP1 REVERT JUMPDEST PUSH1 0x0 DUP3 PUSH1 0x0 ADD PUSH1 0x0 DUP4 PUSH20 0xFFFFFFFFFFFFFFFFFFFFFFFFFFFFFFFFFFFFFFFF AND PUSH20 0xFFFFFFFFFFFFFFFFFFFFFFFFFFFFFFFFFFFFFFFF AND DUP2 MSTORE PUSH1 0x20 ADD SWAP1 DUP2 MSTORE PUSH1 0x20 ADD PUSH1 0x0 KECCAK256 PUSH1 0x0 PUSH2 0x100 EXP DUP2 SLOAD DUP2 PUSH1 0xFF MUL NOT AND SWAP1 DUP4 ISZERO ISZERO MUL OR SWAP1 SSTORE POP POP POP JUMP JUMPDEST PUSH1 0x0 DUP2 CALLDATALOAD SWAP1 POP PUSH2 0x369 DUP2 PUSH2 0x409 JUMP JUMPDEST SWAP3 SWAP2 POP POP JUMP JUMPDEST PUSH1 0x0 PUSH1 0x20 DUP3 DUP5 SUB SLT ISZERO PUSH2 0x385 JUMPI PUSH2 0x384 PUSH2 0x404 JUMP JUMPDEST JUMPDEST PUSH1 0x0 PUSH2 0x393 DUP5 DUP3 DUP6 ADD PUSH2 0x35A JUMP JUMPDEST SWAP2 POP POP SWAP3 SWAP2 POP POP JUMP JUMPDEST PUSH2 0x3A5 DUP2 PUSH2 0x3D8 JUMP JUMPDEST DUP3 MSTORE POP POP JUMP JUMPDEST PUSH1 0x0 PUSH1 0x20 DUP3 ADD SWAP1 POP PUSH2 0x3C0 PUSH1 0x0 DUP4 ADD DUP5 PUSH2 0x39C JUMP JUMPDEST SWAP3 SWAP2 POP POP JUMP JUMPDEST PUSH1 0x0 PUSH2 0x3D1 DUP3 PUSH2 0x3E4 JUMP JUMPDEST SWAP1 POP SWAP2 SWAP1 POP JUMP JUMPDEST PUSH1 0x0 DUP2 ISZERO ISZERO SWAP1 POP SWAP2 SWAP1 POP JUMP JUMPDEST PUSH1 0x0 PUSH20 0xFFFFFFFFFFFFFFFFFFFFFFFFFFFFFFFFFFFFFFFF DUP3 AND SWAP1 POP SWAP2 SWAP1 POP JUMP JUMPDEST PUSH1 0x0 DUP1 REVERT JUMPDEST PUSH2 0x412 DUP2 PUSH2 0x3C6 JUMP JUMPDEST DUP2 EQ PUSH2 0x41D JUMPI PUSH1 0x0 DUP1 REVERT JUMPDEST POP JUMP INVALID LOG2 PUSH5 0x6970667358 0x22 SLT KECCAK256 PUSH20 0xA3E33E0C94CCE479C5E8606F2D6A602F9C8F0DDE 0xB5 SWAP11 0xCA EXTCODECOPY ISZERO SWAP2 0x5D PUSH19 0x136B0A64736F6C634300080700330000000000 "
				},
				"gasEstimates": {
					"creation": {
						"codeDepositCost": "222000",
						"executionCost": "infinite",
						"totalCost": "infinite"
					},
					"external": {
						"addMinter(address)": "infinite",
						"isMinter(address)": "infinite",
						"renounceMinter()": "infinite"
					},
					"internal": {
						"_addMinter(address)": "infinite",
						"_removeMinter(address)": "infinite"
					}
				},
				"methodIdentifiers": {
					"addMinter(address)": "983b2d56",
					"isMinter(address)": "aa271e1a",
					"renounceMinter()": "98650275"
				}
			},
			"storageLayout": {
				"storage": [
					{
						"astId": 39,
						"contract": "contracts/MinterRole.sol:MinterRole",
						"label": "minters",
						"offset": 0,
						"slot": "0",
						"type": "t_struct(Role)332_storage"
					}
				],
				"types": {
					"t_address": {
						"encoding": "inplace",
						"label": "address",
						"numberOfBytes": "20"
					},
					"t_bool": {
						"encoding": "inplace",
						"label": "bool",
						"numberOfBytes": "1"
					},
					"t_mapping(t_address,t_bool)": {
						"encoding": "mapping",
						"key": "t_address",
						"label": "mapping(address => bool)",
						"numberOfBytes": "32",
						"value": "t_bool"
					},
					"t_struct(Role)332_storage": {
						"encoding": "inplace",
						"label": "struct Roles.Role",
						"members": [
							{
								"astId": 331,
								"contract": "contracts/MinterRole.sol:MinterRole",
								"label": "bearer",
								"offset": 0,
								"slot": "0",
								"type": "t_mapping(t_address,t_bool)"
							}
						],
						"numberOfBytes": "32"
					}
				}
			},
			"userdoc": {
				"kind": "user",
				"methods": {},
				"version": 1
			}
		}
	}
}